:100000000C9435000C9450000C9450000C9450004B
:100010000C9450000C9450000C9450000C94500020
:100020000C9450000C9450000C9450000C94500010
:100030000C9450000C9450000C9450000C94500000
:100040000C9450000C9450000C9450000C945000F0
:100050000C945000EFDFFBF7FEFD3F065B4F666D33
:100060007D077F6F777C395E797111241FBECFE5E4
:10007000D4E0DEBFCDBF10E0A0E6B0E0EAEEF4E0F1
:1000800002C005900D92A036B107D9F710E0A0E6A6
:10009000B0E001C01D92A039B107E1F70C9409024C
:1000A0000C940000982F8F9A31E027E0969890FFEB
:1000B00002C0979A01C097989695969A832F8A9531
:1000C000F1F7215027FFF2CF089520E08F9881E0CB
:1000D000982F9A95F1F7382F97E026959698832FC9
:1000E0008A95F1F787992068969A915097FFF5CFF6
:1000F000822F992708951F93E62FFF27EC5AFF4F71
:10010000149192B3912392BB0E945200109582B336
:10011000812B82BB81E08A95F1F71F9108958F9220
:100120009F92AF92BF92CF92DF92EF92FF920F9386
:100130001F93CF93DF93CDB7DEB724970FB6F89414
:10014000DEBF0FBECDBFAA24E82EFF24F701EC5A74
:10015000FF4F949182B3892382BB82E40E945200B4
:1001600081E08A95F1F7CC24DD2493E0B92E4E018D
:100170000894811C911C8601080D191D0E946500C0
:10018000F8018083BA940894C11CD11CB7FEEFCF4C
:1001900084E590E0E80EF91EF7019491909582B302
:1001A000892B82BBF40120E030E083E0B82E8191FE
:1001B0009927022E02C0880F991F0A94E2F7A82AF5
:1001C000BA942F5F3F4FB7FEF2CFBB2461E070E0DF
:1001D0004A2D552720E030E0CB01022E02C0880FC7
:1001E000991F0A94E2F78417950731F0B3942F5FB3
:1001F0003F4FF7E0FB1580F78B2D992724960FB61C
:10020000F894DEBF0FBECDBFDF91CF911F910F914C
:10021000FF90EF90DF90CF90BF90AF909F908F9026
:100220000895FF920F931F93082FF62E142F642F1B
:1002300084E40E947B00E12FFF27EC5AFF4F1491CA
:1002400082B3812382BB802F806C0E9452008F2D4D
:100250000E945200109582B3812B82BB1F910F9197
:10026000FF900895CF92DF92EF92FF920F931F932A
:10027000CF93DF93CDB7DEB721970FB6F894DEBFEB
:100280000FBECDBF8B01E42EF22E622F84E40E94BC
:100290007B0090E09E1590F4CC24DD244F2DF801D6
:1002A00061918F018C2D99830E94110199819F5F2B
:1002B00022E030E0C20ED31E9E1580F321960FB6C9
:1002C000F894DEBF0FBECDBFDF91CF911F910F918C
:1002D000FF90EF90DF90CF9008959927662329F043
:1002E000880F991F61E0860F03C0880F991F8F5FE9
:1002F0000E9411010895DF92EF92FF920F931F93D6
:10030000CF93DF93D82EE62E00E010E027E0F22E08
:10031000E8018D2D9927002E02C0959587950A94A6
:10032000E2F780FF03C04E2D63E002C04E2D60E077
:100330008C2F8F5F0E941101FA940F5F1F4F22963E
:10034000F7FEE7CFDF91CF911F910F91FF90EF90D4
:10035000DF9008951F93CF93DF93182F682F8BE8BA
:100360000E947B00612F80E40E947B00C12FDD276B
:10037000FE01EC5AFF4F949182B3892382BB80EC3B
:100380000E9452001FE080E00E945200115017FFAF
:10039000FACFCC5ADF4FFE019491909582B3892B0E
:1003A00082BBDF91CF911F91089581B38FEF81BB05
:1003B00092B382BB0895FF920F931F93CF93DF9365
:1003C00036E0F32ECAE5D0E08E01F801949182B3B5
:1003D000892382BB82E40E94520081E08A95F1F772
:1003E0000E946500FE012491209592B3922B92BB4E
:1003F00082FF06C0FA94015010402197FF2029F790
:10040000F3948F2D9927DF91CF911F910F91FF903A
:100410000895CFE5D4E0DEBFCDBF0E94D5010E9494
:10042000DB01B82E10E01B15A8F4812F0E94AA0151
:1004300000E0C7E0EB2DFF27E65AFF4F8491412FE4
:10044000682F802F0E941101C1500E5FC7FFF2CFAD
:100450001F5FE9CF10E01B15E8F7EE24FF246701CA
:10046000812F0E948F00082F883098F5C82FDD2734
:10047000F701EC0FFD1FE05AFF4F80818F5F8083F3
:10048000812F0E948F008017D9F3F60143E0EE0F11
:10049000FF1F4A95E1F7EC0FFD1FE05AFF4F8081E7
:1004A000803108F010828081E82FFF27E65AFF4F45
:1004B0008491412F682F802F880F0E94110181E0C5
:1004C00090E002C0880F991FCA95E2F7612F0E9441
:1004D0007B011F5F0894C11CD11C88E090E0E80EEE
:0A04E000F91E1B1508F4BCCFB5CFC0
:00000001FF
