:1001E3003F065B4F666D7D077F6F777C395E797164
:0601F300EFDFFBF7FEFD4B
:09017700ED9001F39352807F42E8
:10018000E4FEC286EF30E004D2878002C287EFC36C
:0801900013FFD2860EBE08EA3F
:010198002244
:1001B400E4FFD287FEEFC313FFC2863087034307F1
:0701C40080D2860EBE08EE9A
:0101CB002211
:1001F900ED9001F3935280120180ED93F442802235
:02009000AD07BA
:10009200E4FC120177E4FB1201B4743A2BF8A607D0
:1000A2000BBB04F3ED9001F393F44280E4FB743A4A
:1000B2002BF8E6FFA803088002C333D8FC42040BE6
:1000C200BB04EBE4FB74017E00A803088005C33384
:1000D200CE33CED8F9FFEC6F7001EE60040BBB0893
:0300E200E4AF0385
:0100E50022F8
:07014C009001E393FDAB38C5
:10015300AC07AA05AD037F441201F9EB9001F393B9
:100163005280EC44C0FF120180AF02120180EB9376
:04017300F4428022B0
:100199008F3EED600AE53E25E004FF7D018008E51C
:0B01A9003E25E004FFE4FD120153229C
:0400E6008F3A8D3B85
:1000EA00E4F974017E00A801088005C333CE33CE3B
:1000FA00D8F9FFEF553A600BE925E004FFAB3B7DE9
:10010A00038009E925E004FFAB3BE4FD1201530932
:03011A00B908CF52
:01011D0022BF
:02011E00AC072C
:10012000AD047F8B1201F97F401201F9EC9001F3CD
:100130009352807FC0120180E4FDE4FF1201800D24
:0B014000BD10F7EC9001F393F4428037
:01014B002291
:1001CC007D061201771201B4ED93F44280EF30E218
:0601DC0002DDEFED04FF5F
:0101E20022FA
:100003001201CC8F39E4F538E538C395395018AF70
:100013003812011EE4F9E925E0FFE53912014C0924
:10002300B908F3053880E1E4F538E538C39539506C
:10003300F6AF38120090A907E9C39408504BE5388E
:1000430075F008A4292408F806AF38120090EF6968
:1000530060F7E53875F008A4292408F8E6D3940F6F
:100063004002E4F6E925E0FFE53875F008A4292409
:1000730008F8E612014CAF017401A807088002C317
:0D00830033D8FCFFAD381200E60538809D33
:03000000020209F0
:0C020900787FE4F6D8FD75813E0200030A
:00000001FF
