:100000000C9432000C944D000C944D000C944D0057
:100010000C944D000C944D000C944D000C944D002C
:100020000C944D000C944D000C944D000C944D001C
:100030000C944D000C944D000C944D000C944D000C
:100040000C944D000C944D000C944D000C944D00FC
:100050000C944D003F065B4F666D7D077F6F777C8C
:10006000395E797111241FBECFE5D4E0DEBFCDBF6C
:1000700010E0A0E6B0E0ECE1F5E002C005900D92E2
:10008000A036B107D9F710E0A0E6B0E001C01D929C
:10009000A039B107E1F70C9422020C940000982FCC
:1000A0008F9A31E027E0969890FF02C0979A01C09E
:1000B00097989695969A832F8A95F1F7215027FF66
:1000C000F2CF089520E08F9881E0982F9A95F1F76C
:1000D000382F97E026959698832F8A95F1F7879980
:1000E0002068969A915097FFF5CF822F992708950F
:1000F0000F931F9300E210E002C0159507956A95D3
:10010000E2F7202F209592B3922392BB0E944F00DA
:1001100082B3802B82BB81E08A95F1F71F910F910A
:1001200008958F929F92AF92BF92CF92DF92EF92FB
:10013000FF920F931F93CF93DF93CDB7DEB7249732
:100140000FB6F894DEBF0FBECDBFCC24A82EBB24C3
:1001500080E290E00A2C02C0959587950A94E2F718
:10016000982F909582B3892382BB82E40E944F002E
:1001700081E08A95F1F7EE24FF2493E0D92E4E0119
:100180000894811C911C8701080D191D0E946200B2
:10019000F8018083DA940894E11CF11CD7FEEFCFBC
:1001A00080E290E002C095958795AA94E2F722B389
:1001B000282B22BBF40120E030E083E0D82E81918F
:1001C0009927022E02C0880F991F0A94E2F7C82AC5
:1001D000DA942F5F3F4FD7FEF2CFDD2461E070E06D
:1001E0004C2D552720E030E0CB01022E02C0880FB5
:1001F000991F0A94E2F78417950731F0D3942F5F83
:100200003F4FF7E0FD1580F78D2D992724960FB607
:10021000F894DEBF0FBECDBFDF91CF911F910F913C
:10022000FF90EF90DF90CF90BF90AF909F908F9016
:100230000895DF92EF92FF920F931F93E82ED62E30
:10024000F42E642F84E40E94780000E210E002C0E3
:1002500015950795FA94E2F7902F909582B389232C
:1002600082BB8E2D806C0E944F008D2D0E944F000E
:1002700082B3802B82BB1F910F91FF90EF90DF9094
:100280000895CF92DF92EF92FF920F931F93CF9337
:10029000DF93CDB7DEB721970FB6F894DEBF0FBE60
:1002A000CDBF8B01E42EF22E622F84E40E947800F1
:1002B00090E09E1590F4CC24DD244F2DF80161913F
:1002C0008F018C2D99830E94190199819F5F22E0F3
:1002D00030E0C20ED31E9E1580F321960FB6F8941F
:1002E000DEBF0FBECDBFDF91CF911F910F91FF9069
:1002F000EF90DF90CF9008959927662329F0880F1B
:10030000991F61E0860F03C0880F991F8F5F0E94BD
:1003100019010895DF92EF92FF920F931F93CF93ED
:10032000DF93D82EE62E00E010E027E0F22EE80161
:100330008D2D9927002E02C0959587950A94E2F796
:1003400080FF03C04E2D63E002C04E2D60E08C2F75
:100350008F5F0E941901FA940F5F1F4F2296F7FEDC
:10036000E7CFDF91CF911F910F91FF90EF90DF903A
:1003700008950F931F93CF93182F682F8BE80E9437
:100380007800612F80E40E947800012F112780E21D
:1003900090E0002E02C0959587950A94E2F7982F79
:1003A000909582B3892382BB80EC0E944F00CFE0FE
:1003B00080E00E944F00C150C7FFFACF80E290E07A
:1003C00002C0959587950A95E2F722B3282B22BBA8
:1003D000CF911F910F91089581B38FEF81BB92B39D
:1003E00082BB0895FF920F931F93CF93DF9336E064
:1003F000F32EC6E0D0E000E210E00C2E02C015950E
:1004000007950A94E2F7902F909582B3892382BBD7
:1004100082E40E944F0081E08A95F1F70E94620019
:1004200092B3902B92BB82FF04C0FA942197FF20D5
:1004300011F7F3948F2D9927DF91CF911F910F9191
:10044000FF900895CFE5D4E0DEBFCDBF0E94EC0160
:100450000E94F201B82E10E01B15A8F4812F0E9413
:10046000B90100E0C7E0EB2DFF27EC5AFF4F849164
:10047000412F682F802F0E941901C1500E5FC7FFC6
:10048000F2CF1F5FE9CF10E01B15E8F7EE24FF2441
:100490006701812F0E949100082F883098F5C82F9E
:1004A000DD27F701EC0FFD1FE05AFF4F80818F5FC2
:1004B0008083812F0E9491008017D9F3F60143E0D9
:1004C000EE0FFF1F4A95E1F7EC0FFD1FE05AFF4FBB
:1004D0008081803108F010828081E82FFF27EC5A5C
:1004E000FF4F8491412F682F802F880F0E941901A0
:1004F00081E090E002C0880F991FCA95E2F7612F52
:100500000E948A011F5F0894C11CD11C88E090E002
:0C051000E80EF91E1B1508F4BCCFB5CF97
:00000001FF
