:100000000C9483030C94A0030C94BB030C94A003E6
:100010000C943D140C9449130C9410140C94B613C6
:100020000C94E3130C941C130C9489130C94C912B4
:100030000C94A0030C94A0030C94A0030C94A003B4
:100040000C94A0030C94A0030C94A0030C94A003A4
:100050000C94A003C522B122E122B522B722B92215
:10006000BD22DF22C122C322BF22CD22E722C72226
:10007000EB22EF22F822F122F122F122F122F122E9
:10008000F122F122F122F122DD22DB22E922CB2230
:10009000ED22F322B322F122F122F122F122F12208
:1000A000F122F122F122F122F122F122F122F122B8
:1000B000F122F122F122F122F122F122F122F122A8
:1000C000F122F122F122F122F122CF22D722D322F2
:1000D000BB22C922E322F122F122F122F122F122F4
:1000E000F122F122F122F122F122F122F122F12278
:1000F000F122F122F122F122F122F122F122F12268
:10010000F122F122F122F122F122D122D922D522AB
:10011000E52205010906A101050719E029E71500F7
:1001200025019508750181029501750881039505E2
:1001300075010508190129059102950175039103BF
:100140000507190029FF95067508150026FF00818F
:1001500000C005010902A10185030901A1000509EB
:100160001901290515002501750195058102750301
:10017000950181030501093009311581257F750835
:100180009502810609381581257F350045007508DF
:1001900095018106050C0A38021581257F750895A1
:1001A000018106C0C005010980A101850215012554
:1001B000B7190129B7751095018100C0050C090117
:1001C000A10185011501269C0219012A9C027510C6
:1001D00095018100C009023B0002010080FA090478
:1001E000000001030101000921010100012240007A
:1001F0000705810308000A0904010001030000004B
:100200000921010100012283000705830308000A78
:10021000000001000800400000010004000001008F
:10022000080020004000800000010004FEFEF8F8F5
:100230006C6C68686D6D69696B6B6767FEF8F6F6E4
:10024000F6FEF8F68E8D8E8D8E8D8E8D8E8D8E8D2A
:100250008E8D8E8D39398E8D39656565010101016F
:100260000101010101010101010101010000010180
:1002700000010101FEF8F6FB010204081020408095
:100280000000FC001C322123242B3433433B424B1F
:100290003A31444D152D1B2C3C2A1D22351A161EB1
:1002A00026252E363D3E46455A76660D294E555436
:1002B0005B5D5D4C520E41494A580506040C030B28
:1002C000830A010978077C7E7C706C7D71697A7481
:1002D0006B7275774A7C7B795A69727A6B73746C2E
:1002E000757D7071612F001412111F1459112700B0
:1002F00000373F5E48103A38302820184D153B34FF
:10030000233221502B404B1C43221D0000F1F237B9
:100310000F08101820283038404850575F6D0000F3
:100320008100820083008A01210223022402250227
:10033000260227022A02B500B600B700CD00E2006F
:10034000E900EA008301920194010000000000002E
:10035000000000009190666768696A6B6C6D6E6F53
:10036000707172738586464800488E8D0071727375
:100370008F006A6B6E6D6546494A4B4C4D4E52502C
:100380004F5154587172737475767778797A7B7C93
:100390007D7E7F808182838485868788898A8F009D
:1003A000494C4A4D4B4E6A6E65504F52515400397C
:1003B00053470073656C656374206D6F64650067F7
:1003C0006F6F64206279650020003A006F6E006FE5
:1003D000666600746F67676C6500657869740062B3
:1003E00061636B006D6163726F00626F6F74206D8B
:1003F000617070657200737461727400313A736574
:100400006C656374206D6163726F20696E646578DA
:1004100000323A636C656172206D6163726F0039FE
:100420003A636C65617220616C6C006B6579206D5C
:10043000617070657200313A6368616E6765206C47
:100440006179657200323A73656C656374206B651F
:1004500079202D20696E707574206B6579636F64E7
:100460006500333A7361766520616E642065786952
:100470007400343A6578697420776974686F7574AC
:1004800020736176696E6700393A7265736574200E
:10049000746F2064656661756C7420286375727270
:1004A000656E74206C61796572290063686F6F7383
:1004B00065206C617965722028313A206E6F726D0B
:1004C000616C2C20323A20464E2C20333A20464E86
:1004D00032292063757272656E743D200073656CFD
:1004E000656374206B65792028616E79206B65796E
:1004F00020796F752077616E74292000696E7075A0
:1005000074206B6579636F646520286D7573742042
:1005100033206E756D626572732C20636C65617239
:100520003A30303029203A20007361766520262049
:10053000657869742C207468616E6B20796F752EF4
:10054000006578697420776974686F7574207361C9
:1005500076696E672C2073656520796F75206C61F4
:100560007465722E00726573657420746F20646503
:100570006661756C742063757272656E74206C614F
:1005800079657200736176652063757272656E7449
:10059000206C61796572006C6F61642063757272A2
:1005A000656E74206C6179657200636F6C2C2072CB
:1005B0006F77203A2000736176696E672E2E2E00C9
:1005C00068656C6C6F003E3E20006E6F7468696EEB
:1005D0006700696E707574206D6163726F20696E5B
:1005E000646578202830317E31322C2063616E635F
:1005F000656C3A2030302C206D7573742032206E7B
:10060000756D6265727329203A200073656C6563AD
:100610007420696E646578202830317E31322C2058
:1006200063616E63656C3A20303029203A2000699E
:100630006E707574206B657920286D617820323476
:10064000206B6579732C2073746F70203A20707260
:100650006573732045534320647572696E6720315A
:10066000207365632900696E76616C6964206E751C
:100670006D6265722C20696E7075742061676169A6
:100680006E2E00636C6561722E2E2E00666E322F08
:1006900033206C6564006E6C00736C0065736320BE
:1006A000746F207E006C617A7920666E0004030905
:1006B000041C03770069006E006B00650079006C14
:1006C000006500730073002E006B00720010037051
:1006D00000730032006100760072005500120110B4
:1006E0000100000008A0201C420701010200014592
:1006F000464765666700202B2D2E30313233343566
:1007000036373839680011241FBECFE5D8E0DEBF88
:10071000CDBF10E0A0E6B0E0EAE2FDE502C0059042
:100720000D92A23CB107D9F715E0A2ECB0E001C0F0
:100730001D92A93AB107E1F70E94982A0C94932ED2
:100740000C940000A82FB92F80E090E041E050EA1F
:10075000609530E009C02D9182279795879510F01C
:1007600084279527305EC8F36F5FA8F30895EADF0A
:100770008D939D930895CF93CFB7CF93C395839BCC
:10078000E9F7839B0EC0839B0CC0839B0AC0839BAD
:1007900008C0839B06C0C0918005C395C0938005A7
:1007A000A3C0DF93C0917F05DD27C957DA4F839B34
:1007B00002C0DF91E6CF2F930F931F9300B32FEF6B
:1007C00003FB20F94F933F9310B34FEF012703FB37
:1007D00021F93BE031C04E7F012F10B3216028C0CA
:1007E000102F4D7F2260000000B329C04B7F246092
:1007F000012F000010B32BC010B3477F28602AC020
:100800004F7E00B320612CC04F7D10B320622FC0FB
:100810004F7B00B3206432C0422700B349934FEFAF
:100820000000102713FB20F910B31C70C9F1297FB9
:1008300091F2012703FB21F900B3237F89F23150A4
:1008400058F1102713FB22F910B3277E79F2012704
:1008500003FB23F92F7C81F200B3102713FB24F94B
:100860002F7971F200C010B3012703FB25F92F7314
:1008700059F200C000B3102713FB26F9223040F2D2
:1008800000C010B3012703FB27F9243028F64F7767
:10089000206810B30000F9CF10E81ABF002719C074
:1008A0003B503195C31BD04010E81ABF0881033C70
:1008B000F9F00B34E9F020917D051981110F121325
:1008C000EDCF4A81441F093641F10D3211F0013E4E
:1008D00029F7009385053F914F911F910F912F911B
:1008E000DF91CAB7C7FD4ACFCF91CFBFCF9118953F
:1008F00020918505222379F3109183051123C1F5F9
:100900003430C2F13093830520937E0510917F052A
:100910003BE0311B30937F052DC0009183050130F2
:100920003CF50AE54F7049F43091BE0034FD24C017
:100930000093BE00C6E6D5E023C0433049F03091B5
:10094000710534FD19C000937105C2E7D5E018C0E8
:1009500030919D0534FD10C000939D05CEE9D5E092
:100960000FC02795A8F45150A9F4220F0000F9CF29
:100970004AE503C042ED01C0432FC4E1D0E032E0BC
:1009800011B31C60939A11BB02B320E41CE05F9387
:10099000012756E002BB279520F4515021F4220F85
:1009A000F9CF012756E000003B5A02BBD0F2279551
:1009B00028F4515029F4220F0000F9CF012756E006
:1009C000279502BB20F4515021F4220FF9CF0127C3
:1009D00056E02991332302BB21F6037F1091840551
:1009E000110FC651D04002BB11F010937D0510E8E5
:1009F0001ABF086011B3137F402F437F5F9100C07F
:100A000000C002BB11BB42BB66CF982FFA01D901CF
:100A10008091D5008923E081882341F0E92379F48E
:100A2000662311F485E007C084E005C0E92339F0AE
:100A3000662319F483E08C93089582E08C930895E3
:100A4000662361F0813011F4909A0895823011F498
:100A5000919A0895843069F4969A0895813011F43A
:100A600090980895823011F491980895843009F493
:100A70009698089581B3836181BB82B38C7E82BBDB
:100A80008E9A969808958093D50008958091D50008
:100A900008951092C20008952091600030E0AC01EA
:100AA000429FC001439F900D529F900D11246FEF04
:100AB00070E00E94D12CCB0108950E94C6120895C7
:100AC0009091C900992319F480E090E010C0913012
:100AD00049F41092CF001092CE001092CD001092E7
:100AE000CC000895923031F48091600090E00E9433
:100AF000C6120895892F83508230A0F483E080933A
:100B0000D300943019F481E08093D3008091D30016
:100B10009FEF899FC00111246CE070E00E94D12CEE
:100B20006093D20008951092C3000E94600508955A
:100B3000809160008E31A1F08951809360008E31E8
:100B400018F48EE1809360008091C900823011F426
:100B50000E94600581E090E09093C8008093C700F8
:100B60000895809160008F3FA9F090E049968F3FF3
:100B7000910511F00CF08FEF809360008091C90017
:100B8000823011F40E94600581E090E09093C800EB
:100B90008093C700089590989198969880E090E08F
:100BA0000E94C6129498089581E08093C30080E06B
:100BB00090E00E94C612949808952223E9F10E94C1
:100BC00047198823C9F58091C3008823A9F580912E
:100BD000C9008330C1F484EF91E09093D1008093F9
:100BE000D0008091D3008C3038F58F5F8093D30094
:100BF0009FEF899FC00111246CE070E00E94D12C0E
:100C00006093D20008958430B9F484EF91E090931A
:100C1000D1008093D0008091D300882369F0815067
:100C20008093D3009FEF899FC00111246CE070E096
:100C30000E94D12C6093D20008950E944719882306
:100C400091F48091C90090E0019665E070E00E9407
:100C5000D12C8093C90081E090E09093C8008093EC
:100C6000C7000E9460050895662311F0893311F0D2
:100C70008D3F21F481E00E941D0605C08A3F29F4C2
:100C800081E00E94B10580E00895893F11F081E084
:100C9000089581E00E94980580E008951F930E94C6
:100CA000B723813069F40E94B42360E0811161E0D0
:100CB00081E046ED50E024ED30E00E94050507C0DC
:100CC0008091D50080FF02C0909A01C090988091D9
:100CD000D50081FF02C0919A01C091980E94B7236C
:100CE000823069F40E94B42360E0811161E084E005
:100CF00046ED50E024ED30E00E94050507C08091EC
:100D0000D50082FF02C0969A01C096981091D50036
:100D1000612F70E076956795617084E046ED50E054
:100D200024EC30E00E9405051093D6001F91089531
:100D30001092C3000E944E060E9460050895209103
:100D4000D400222309F442C08091D9009091DA00A6
:100D500001969093DA008093D90085369105D4F1FD
:100D6000253011F0233029F40E94B7238130F1F4AB
:100D700022C0243011F0223041F40E94B723813088
:100D800011F4909819C0969817C00E94B72381302B
:100D900029F40E94B423882371F40EC00E94B72363
:100DA000823031F40E94B423882331F0969A04C033
:100DB0008091D50080FD909A1092DA001092D900AF
:100DC0008091D40081508093D40008951092DA006D
:100DD0001092D900089589E090E00E946E2E8093D1
:100DE00060008093CB008BE090E00E946E2E809399
:100DF000C900853010F01092C9008091C90080931D
:100E0000CA000E94600508958091C200882361F4A1
:100E100081E08093C2000E942B1188E00E94691239
:100E20000E94AE120E94EB060895CF93DF93EC016F
:100E30000E94B723813029F40E94B423882339F01B
:100E400004C08091D50080FF02C0909801C0909AA4
:100E50008091D50081FF02C0919801C0919ACE0186
:100E60000E94A6210E94B723813029F40E94B42356
:100E7000882339F004C08091D50080FF02C0909A89
:100E800001C090988091D50081FF02C0919A01C065
:100E90009198DF91CF9108950E9482238823A1F435
:100EA00081E080936100089590916100913011F488
:100EB000919801C0919A1092D8001092D70081E0C9
:100EC00098279093610008958091D7009091D80061
:100ED00001969093D8008093D7008558934024F7CB
:100EE00008958091C200882309F44EC10E944719D9
:100EF000882309F049C10E944C070E949F06209157
:100F0000C400222311F18091C5009091C600019682
:100F10009093C6008093C50085369105D4F02530A6
:100F200059F0233049F0243011F0223011F4919817
:100F300004C08091D50081FD919A1092C600109254
:100F4000C50021502093C40004C01092C600109226
:100F5000C5008091C7009091C8001816190644F585
:100F600001969093C8008093C700885E934001F576
:100F70001092C8001092C7006091C9008091CA0009
:100F8000681731F06093CA008BE090E00E94762EE3
:100F9000609160008091CB00861731F06093CB00A8
:100FA00089E090E00E94762E82E390E00E9415078F
:100FB0008091C300882309F0E7C08091C900813087
:100FC00009F059C08091CC009091CD00009761F458
:100FD0008091CE009091CF0068E070E00E94D12C0B
:100FE000CB010E944C0513C082309105A1F4809181
:100FF000CE009091CF0068E070E00E94D12CCB0130
:10100000909581959F4F81509F4F0E944C0590E095
:101010000E94C6120EC08130910511F0039749F469
:101020008091CE009091CF0001969093CF00809355
:10103000CE008091CE009091CF00885F97408CF0D9
:101040001092CF001092CE008091CC009091CD00F4
:10105000019664E070E00E94D12C9093CD008093C3
:10106000CC008091CE009091CF0001969093CF005C
:101070008093CE0008958330D9F58091D00090916F
:10108000D1001816190634F401979093D10080937B
:10109000D00028C02091D2002223F1F08091CE0010
:1010A0009091CF0001969093CF008093CE00089747
:1010B000CCF01092CF001092CE0021502093D2009D
:1010C0008FEF90E0821B91096BEE7FEF0E94D12C95
:1010D000645F6093D30006C01092D3001092CF00DB
:1010E0001092CE008091D20090E00E944C053EC04C
:1010F000843009F03FC08091D0009091D100181643
:10110000190634F401979093D1008093D00029C040
:101110002091D2002F3FF1F08091CE009091CF002E
:1011200001969093CF008093CE000897D4F0109250
:10113000CF001092CE002F5F2093D2008FEF90E06F
:10114000821B91096BEE7FEF0E94D12C645F60934C
:10115000D30007C08CE08093D3001092CF00109290
:10116000CE008091D20090E00E944C0590E00E9459
:10117000C61208951092CF001092CE0083E090E046
:101180009093CD008093CC000895809162000895E3
:101190008091630008958091DD000895EF92FF92A1
:1011A0001F93CF93DF9360E070E081E0E82EF12C95
:1011B000FB01E151FF4F80818823D9F120E030E02D
:1011C000C82FD0E0162F1F5FCE01022E02C09595CA
:1011D00087950A94E2F780FF27C0522F22C0CE01E4
:1011E000052E02C0959587950A94E2F780FF19C0F5
:1011F000412FD701052E02C0AA0FBB1F0A94E2F7A8
:101200000EC0E42FF0E0E151FF4F808190E08A238F
:101210009B231816190614F481E012C04F5F413168
:1012200081F75F5F5830D8F22F5F3F4F283031058C
:1012300059F66F5F7F4F6131710509F0B9CF80E0DA
:10124000DF91CF911F91FF90EF90089580917704E7
:101250009091780408958EED90E0089581E0809358
:101260006200EFEEF0E08081882319F010926200B6
:1012700005C0319681E0E030F807A9F781E080935E
:101280006300EEEDF0E08081882319F01092630096
:1012900005C0319680E0EF3EF807A9F78091620023
:1012A000882341F40E944718882331F48091DD009F
:1012B000882311F41092DC000895AEEDB0E0809127
:1012C0007704909178049C01F90181E101900D92DD
:1012D0008150E1F70895DF93CF930F92CDB7DEB73A
:1012E00019828FEE90E0BE016F5F7F4F0E942F0B3F
:1012F0008981882319F01092010107C080910101B2
:10130000843618F48F5F80930101909101018091E0
:101310000001981711F080E00EC00E94CE088823CB
:1013200019F08EED90E002C08FEE90E0909378047B
:101330008093770481E00F90CF91DF9108950E9410
:101340006B0908950E94B423882329F00E94B423D6
:101350008093DB0008951092DB000895CF92DF9216
:10136000FF920F931F93CF93DF938091DC0088232C
:1013700039F00E94A2091092DD001091DC005EC0DD
:101380000091770410917804FF2491E0C92ED12CAC
:10139000F8018081882309F444C0C0E0D0E09601C0
:1013A0000C2E02C0220F331F0A94E2F7F80180814D
:1013B000822391F18091DB006F2D4C2F0E94BC188D
:1013C0000E9458178E3F99F0883F11F412E010C028
:1013D000863F11F413E00CC08B3FF1F48091DB00E9
:1013E0008230D1F481E08093DD0010E027C011E06D
:1013F0000E945E26882351F080916300882321F4A7
:101400008091DD008823C1F41093DC000E94A209C2
:1014100081E08093DD0012C02196C830D10509F02B
:10142000BECFF3940F5F1F4FF1E1FF1609F0B0CF6D
:101430000E94A2091092DD001091DB00812FDF9144
:10144000CF911F910F91FF90DF90CF90089581E190
:10145000EEEDF0E0DF01982F1D929A95E9F7EFEE9F
:10146000F0E0DF011D928A95E9F708950E94F10AE4
:1014700087E0809300018AE0809301018FEE90E085
:1014800090937804809377040895FC0183818132DE
:1014900061F08232D9F0823081F585ED91E0909350
:1014A0008205809381058BE308958281882319F05A
:1014B000813019F503C087EE91E002C080E092E030
:1014C000909382058093810589E0089584819581B8
:1014D000009719F0019789F408C082E191E0909398
:1014E00082058093810580E4089582E591E09093E0
:1014F00082058093810583E8089580E00895FC01CA
:1015000080910301882329F0613019F480810E94C1
:10151000F4281092030181E008950F931F93CF9355
:10152000DF93182F092F0E94E126C12FD02F888129
:1015300080768032D1F58981813041F489E794E069
:10154000909382058093810588E030C0893071F4E2
:101550008A819B818050924041F58C819D81892BAD
:1015600021F581E0809303018FEF20C0823019F4D0
:101570008091020114C08A3031F40E94E5268B81EB
:101580008093020112C0833031F48B81882369F487
:10159000109264000BC08B3041F480916400809302
:1015A00081051092820581E001C080E0DF91CF913A
:1015B0001F910F91089528E088E190E00FB6F8940C
:1015C000A89581BD0FBE21BDFFCF813011F090E005
:1015D00006C090E0613009F091E081E09827892F02
:1015E00008958FEF87BB88BB1ABA14BA8BBB85BB33
:1015F0008F98979A089521E030E002C0220F331FA0
:101600008A95E2F727BB209528BB84E18A95F1F7FC
:101610000895282F883058F449B381E090E002C043
:10162000880F991F2A95E2F74095482316C0682F26
:1016300070E0803120F443B38FE090E003C040B30A
:1016400087E190E0861B970B21E030E002C0220F7B
:10165000331F8A95E2F740954223842F08955F92C5
:101660006F927F928F929F92AF92BF92CF92DF92B2
:10167000EF92FF920F931F93CF93DF93782EC92E93
:101680005B0100E010E091E0892E912C84E1582E5E
:10169000662463949401002E02C0220F331F0A9423
:1016A000E2F727BB822F809588BB852D8A95F1F7BD
:1016B000472D5C2DCA01EC01FF24E22ED22ED094DE
:1016C0008F2D0E94090B282F98818E2D892319F0C8
:1016D000222329F008C0222331F09E2901C09D2138
:1016E0009883F5016082F3942196F1E1FF1641F7AA
:1016F0000F5F1F4F0830110569F6DF91CF911F91E1
:101700000F91FF90EF90DF90CF90BF90AF909F90A0
:101710008F907F906F905F90089580930501F8946B
:10172000809182048F7E80938204809182048860FD
:101730008093820478940895F894809182048B7F3A
:1017400080938204789480910401089580918204AA
:1017500090E09695879596958795817008958091EC
:10176000820490E034E0969587953A95E1F7817090
:1017700008958FEC82BF80918104833000F58B98AF
:10178000939A8091820480FF23C0829BA3C08091A2
:101790008104813031F0813040F0823009F0F6C0B0
:1017A00006C0839902C08DE096C082E094C080910B
:1017B000820483FFEBC093988B9A84E28CC0809163
:1017C00081048A3108F079C08091820480FD08C0CC
:1017D000809182048160809382048A98929A08950D
:1017E000829B76C080918104873140F4803118F566
:1017F0008D3061F08F3009F055C00CC08831E1F1B7
:10180000883158F1893109F04DC049C08091820476
:101810008D7F4DC0809182048B7F80938204839B57
:1018200005C080E88093040181E014C01092070194
:101830001092040137C080910401869580930401C1
:10184000839B30C080910401806880930401809163
:1018500007018F5F8093070125C0839B05C080919E
:1018600007018F5F809307018091070180FD1AC0F7
:1018700080918204826010C0839905C080918204A7
:101880008260809382048091820481FD0BC09398D2
:101890008B9A8091820484608093820403C08B9829
:1018A000939A6CC092988A9A809182048E7F8093DA
:1018B0008204809181048F5F0EC0809181048F32F9
:1018C00008F064C08091820480FF10C0829906C035
:1018D0008B98939A81E0809381040895809182048B
:1018E0008E7F8093820492988A9A089580918204D0
:1018F0008160809382048A98929A809181048C32CC
:1019000028F4853280F48432E1F507C08D3299F1F4
:101910008D32E8F08E32A9F531C0809105018093B7
:101920000601109207018091060180FF08C08B9884
:10193000939A809107018F5F8093070102C093986B
:101940008B9A809106018695809306011AC080913A
:10195000070180FF03C093988B9A02C08B98939ADB
:1019600080918204877F80938204809182048061C9
:101970008093820406C08B98939A03C010928104CE
:101980000895809181048F5F80938104089510925F
:10199000810481E1809382048A98929A8B98939A29
:1019A0000E941A1182E00E945B1180E069EB7BE0EB
:1019B0000E9491118FEC82BF0895282F8F3F31F440
:1019C00010920A0181E080930F0108958E3F21F06B
:1019D0008D3F29F410920A0110920F010895809111
:1019E0000F01882351F080910A01E82FF0E0E352C3
:1019F000FE4F20838F5F80930A0180910B019091AD
:101A00000C01019668EC70E00E94D12CFC019093CF
:101A10000C0180930B0180910D0190910E018E17A6
:101A20009F0759F4009719F487EC90E001C00197E3
:101A300090930C0180930B010895EC5EFE4F208380
:101A4000089540E020910D0130910E0180910B012D
:101A500090910C012817390709F041E0842F08956F
:101A6000FF920F931F93F62E882309F49CC00E94C7
:101A70006617182F8D3B08F096C0A82FB0E0FD0127
:101A8000E058FD4F0491FF2009F45CC08093DC0115
:101A90001092E7011092E8011092E9011092EA0118
:101AA00010928504A551BE4F8C91F82E81FF2DC058
:101AB000163419F01834F1F50EC08FEF0E94DD0CCA
:101AC00080EE0E94DD0C82E10E94DD0C80EE0E941F
:101AD000DD0C8CE727C08DEF0E94DD0C81EE0E94AB
:101AE000DD0C84E10E94DD0C87E70E94DD0C81EEB5
:101AF0000E94DD0C80EF0E94DD0C84E10E94DD0C71
:101B000080EF0E94DD0C87E710C082FF02C0802FAB
:101B10000CC08FEF0E94DD0CF0FE03C080EE0E942F
:101B2000DD0C802F0E94DD0C8EEF0E94DD0C8CEF0F
:101B30000E94DD0CF5FE39C0173411F40E945118D3
:101B40008BEF2EC08091DC01811711F410920A01F5
:101B5000E12FF0E0E551FE4F808181FF13C0163484
:101B600021F580EE0E94DD0C80EF0E94DD0C8CE7F9
:101B70000E94DD0C80EE0E94DD0C80EF0E94DD0CE7
:101B800082E10BC082FD11C080FF03C080EE0E9485
:101B9000DD0C80EF0E94DD0C802F0E94DD0C8CEFAD
:101BA0000E94DD0C02C080E001C081E01F910F9116
:101BB000FF90089580917404882339F481E0809324
:101BC00074040E94802B0E94882108951F93162F71
:101BD0008E3F11F0809384040E948D0B1093850436
:101BE0001F9108958F929F92AF92BF92CF92DF92F2
:101BF000EF92FF920F931F93CF93DF9388E0809330
:101C000085040E94C70CEBEEF1E0119222E0EB3864
:101C1000F207D9F726E633E006C0FC01E551FE4F96
:101C2000808182608083F901849190E02F5F3F4F33
:101C3000009799F729E633E006C0FC01E551FE4F15
:101C4000808184608083F901849190E02F5F3F4F11
:101C5000009799F72DE633E006C0FC01E551FE4FF1
:101C6000808188608083F901849190E02F5F3F4FED
:101C7000009799F722E733E006C0FC01E551FE4FDB
:101C8000808181608083F901849190E02F5F3F4FD4
:101C9000009799F720EA33E006C0FC01E551FE4FBA
:101CA000808180618083F901849190E02F5F3F4FB4
:101CB000009799F72FEA33E006C0FC01E551FE4F8B
:101CC000808180628083F901849190E02F5F3F4F93
:101CD000009799F710920E0110920D0110920C01CD
:101CE00010920B0110920A01109210011092E7015C
:101CF0001092E8011092E9011092EA0186E090E06A
:101D00000E946E2E8F3F09F481E0609109016623E5
:101D100019F48093090106C0681721F086E090E06D
:101D20000E94762E85E690E00E94091587E690E0F5
:101D30000E946D2A0E94270A789499249394A5E022
:101D4000AA2EB12CC12CD12CF6E98F2ECCEFD0E0ED
:101D50008091C000882309F5809174048823E9F4F8
:101D60008091720490917304019690937304809310
:101D700072040197895E934084F081E08093C000F3
:101D8000DF91CF911F910F91FF90EF90DF90CF9057
:101D9000BF90AF909F908F9008958091820481FFB3
:101DA00007C0F894809182048D7F80938204789498
:101DB0000E94A60B882309F402C180911101909121
:101DC00012018C3F910561F020910D0130910E01BF
:101DD00080910B0190910C012817390709F0EFC091
:101DE0000E949C0B80938B021092130160918504DA
:101DF000623009F46BC0633018F4613039F460C0AC
:101E0000663009F4C8C0673009F47BC0833F79F1BC
:101E1000843F70F48E3ED1F08F3E20F48D3E09F069
:101E2000CAC022C0803FE9F0823F09F0C4C010C0A0
:101E3000863F39F1873F20F4843F09F0BCC01AC0C7
:101E40008E3F61F08F3F09F0B6C005C08EEEB5C081
:101E50008AEF64E0B2C08AEF68E0AFC0809184048A
:101E6000ACC08AEF62E0A9C08AEF66E0A6C08AEF44
:101E700067E0A3C08AEF60E00E94E60D0E94DA0DE1
:101E80009EC090926900A0926A00B0926B00C092CE
:101E90006C00D0926D0010920E0110920D01109204
:101EA0000C0110920B0110920A0110921001109275
:101EB000E7011092E8011092E9011092EA017BC05B
:101EC000853F09F478C08AEF61E077C010920E0177
:101ED00010920D0110920C0110920B0110920A0148
:101EE000109210011092E7011092E8011092E9019E
:101EF0001092EA01882311F060E001C063E08AEFEC
:101F00005CC090E09C0120763070E5E03595279527
:101F1000EA95E1F7209369009C01277030703093B7
:101F20008D0220938C028871907073E0959587954F
:101F30007A95E1F790938F0280938E0241E050E012
:101F400020E030E004C0440F551F2F5F3F4F28179B
:101F50003907CCF34093920250939302309391024D
:101F60002093900280918C0290918D029C01429F5F
:101F7000C001439F900D529F900D1124AA2797FDF9
:101F8000A095BA2F80936A0090936B00A0936C0089
:101F9000B0936D0010C00E94DA0D80918B02982FD3
:101FA00080E090FD84E091FD816092FD82600E945E
:101FB00043050E944E068AEF60E00E94E60D0E94F3
:101FC000AF0B882309F4C4CE80911301882309F054
:101FD000BFCE80918504843009F40DC1853030F482
:101FE000882371F0833009F0B3CE03C1883009F43F
:101FF00007C18C3009F480C0853009F0A9CEFEC03D
:1020000020910D0130910E0180910B0190910C01F6
:102010002817390711F40E9489160E94A7232091DE
:102020000D0130910E0180910B0190910C01281748
:10203000390711F480E00EC0C901019668EC70E028
:102040000E94D12CFC0190930E0180930D01EC5E57
:10205000FE4F8081282F30E0309312012093110130
:102060002B3F310539F4D0931201C09311019092A6
:1020700013016ECE2C3F310509F46ACE232B21F0DB
:1020800060E00E94E60D5EC080910A01882309F499
:102090005FCE2091E7013091E8014091E901509134
:1020A000EA012F5F3F4F4F4F5F4F2093E70130937F
:1020B000E8014093E9015093EA0180916900889D0D
:1020C000C00111248A519F4FAA2797FDA095BA2FCE
:1020D000281739074A075B070CF43ACE1092E7013C
:1020E0001092E8011092E9011092EA011092100199
:1020F0008CE0809385042CCE80911001882311F40C
:102100000E9489160E94A72380910A018823C1F0AA
:1021100020910D0130910E0180910B0190910C01E5
:102120002817390769F48091E7019091E801A0919F
:10213000E901B091EA010197A105B10561F40FC071
:10214000109285041092E7011092E8011092E901C3
:102150001092EA01FDCD809110018823A9F09091A1
:102160001001E92FF0E0E352FE4F80819F5F9093D2
:1021700010016CE00E94E60D60910A01809110014F
:102180000E94C52C90931001E090E701F090E801C7
:102190000091E9011091EA010894E11CF11C011D74
:1021A000111D60916A0070916B0080916C0090919C
:1021B0006D002AE030E040E050E00E94A62C6D5F08
:1021C0007F4F8F4F9F4F2091090130E040E050E05A
:1021D0000E94A62C9B01AC01C801B7010E94062DEC
:1021E0006093E7017093E8018093E9019093EA011D
:1021F000AFCD82E01AC08BEA65E018C083E815C055
:1022000010920E0110920D0110920C0110920B0110
:1022100010920A01109210011092E7011092E80149
:102220001092E9011092EA018AEA60E00E94E60D4C
:102230008FCD089583B7887F826083BF12BE89B730
:10224000816089BF109286041092870410928804DE
:102250001092890408958EB5887F83608EBD1DBC61
:102260001CBC89B7846089BF089585B5887F846068
:1022700085BD14BC89B7806489BF10928E0410920A
:102280008F041092900410929104089580E090E0E1
:10229000FC01EE0FFF1FEC56FD4F118210820196DC
:1022A00088309105A9F70E941A110E942B110E94F3
:1022B00035117894089593B7987F982B93BF08951C
:1022C0009EB5987F982B9EBD089595B5987F982BC5
:1022D00095BD089583B7E82FF0E0E770F070EE0F3A
:1022E000FF1FE05FFD4F25913491C90108958EB520
:1022F000E82FF0E0E770F070EE0FFF1FE05FFD4F9A
:1023000025913491C901089585B5E82FF0E0E77073
:10231000F070EE0FFF1FE45EFD4F25913491C9016F
:102320000895883040F4E82FF0E0EE0FFF1FEC56E0
:10233000FD4F718360830895883040F4E82FF0E00A
:10234000EE0FFF1FEC56FD4F118210820895AF92E1
:10235000BF92CF92DF92EF92FF920F931F93CF9392
:10236000DF93EC0112B710928A0410928B04109242
:102370008C0410928D0483B7E82FF0E0E770F070C2
:10238000EE0FFF1FE05FFD4F2591349140E050E0DC
:1023900060E07BE187EB90E00E94E42CB901CA0188
:1023A000693B2DE8720726E0820720E09207A0F43F
:1023B00037E2C131D30780F49E0140E050E00E9433
:1023C000A62C28EE33E040E050E00E94E42CC90146
:1023D000DA01BC01CD010DC028EE33E040E050E051
:1023E0000E94E42CCA01B9019E0140E050E00E9425
:1023F000A62CA72EB82EC92EDD249B01AC01210FDF
:10240000311D411D511D79018A0117C080918A0437
:1024100090918B04A0918C04B0918D048A159B053A
:10242000AC05BD0550F485B78F7885BF85B780684A
:1024300085BF889585B78F7785BF20918A043091B5
:102440008B0440918C0450918D0482B790E0A0E001
:10245000B0E0542F432F322F2227822B932BA42B13
:10246000B52B8E159F05A007B10780F2DF91CF91A4
:102470001F910F91FF90EF90DF90CF90BF90AF90A2
:102480000895109286041092870410928804109286
:10249000890408952091860430918704409188042E
:1024A00050918904B901CA01089510928E041092C6
:1024B0008F041092900410929104089520918E043C
:1024C00030918F044091900450919104B901CA0158
:1024D0000895893031F48FB582608FBD8FB58E7FBE
:1024E0000AC08A3019F48FB5826002C08FB58D7F23
:1024F0008FBD8FB581608FBD1BBC1ABC19BC18BCC9
:1025000008952FB52E7F2FBD2FB522602FBD2EB57C
:1025100028602EBD2EB520612EBD97BD86BD1BBC8B
:102520001ABC19BC18BC08958FB58D7F8FBD8FB5AF
:102530008E7F8FBD8FB58F778FBD8FB58F7B8FBD12
:102540008FB58F7D8FBD8FB58F7E8FBD08958FB571
:1025500080688FBD8FB58F7B8FBD08958FB58062EA
:102560008FBD8FB58F7E8FBD08958FB58F778FBD4F
:102570008FB58F7B8FBD08958FB58F7D8FBD8FB544
:102580008F7E8FBD08959BBD8ABD089599BD88BD7E
:1025900008951F920F920FB60F9211242F933F931D
:1025A0004F935F936F937F938F939F93AF93BF935B
:1025B000EF93FF938091860490918704A091880403
:1025C000B09189040196A11DB11D8093860490935A
:1025D0008704A0938804B093890480918A04909121
:1025E0008B04A0918C04B0918D040196A11DB11DA6
:1025F00080938A0490938B04A0938C04B0938D04F1
:102600008091940290919502892B29F0E091940297
:10261000F09195020995FF91EF91BF91AF919F9134
:102620008F917F916F915F914F913F912F910F907B
:102630000FBE0F901F9018951F920F920FB60F921A
:1026400011242F933F934F935F936F937F938F93B7
:102650009F93AF93BF93EF93FF93809196029091D6
:102660009702892B29F0E0919602F0919702099543
:10267000FF91EF91BF91AF919F918F917F916F915A
:102680005F914F913F912F910F900FBE0F901F9030
:1026900018951F920F920FB60F9211242F933F930C
:1026A0004F935F936F937F938F939F93AF93BF935A
:1026B000EF93FF9380918E0490918F04A0919004EA
:1026C000B09191040196A11DB11D80938E04909349
:1026D0008F04A0939004B093910480919E029091F6
:1026E0009F02892B29F0E0919E02F0919F020995AB
:1026F000FF91EF91BF91AF919F918F917F916F91DA
:102700005F914F913F912F910F900FBE0F901F90AF
:1027100018951F920F920FB60F9211242F933F938B
:102720004F935F936F937F938F939F93AF93BF93D9
:10273000EF93FF938091A2029091A302892B29F03D
:10274000E091A202F091A3020995FF91EF91BF9150
:10275000AF919F918F917F916F915F914F913F9139
:102760002F910F900FBE0F901F9018951F920F92F0
:102770000FB60F9211242F933F934F935F936F9354
:102780007F938F939F93AF93BF93EF93FF9380912A
:10279000980290919902892B29F0E0919802F0918A
:1027A00099020995FF91EF91BF91AF919F918F9100
:1027B0007F916F915F914F913F912F910F900FBE3D
:1027C0000F901F9018951F920F920FB60F92112421
:1027D0002F933F934F935F936F937F938F939F9329
:1027E000AF93BF93EF93FF9380919A0290919B02D6
:1027F000892B29F0E0919A02F0919B020995FF91B3
:10280000EF91BF91AF919F918F917F916F915F9168
:102810004F913F912F910F900FBE0F901F901895E1
:102820001F920F920FB60F9211242F933F934F9345
:102830005F936F937F938F939F93AF93BF93EF9328
:10284000FF9380919C0290919D02892B29F0E09149
:102850009C02F0919D020995FF91EF91BF91AF917C
:102860009F918F917F916F915F914F913F912F91A8
:102870000F900FBE0F901F9018951F920F920FB6DA
:102880000F9211242F933F934F935F936F937F93F6
:102890008F939F93AF93BF93EF93FF938091A00289
:1028A0009091A102892B29F0E091A002F091A10260
:1028B0000995FF91EF91BF91AF919F918F917F917A
:1028C0006F915F914F913F912F910F900FBE0F909D
:1028D0001F90189586E084BD809192049091930496
:1028E00001969093930480939204089598EA899FA7
:1028F000F0011124E050F849E49180E0E150EE3F0E
:1029000008F481E008958091A40208951092A40231
:1029100080E00E94651108950F931F931092930415
:10292000109292041092A6021092A50208EA209139
:10293000A7023091A802283A31051CF00E948614A3
:1029400030C0E0916E00E09FA0011124C901019602
:10295000240F351F20503849F90124910196909396
:10296000A8028093A7020197480F591F4050584969
:10297000FA011491822F81508E3F78F4822F0E94A9
:102980002F22912F9F7799F28BE4989FC0011124F9
:102990009093A6028093A50204C00E9486140E9410
:1029A00073221F910F9108958091A402882369F0EA
:1029B00020919204309193048091A5029091A602F7
:1029C0002817390714F00E948C140895982F8091CD
:1029D000A402882391F481E08093A40290936E0076
:1029E0001092A6021092A5021092A8021092A702BD
:1029F0000E948C1485B5836085BD08950E943511B1
:102A000085E06AE674E10E94911180E00E94651100
:102A100008959093AC028093AB0208950F931F9397
:102A2000182F062F662329F00E94661761E00E9486
:102A30006018E091AB02F091AC020190F081E02DC2
:102A4000812F602F09951F910F910895DF92EF92CA
:102A5000FF920F931F93182F062FE42ED22E642F70
:102A6000422F202F0E940824F82E002329F0112342
:102A700019F081E00E940C180E949C19882339F0FB
:102A8000812F6E2D4D2D202F0E942B1E16C0FF2052
:102A9000A1F0002329F0812F0E94C51A882369F430
:102AA000812F602F0E94D825E091AB02F091AC02FB
:102AB0000190F081E02D602F09951F910F91FF90FB
:102AC000EF90DF900895EF92FF920F931F93F82EEF
:102AD000142FE22E6417C9F00E946617612F0E941E
:102AE00060188F2D612F0E94BA238F2D0E94D6234C
:102AF000882359F0112319F08F2D61E002C08F2D2A
:102B000060E04E2D202F0E9426151F910F91FF90FF
:102B1000EF9008952F923F924F925F926F927F9223
:102B20008F929F92AF92BF92CF92DF92EF92FF92DD
:102B30000F931F93DF93CF9300D00F92CDB7DEB7E3
:102B40000E949F09882309F4CEC00E94AE09882EF6
:102B50000E9426093C010E942B098983492E0E946C
:102B60005E26882329F08091AA02882309F05AC0A2
:102B70008091A902881509F455C0EE24FF2491E044
:102B8000292E312C3FC05A808091A902652D4B2DF2
:102B90000E94BC18082F882D6A814B2D0E94BC18FA
:102BA000A82E0817F1F0802F0E9431198823C9F44C
:102BB000EA81FB81E60DF71D1081F60180818921F4
:102BC00039F0802F61E040E02B2D0A810E946315CF
:102BD000192139F08A2D60E041E02B2D052D0E944E
:102BE00063158A819B8101969B838A830894C11C0B
:102BF000D11C419741F60894E11CF11C98E0E916BC
:102C0000F10481F0BE2CC1010E2C02C0880F991F67
:102C10000A94E2F7982E2981342DC9016C011B8298
:102C20001A82B1CF8092A9020E94CB088093AA0297
:102C30000E942609182F092F0E942B096C01212FB1
:102C4000302FC9017C01BB2481E0682E712CF60174
:102C50008081882321F4F70180818823A9F144240D
:102C60005524942CC301042C02C0880F991F0A9488
:102C7000E2F7F60110811823F70100810823882D5F
:102C80006B2D442D0E94BC18A82E0E9482238823FD
:102C900049F0101791F00023B9F08B2D642D0E949C
:102CA000852312C060E0111161E040E0011141E0B4
:102CB0008A2D292D0B2D0E9463150894411C511C4F
:102CC000F8E04F16510469F6B3940894C11CD11C66
:102CD0000894E11CF11C81E1B81609F0B8CF0E94FC
:102CE0005D090E942E090F900F900F90CF91DF91F8
:102CF0001F910F91FF90EF90DF90CF90BF90AF901A
:102D00009F908F907F906F905F904F903F902F900B
:102D100008950F931F930E940823882349F10E946E
:102D20007622882329F50E944B23092F813051F404
:102D3000E091AB02F091AC020190F081E02D892F7F
:102D400061E015C0892F8756883040F40E945118E1
:102D5000182F802F0E944019182351F4E091AB02E4
:102D6000F091AC020190F081E02D802F60E0099598
:102D70000E948A151F910F910895982F8091AF029C
:102D800080FF0FC0993611F49AE60BC09A3611F401
:102D900099E607C09D3611F49EE603C09E3609F4FD
:102DA0009DE6892F08951F9381E00E94471888238C
:102DB00009F067C00E945118182F80E00E94471840
:102DC000982F112311F41092AE02992311F410924E
:102DD000AD028091AE021817E1F08091AD02891723
:102DE000C1F01C3031F0103C21F0183411F01438CF
:102DF00051F4983241F41092B4021092B30282E07E
:102E00008093B00202C01092B0021093AE02909371
:102E1000AD024091B0024423B1F18091B302909190
:102E2000B40201969093B4028093B3022091B10250
:102E30003091B2022817390734F54230E1F482E3C9
:102E400090E00E9415078091AF0280FF04C08E7F42
:102E50008093AF0210C081608093AF0284EF91E055
:102E60002CE231E0F9013197F1F70197D9F784E6C7
:102E700090E00E94150788E090E06091AF020E9408
:102E8000762E1092B0021F91089588E090E00E9483
:102E90006E2E8093AF028F3F11F41092AF0288E83C
:102EA00093E10E94622A9093B2028093B102089546
:102EB000E82F865D883140F4F0E0EA5AFE4FE49155
:102EC0008E2F0E94B918E82F8E2F0895982F809189
:102ED000B502882321F0892F0E945817982F892F37
:102EE0000895282F865D8831A8F4822F90E0865DB2
:102EF0009040FC01E45AFD4FE491EE2321F0822F33
:102F00000E94581706C08C5B9D4FFC0184910E9463
:102F1000B918282F822F08951F93982F865D662356
:102F200081F18831A8F48091B6028F5F8093B60258
:102F30008091B702882309F58091B8028823E9F4CB
:102F40009093B90281E08093B7021092B50262C0FB
:102F50008091B902882339F081E08093B502809195
:102F6000B8028F5F55C08091B702882309F052C024
:102F70008091B8028F5F8093B80281E08093B502A0
:102F800049C0883108F03FC08091B602882319F00B
:102F900081508093B6021091B902112369F180919A
:102FA000B502882349F5812F865D883148F4E12FE9
:102FB000F0E0E259FE4FE4918E2F0E94B918182FCD
:102FC000812F0E942F22812F0E942F221092B9025E
:102FD0001092BB021092BA020E94BA19882361F0C3
:102FE000812F60E040E021E00E942B1E812F60E0F5
:102FF00040E020E00E942B1E8091B602882351F40D
:103000001092B70207C08091B802882319F081504E
:103010008093B8021F9108951F93182F9091B902C1
:103020009923E9F08091B5028823C9F0892F0E9485
:103030005817612F0E940E150E94BA19882349F073
:103040008091B9020E94581760E040E021E00E94A0
:103050002B1E1092B9021092BB021092BA021F915D
:1030600008958091B902882389F08091BA029091E5
:10307000BB0201969093BB028093BA02855F914098
:1030800028F081E08093B5020E940C1808958630E4
:1030900010F080E00895E82FF0E0E454FD4F8081C7
:1030A00008958091C20208951092C3021092C20244
:1030B00086E0ECEBF2E0DF011D928A95E9F70895D6
:1030C0000F931F93082F8756662301F1883038F439
:1030D0001091C202802F0E944019182B20C08091AD
:1030E000C302863080F50D3B70F58CEB92E0602FCB
:1030F0000E94D7218F5F9F4F31F58091C302E82F47
:10310000F0E0E454FD4F00838F5F1BC0883050F423
:103110001091C202802F0E944019809518231093AD
:10312000C20211C08CEB92E0602F0E94D721BC013B
:1031300097FD09C08CEB92E00E94F1218091C302BF
:1031400081508093C3021F910F91089598E8899F41
:10315000F0011124E050FB4970E083E0660F771F17
:103160008A95E1F7E60FF71FE40FF11DE4918E2F2A
:1031700008950E94BD160895EF92FF920F931F933A
:10318000082FF62EE42E0E949C198823B9F10E9484
:10319000BA19882309F44BC0033010F010E011C0B5
:1031A00081E1089FC00111248F0D911D53E0880F0C
:1031B000991F5A95E1F78E0D911D0D960E946E2E66
:1031C000182F812F81508E3F90F0E8E80E9FF0017C
:1031D0001124E050FB498F2D90E043E0880F991FA8
:1031E0004A95E1F7E80FF91FEE0DF11D1491812FBB
:1031F0000E94AC19882369F110E02BC0033010F055
:1032000010E011C081E1089FC00111248F0D911DB4
:1032100033E0880F991F3A95E1F78E0D911D0D96B9
:103220000E946E2E182F812F81508E3F90F0E8E87B
:103230000E9FF0011124E050FB498F2D90E023E018
:10324000880F991F2A95E1F7E80FF91FEE0DF11D80
:103250001491812F0E94BD161F910F91FF90EF9046
:103260000895982FE4E7F2E08491981711F481E033
:103270000895319682E0E837F807B1F780E00895C5
:10328000E82FF0E0EF5EFD4FE4918E2F08958091DE
:10329000C40208958091C402882329F481E08093B8
:1032A000C4020E94CB0508958091C4028823C9F40A
:1032B0008091C5029091C60201969093C6028093B8
:1032C000C5028053954768F01092C6021092C5025D
:1032D0008091C7028F5F8093C7028A3011F40E94E9
:1032E0004A1908958091C402882321F01092C402E3
:1032F0000E9498061092C6021092C5021092C70250
:1033000008952091EB02E22FF0E0EE0FFF1FED5148
:10331000FD4F918380832F5F2093EB02089580936C
:10332000D60208958091D202817008958091D202D0
:1033300083608093D20208958091D20282700895B2
:103340008091D402089581E08093D4020895109270
:10335000D2021092D702089590E08D5B883108F474
:1033600091E0892F089590E0895C8C3008F491E019
:10337000892F089590E08091D6028B3009F491E076
:10338000892F08958091CE02089580E3E5E3F5E06A
:10339000DF01982F1D929A95E9F710926505E5E9EE
:1033A000F4E0DF011D928A95E9F71092CD020895AD
:1033B00088E20E942F2288E20E942F2208951F9304
:1033C000182F0E94C519109394048BE08093D602A5
:1033D0008091D20283608093D20281E08093CE02FA
:1033E00084EF91E00E94150788EE93E02CE231E033
:1033F000F9013197F1F70197D9F784EF91E00E9435
:1034000015071F9108958091D20281608093D202A6
:1034100082E390E00E94150784EF91E02CE231E016
:10342000F9013197F1F70197D9F782E390E00E9413
:10343000150784EF91E02CE231E0F9013197F1F7C3
:103440000197D9F784E690E00E94150708951F932D
:10345000CF93DF93809194048C30C8F4C0E0D0E027
:1034600010E380919404819FC00111248B559E4FDD
:10347000FE01EB5CFA4F8C0F9D1F60810E94762E3F
:103480002196C033D10569F78FEF80939404DF91C3
:10349000CF911F9108950E94271A8FEF8093940473
:1034A0001092D6021092CE021092D2021092D7023F
:1034B00088EE93E00E94150708950F931F93CF9312
:1034C000DF93982F8C30C0F480E3989FC0011124C3
:1034D000EC01CB55DE4F8C010B521E4FCE010E94EA
:1034E0006E2E982F81508E3F18F4892F0E942F2224
:1034F0002196C017D10791F7DF91CF911F910F91BE
:103500000895CF92DF92EF92FF920F931F93CF9384
:10351000DF939091DD0288E8989F700111248DE07F
:1035200090E0E80EF91ECC24DD2417C0CE018E0DEC
:103530009F1D0E946E2EF80181938F012196C83045
:10354000D105A1F70894C11CD11C88E090E0E80ED9
:10355000F91E91E1C916D10459F0860143E0000F2C
:10356000111F4A95E1F703551B4FC0E0D0E0DECFB5
:103570001092DC021092DB02DF91CF911F910F912C
:10358000FF90EF90DF90CF9008950F931F93182F27
:103590008091D20280FD30C0012F0D5B083160F5B3
:1035A0000E9408238823F9F4193C90F0195C80E309
:1035B000189FC00111248B559E4F0E946E2E815082
:1035C0008E3FE0F40E941923812F0E945D1A16C0DD
:1035D000802F0E947614882389F00E941923802F5F
:1035E0000E94E6140BC00E947022882329F00E94DA
:1035F00046230E94732202C080E001C081E01F9137
:103600000F9108950F931F93FC0180810E948522E2
:103610008C01882319F088E60E942F22812F0E94B6
:103620002F22812F0E942F22002319F088E60E946A
:103630002F221F910F910895CF92DF92EF92FF9268
:103640000F931F93DF93CF930F92CDB7DEB78C010B
:10365000009711F52FC000D000D000D0EDB7FEB715
:103660003196ADB7BEB71296FC92EE921197D38207
:10367000C282992787FD9095958384830E94EC2DC3
:103680008DB79EB706960FB6F8949EBF0FBE8DBF3E
:10369000C7010E94021B08C07E010894E11CF11CB6
:1036A0005FE6C52E50E0D52EF8010F5F1F4F8491C5
:1036B000882389F60F90CF91DF911F910F91FF9092
:1036C000EF90DF90CF9008950E941C1B0E94D819A4
:1036D000089583E896E00E94641B81E08093CC0209
:1036E0008CE08093D7021092D602089585E695E08B
:1036F0000E94641B25EB34E080E090E00BC0119247
:10370000E217F307E1F701969F01285F3F4F8131F0
:10371000910549F0FC0163E0EE0FFF1F6A95E1F7A8
:10372000E355FB4FECCF81E090E09093DC02809377
:10373000DB0208958091DB029091DC02892B29F451
:103740001092D2021092D702089586EB95E00E9463
:10375000641B81E08093CC028BE08093D702809140
:10376000D6028093D8021092D602089580EC95E09C
:103770000E94641B0895AF92BF92CF92DF92FF9296
:103780000F931F93DF93CF930F92CDB7DEB78C01CA
:10379000FF246E010894C11CD11C7FE6A72E70E0A7
:1037A000B72E25C000D000D000D0EDB7FEB73196BF
:1037B000ADB7BEB71296DC92CE921197B382A282B9
:1037C000800F911FDC018C91992787FD909595833F
:1037D00084830E94EC2D8DB79EB706960FB6F894A1
:1037E0009EBF0FBE8DBFC6010E94021BF3948F2D9A
:1037F00090E0F80101900020E9F73197E01BF10B10
:103800008E179F0778F20F90CF91DF911F910F9144
:10381000FF90DF90CF90BF90AF9008950F931F93CC
:103820008B010E94BB1BC8010E941C1B1F910F91A2
:1038300008950F931F9384EE93E00E941C1B08ECE5
:1038400013E0C8010E941C1B809194048F5F0E94AA
:10385000FA22B8010E940E1C83E896E00E94641BC5
:1038600081E08093CC028DE08093D7021092D60243
:103870001F910F9108950F931F930E94D81984EE02
:1038800093E00E94641B8CEF93E00E94641B81E133
:1038900094E00E941C1B0E94D81983E00E94FA2227
:1038A0000AEC13E0B8010E940E1C8AED93E00E941E
:1038B000641B86E00E94FA22B8010E940E1C8FED64
:1038C00093E00E94641B8FE194E00E94641B87E0F8
:1038D0008093D6021F910F9108951F930E94D819CB
:1038E00083EB93E00E94641B81E00E94FA226AEC61
:1038F00073E00E940E1C84EE93E00E94641B82E041
:103900000E94FA226AEC73E00E940E1C8BE294E0A3
:103910000E94641B10E01AC08091ED028F5F810F3E
:103920000E94FA226AEC73E00E940E1CE12FF0E084
:10393000EE0FFF1FED51FD4F0190F081E02D019042
:10394000F081E02D09950E94D8191F5F8091EB024C
:10395000181710F381E08093CC028EE08093D70299
:103960001092D6021F91089583E0EFEDF2E0DF019F
:103970001D928A95E9F71092E2021092DD021092F0
:10398000D5020E946D1C089581E08093CC02809145
:10399000D602893090F4873008F03FC0833089F137
:1039A000843030F48130E1F0823009F05DC026C00F
:1039B000853069F1863070F527C08D30B1F18E30D9
:1039C00030F4893079F18B3009F04EC031C08E3639
:1039D00009F448C0883789F1843609F045C037C0FA
:1039E0008BEA94E00E941C1B8091DD028F5F0E9495
:1039F000FA220E94BB1B0E94D81936C08DED94E0BC
:103A000019C08CEF94E00BC089E295E026C081E4F8
:103A100095E023C01092CC0227C086EC95E00E946E
:103A20001C1B22C082ED95E0FACF8BE096E0F7CF29
:103A30008FE296E00E94641B17C08AEE93E00E941A
:103A4000641B1092D60281E00E94A2230DC0109246
:103A5000D2021092D7028FEB93E00E94641B109267
:103A6000D60202C00E946D1C8091D602882349F0C4
:103A700088EE93E02CE231E0F9013197F1F70197FC
:103A8000D9F708958091CE02882319F00E944B1A2D
:103A900008950E94271A87E08093D6020E94D819C1
:103AA0000E94C41C08951F93CF93DF93C0E0D0E021
:103AB00010E380919404819FC00111248B559E4F87
:103AC0008C0F9D1F60E00E94762E2196C033D10599
:103AD00081F787E08093D6020E94C41CDF91CF91CA
:103AE0001F910895CF93DF93C5EAD1E0CE0160E046
:103AF0000E94762E219683E0C53ED807B9F787E06D
:103B00008093D6020E94C41CDF91CF910895BF928A
:103B1000CF92DF92EF92FF920F931F93CF93DF9399
:103B2000EE24FF24CC24DD2418E8B12E1EC08091A1
:103B3000DD028B9DC00111240D968C0D9D1D8C0FF7
:103B40009D1FF80161918F010E94762E2196C83049
:103B5000D10569F70894E11CF11C88E090E0C80EDB
:103B6000D91E91E1E916F10459F08701B3E0000F85
:103B7000111FBA95E1F703551B4FC0E0D0E0D7CF36
:103B80001092DC021092DB028091D802843039F46A
:103B90008093D6021092D2021092D70211C08130C7
:103BA00079F40E94D81987E995E00E94641B87E0A8
:103BB0008093D6028091DE028093DD020E94811AFA
:103BC0000E94C41CDF91CF911F910F91FF90EF9045
:103BD000DF90CF90BF9008950E94D81982E694E0BC
:103BE0000E94641B82E794E00E94641B86E00E94AE
:103BF000FA226AEC73E00E940E1C8FED93E00E94A3
:103C0000641B88E894E00E94641B87E08093D602DE
:103C10000E94C41C08950F931F9387E00E94FA220C
:103C20000AEC13E0B8010E940E1C8AED93E00E949A
:103C3000641B89E00E94FA22B8010E940E1C8AEEE1
:103C400093E00E94641B88E08093D6020E94C41C0B
:103C50001F910F910895EF92FF920F931F93CF93AF
:103C6000DF93982FF62EE42E122F8091CC0288231A
:103C700009F0AFC2892F0E946617082F8091D602E3
:103C80008B3009F096C20D3B08F0A3C28091CB02A5
:103C9000882371F01092CA021092CB02802F0E94EA
:103CA0002F22E0916505F0E0EC5CFA4F108230C005
:103CB000112371F08091CD02883108F08AC28F5FA4
:103CC0008093CD0285E994E0602F0E9423220FC0EB
:103CD00085E994E0602F0E94D721BC018FEF6F3FF0
:103CE000780709F476C285E994E00E94F121809179
:103CF0006505E82FF0E0EB5CFA4F00838F5F80935F
:103D00006505802F0E942F2280916505803318F071
:103D10000E94421D5EC2112351F0093241F481E03C
:103D20008093CA021092C9021092C80252C2109225
:103D3000CA021092CB024DC2CA30D10508F049C266
:103D4000E091E202F0E0E152FD4FC0838C2F0E942F
:103D5000FA220E94BB1B0E94D8199091DF02809129
:103D6000D602883009F04EC0913029F49093D502E4
:103D70000E943B1CC6C19230D9F49093D5020E9498
:103D8000811A0E94D8198BE294E00E94641B86E39A
:103D900094E00E94641B85E494E00E941C1B81E077
:103DA0008093CC028AE08093D7021092D602A9C1F8
:103DB000973009F45FC0993029F489E08093D502E7
:103DC00088E73EC0E92FF0E031978091ED02E81BD3
:103DD000F1098091EB0290E0E817F9070CF091C12E
:103DE00083E68093D502E093EC02F0E0EE0FFF1F34
:103DF000ED51FD4F0190F081E02D0280F381E02D27
:103E000009952AC0873009F07CC1963019F48EE6F6
:103E10008093D6028091D502823001F5913011F065
:103E2000923019F49093D6026CC1933031F484E04F
:103E30008093D6020E949A1B64C1943041F485E0BD
:103E40008093D6021092D2021092D7025AC19930B2
:103E500009F057C10E94761B87E051C18130A9F457
:103E6000913011F489E04BC1923011F48DE047C1DB
:103E7000933011F484E643C1993009F042C18CE0DB
:103E80008093D6020E94691B3CC1833609F039C178
:103E9000E091EC02F0E0EE0FFF1FED51FD4F0190BD
:103EA000F081E02D0480F581E02D892F602F4F2DCA
:103EB0002E2D00E0099525C1923099F0CA30D10528
:103EC00008F087C18091E202E82FF0E0E152FD4F57
:103ED000C0838F5F8093E2028C2F0E94FA220E949F
:103EE000BB1B2A9728F08091D602823009F071C15D
:103EF0008091D602833009F407C1843038F48130D0
:103F000009F475C0823009F051C1A0C0893021F098
:103F10008D3009F04BC12DC08091E2028230F9F45E
:103F20009091DF028AE0989F900111248091E00235
:103F3000280F311DC90101970C9750F4822F815031
:103F4000809394048BE08093D6020E94C51918C117
:103F5000232B09F00FC187E08093D60211C188EEB0
:103F600093E02CE231E0F9013197F1F70197D9F7AD
:103F700030C18091E202823081F59091DF028AE0C7
:103F8000989F900111248091E002280F311DC901F2
:103F900001970C9760F4822F81508093940487E0FE
:103FA0008093D6020E94D8190E94191C0EC0232BA0
:103FB00031F487E08093D6020E94D81906C00E948F
:103FC000D81986E696E00E94641B83E0EFEDF2E0EC
:103FD000DF011D928A95E9F794C088EE93E02CE208
:103FE00031E0F9013197F1F70197D9F7F2C09091DB
:103FF000DF028091DD02833030F5092F01508017F8
:1040000011F1033000F58091DB029091DC0218166B
:1040100019065CF40E94D81984E895E00E94641B9C
:104020000E949A1B0093DE026CC00E94D81987E997
:1040300095E00E94641B87E08093D6020093DD0226
:104040000E94811A5EC00E94D81906CFF092D90250
:10405000E092DA028AEA95E00E941C1B8091D90264
:104060008F5F0E94FA220E94BB1B82E790E00E94B1
:10407000BB1B8091DA028F5F0E94FA220E94BB1B59
:1040800085E790E00E94BB1B8091DD028F5F0E945C
:10409000FA220E94BB1B8EE790E00E94BB1B80911E
:1040A000DD026091DA024091D9020E94A6180E94B6
:1040B000FA220E94BB1B88E890E00E94BB1B809103
:1040C000D902E091DA02F0E093E0EE0FFF1F9A953B
:1040D000E1F7E80FF11DE355FB4F808190E08F3F42
:1040E000910511F480E090E00E94FA220E94BB1B2F
:1040F00082E990E00E94BB1B0E94D81983E0809364
:10410000D6021092E20252C08091E202833009F09E
:1041100043C09091DF0284E6989FA0011124809112
:10412000E0022AE0829FC0011124480F591F8091AC
:10413000E102480F511D4F3F5105E4F48091D9022F
:10414000E091DA02F0E003E0EE0FFF1F0A95E1F7DD
:10415000E80FF11DE355FB4F408387E08093D602C3
:104160008091DB029091DC0201969093DC028093B7
:10417000DB0206C00E94D81986E696E00E941C1B4E
:1041800083E0EFEDF2E0DF011D928A95E9F71092EE
:10419000E2020E94D8190AC088EE93E02CE231E0D6
:1041A000F9013197F1F70197D9F713C00E94C41CA8
:1041B00010C0112371F484E990E0602F0E94D72190
:1041C000EC019091D602892F8750823008F074CE8E
:1041D000B3CDDF91CF911F910F91FF90EF90089594
:1041E0000E945118982F8091D20280FD18C08091B2
:1041F000D3029817A1F0973261F48091CF028823FF
:1042000041F41092D1021092D00281E08093CF024B
:1042100004C01092D2021092CF029093D3028091E8
:10422000D20280FF0FC081FD0DC00E94C808882304
:1042300049F08091D20283608093D2020E94B61B23
:104240000E94B41C8091D2028823C9F48091CF02CD
:104250008130A9F48091D0029091D102019690937F
:10426000D1028093D00220919F003091A0002817A6
:1042700039072CF40E94031A82E08093CF028091C8
:10428000D20281FF44C08091CC02882339F10E9480
:104290000823882319F50E94722A8823F9F4809153
:1042A000D7028E3019F40E940B1E16C08B3019F401
:1042B0000E94871D11C08A3019F40E94EC1D0CC0A9
:1042C0008D3019F40E94531D07C08C3019F40E94E0
:1042D000721D02C01092CC021092D7028091CA02C5
:1042E0008823A9F08091C8029091C9020196909309
:1042F000C9028093C802895E93404CF081E08093AC
:10430000CB0289E26FEF4FEF20E00E942B1E089551
:104310000E948223882319F01092D402089580917C
:10432000D402813021F40E94031A1092D40208951D
:1043300084EC99E00E94622A9093A00080939F00F1
:1043400082E08093ED021092EB02089528EB3BE0AF
:1043500003C0F9013197F1F70197D9F708951F9339
:10436000162F0E946E2E90E002C0959587951A95A3
:10437000E2F7809581701F9108950F931F93162F78
:10438000042F0E946E2E21E030E002C0220F331F66
:104390001A95E2F7622F60956823002309F4622BD7
:1043A00087E090E00E94762E1F910F910895CF93A1
:1043B000DF93EC01DC010D900020E9F71197A81BB9
:1043C000B90B70E0AD010E94772D009719F4EFEF63
:1043D000FFEF03C0FC01EC1BFD0BCF01DF91CF9180
:1043E00008959B01FC0101900020E9F73197E81B3B
:1043F000F90B6F5F7F4F680F791FE21BF30B820F82
:10440000931FAF010E948D2D0895FF920F931F936C
:10441000F42E9B01DC010D900020E9F78C01060FC2
:10442000171FA81BB90BA61BB70B2F5F3F4F820F9F
:10443000931FB801AD010E948D2DF801F0821F91EC
:104440000F91FF900895462FDC010D900020E9F7B1
:104450001197A81BB90BBD010E9405220895282FB2
:10446000809123039091240301966CE271E00E94F5
:10447000D12CFC019093240380932303809121038A
:10448000909122038E179F0759F4009719F48BE23D
:1044900091E001C001979093240380932303089532
:1044A000EA5DFC4F2083089520912103309122037F
:1044B00080912303909124032817390711F480E099
:1044C0000895C90101966CE271E00E94D12CFC01B3
:1044D0009093220380932103EA5DFC4F808108952D
:1044E00080912503089510922503089540E02091BE
:1044F00021033091220380912303909124032817F4
:10450000390709F441E0842F0895982F81568A31A4
:1045100018F4292F2D5510C0892F81548A3120F489
:10452000292F2D5332E009C0892F8153893010F093
:1045300020E002C0292F235130E0892F992787FDE1
:104540009095A92FB92FFC01B097EF35F10508F030
:1045500048C0E65DFF4FEE0FFF1F0590F491E02D80
:1045600009942EE141C02FE13FC020E23DC021E28D
:104570003BC022E239C023E237C024E235C025E245
:1045800033C026E231C027E22FC02CE22EC02DE23C
:104590002CC02DE229C02EE228C02EE225C02FE239
:1045A00024C02FE221C020E320C020E31DC021E36E
:1045B0001CC021E319C023E318C023E315C024E382
:1045C00014C024E311C025E310C025E30DC026E389
:1045D0000CC026E309C027E308C027E305C028E391
:1045E00004C0222311F428E332E0832F922F089590
:1045F00027E2FBCF0F931F930EEE12E090E0B8017D
:104600004AE050E00E949F2DC8011F910F9108952C
:104610002091210330912203809123039091240360
:104620002817390719F081E090E008950E9483145B
:1046300008952091210330912203809123039091CA
:1046400024032817390739F480E3E1EFF2E0DF01B2
:104650001D928A95E9F7089510922403109223037E
:1046600010922203109221038CE291E0E6E2F3E043
:10467000DF019C011D9221503040E1F780E3E1EF22
:10468000F2E0DF011D928A95E9F708950E942C233C
:104690000E94861408950F931F93CF93DF930E9477
:1046A0005422082F182F1D5B1C3058F40E944623FB
:1046B000812F0E94E61481E08093250382E000E0D0
:1046C0001BC0C1EFD2E0882331F480E3FE011192D8
:1046D0008A95E9F70AC0CE01602F0E94D721BC015C
:1046E00097FD05C0CE010E94F12182E005C0CE01F8
:1046F000602F0E94232281E0902FDF91CF911F91A4
:104700000F9108958091520408950F931F93082FDD
:10471000162F81EA90E00E94BB1B812F0E94FA2293
:104720000E94BB1B83EA90E00E94BB1B802F0E946B
:10473000FA220E94BB1B85EA90E00E94BB1B1F91DE
:104740000F910895809352040E944E0608950E948E
:10475000F0200E94D3160E94D4140E94C4240E9408
:1047600031180E9471070895809154040895809132
:104770005A0408956623C9F0843F51F48091580487
:10478000823011F483E001C081E0809358040895E1
:10479000833F59F480915904823021F483E080935F
:1047A0005904089581E0809359040895982F8091C9
:1047B0005804823059F080915904823029F49A3695
:1047C00029F080E09E3619F081E0089580E0089598
:1047D000FC0180818130A1F482E0808382E390E05B
:1047E0000E94150784EF91E02CE231E0F901319746
:1047F000F1F70197D9F784E690E00E941507089534
:10480000833029F4108284E690E00E941507089511
:104810000F931F93182F022F0E94DD05812F0E94F6
:104820003119882309F0ACC0812F602F0E948C17AA
:10483000812F0E947117182F0E943119882309F0C7
:104840009FC0002309F48FC01C3F59F0173F49F067
:1048500080915304882309F44DC01A3209F04AC0EC
:1048600014C080915404882331F41C3F41F083E04C
:10487000809354040CC01C3F21F4823031F082E05C
:10488000F7CF173F11F4833091F7109254048091C1
:104890005A048823C1F480915404882319F484E6CF
:1048A00090E00FC084E690E00E94150780E293E05C
:1048B0002CE231E0F9013197F1F70197D9F786E45D
:1048C00090E00E94150780915A04813039F460E02D
:1048D00080915404811161E081E009C0823009F0C7
:1048E0004FC060E080915404811161E084E00E9437
:1048F000200546C080915504882361F0812F0E94D5
:10490000B319882339F0195C1093AD0081E08093CE
:10491000560436C0193221F481E08093530431C02B
:10492000153F71F48091570491E0892780935704D3
:10493000882319F40E9493051FC00E94D4051CC04F
:10494000123F59F40E94C219882319F00E944B1A91
:1049500017C081E08093550413C0812F60915304E8
:104960000E9434060EC01C3F59F0193219F41092FF
:10497000530402C0123F11F081E003C010925504AD
:1049800080E01F910F9108950E94C508882341F08F
:1049900088E594E00E94E82389E594E00E94E823FA
:1049A0000E94C808882379F080915604882359F022
:1049B000109256048091AD008F3F29F00E94DF19BC
:1049C0008FEF8093AD0008958CE896E00E941C1B49
:1049D00088EC93E00E941C1B8AEC93E00E941C1B55
:1049E00088EC93E00E941C1B80915A04813019F4DA
:1049F00086E996E007C0823019F489E996E002C0A2
:104A00008FEC93E00E941C1B08951F93182F1150E8
:104A1000133050F587E00E948F1910935A0411301B
:104A200041F487E090E00E946E2E682F6B7E6061FB
:104A300010C0123041F487E090E00E946E2E682F83
:104A40006B7E646006C087E090E00E946E2E682F47
:104A5000646187E090E00E94762E0E944E060E94DC
:104A6000E4240E94D8190DC0843031F484E60E94F9
:104A70008F190E94A71905C0863019F48EE60E948E
:104A80008F191F9108950E94E42408950F931F9396
:104A90000E94E4240E94D81981E00E94FA220E9418
:104AA000BB1B0AEC13E0C8010E941C1B8FEC93E0B7
:104AB0000E941C1B0E94D81982E00E94FA220E94C8
:104AC000BB1BC8010E941C1B86E996E00E941C1BB0
:104AD0000E94D81983E00E94FA220E94BB1BC801E1
:104AE0000E941C1B89E996E00E941C1B0E94D81999
:104AF00084E00E94FA220E94BB1BC8010E941C1B7A
:104B00008AED93E00E941C1B0E94D81986E00E9447
:104B1000FA220E94BB1BC8010E941C1B8FED93E070
:104B20000E941C1B0E94D8191F910F91089587E0C5
:104B300090E00E946E2E482F8695869590E09C010D
:104B40002170307080FD07C0842F82958F7080FFA8
:104B50000DC081E008C0222349F0842F82958F7018
:104B600080FD04C082E080935A0402C010925A046F
:104B700087EA90E00E948119089580915C0408956D
:104B800040915C0481E0482740935C0487E090E01A
:104B900063E00E94BD21089587E090E063E00E94F9
:104BA000AF2180935C048EEA90E00E948119089501
:104BB0001F93182F8932B9F480915C04882399F0EF
:104BC000662351F00E945118823011F0803259F45E
:104BD00081E080935B0406C080915B04882319F018
:104BE00010925B0415E3812F1F9108958CE996E0E4
:104BF0000E941C1B88EC93E00E941C1B8AEC93E033
:104C00000E941C1B88EC93E00E941C1B80915C049A
:104C1000882319F08CEC93E002C08FEC93E00E94A3
:104C20001C1B0895813051F487E00E948F190E9467
:104C3000C0250E94F6250E94D8190895833031F4CA
:104C400084E60E948F190E94A7190895863019F4EE
:104C50008EE60E948F1908950E94F62508950F93FD
:104C60001F930E94F6250E94D81981E00E94FA2223
:104C70000E94BB1B0AEC13E0C8010E941C1B83EDC1
:104C800093E00E94641B83E00E94FA220E94BB1BF7
:104C9000C8010E941C1B8AED93E00E94641B86E001
:104CA0000E94FA220E94BB1BC8010E941C1B8FEDB0
:104CB00093E00E94641B1F910F91089580915D0401
:104CC000089540915D0481E0482740935D0487E0AA
:104CD00090E060E00E94BD21089587E090E060E0F0
:104CE0000E94AF2180935D0484EB90E00E948119C3
:104CF000089585EA96E00E941C1B88EC93E00E94D0
:104D00001C1B8AEC93E00E941C1B88EC93E00E9421
:104D10001C1B80915D04882319F08CEC93E002C089
:104D20008FEC93E00E941C1B0895813051F487E0C2
:104D30000E948F190E9461260E9479260E94D8192C
:104D40000895833031F484E60E948F190E94A719D8
:104D50000895863019F48EE60E948F1908950E94F6
:104D6000792608950F931F930E9479260E94D819DF
:104D700081E00E94FA220E94BB1B0AEC13E0C801EA
:104D80000E941C1B83ED93E00E94641B83E00E9441
:104D9000FA220E94BB1BC8010E941C1B8AED93E0F3
:104DA0000E94641B86E00E94FA220E94BB1BC8017D
:104DB0000E941C1B8FED93E00E94641B1F910F91BA
:104DC000089581E080937404089581E080936104E4
:104DD0001092620480935E04089580915F048111B3
:104DE00081E008950F931F93162F0E946617082FD6
:104DF00081508C3B08F057C080578A3108F453C06B
:104E000081E080935F04802F8756112359F1883009
:104E100038F410916004802F0E944019182B2BC089
:104E2000EBE6F4E001900020E9F73197EB56F4400F
:104E3000E63008F038C0802F8D58823128F4E02FFA
:104E4000F0E0E953FD4F04918BE694E0602F0E945F
:104E5000D7218F5F9F4F39F58BE694E0602F0E943A
:104E6000232221C0883050F410916004802F0E94CA
:104E70004019809518231093600415C0802F8D5819
:104E8000823128F4E02FF0E0E953FD4F04918BE6E6
:104E900094E0602F0E94D721BC0197FD04C08BE6EF
:104EA00094E00E94F1211F910F9108950F931F9399
:104EB000182F082F01576623E9F061E00E94F226BF
:104EC0000A3160F521E020936304E12FF0E0EE0F5A
:104ED000FF1FE25CFD4F8591949190936504809350
:104EE00064040330D8F4209366049093680480939C
:104EF000670414C060E00E94F2260A3178F481E071
:104F0000809363041092650410926404033030F4BB
:104F100080936604109268041092670481E01F91E8
:104F20000F9108952F923F924F925F926F927F92CE
:104F30008F929F92AF92BF92CF92DF92EF92FF92A9
:104F40000F931F93DF93CF9300D00F92CDB7DEB7AF
:104F500082B3837F82BB81B3837F81BB0E940029A0
:104F60008B9A20E048EB5BE0CA010197F1F72150F2
:104F7000D9F78B988AEB90E00E9409158CEB90E0B2
:104F80000E946D2A86E0EBE6F4E0DF011D928A952F
:104F9000E9F710926004109265041092640478940A
:104FA000DD24EE24FF2459EC252E312C2E0108940B
:104FB000411C511C49E7842E44E0942E38E0C32E56
:104FC0002BE6A22E24E0B22E92E0692E712C680C02
:104FD000791C8091C000813061F580917404882330
:104FE00041F580917204909173040196909373043B
:104FF000809372040197895B9B40DCF01092C000A3
:105000008BB78F778BBF0F900F900F90CF91DF9161
:105010001F910F91FF90EF90DF90CF90BF90AF90D6
:105020009F908F907F906F905F904F903F902F90C8
:10503000089580918005882351F010928005109288
:105040005E040E947219DD24EE24FF2424C08091A6
:105050005E04882339F0E1E0E09380050E94721934
:10506000DD2419C0DD20B9F487010F5F1F4FF1E186
:10507000EF16F7E2FF0674F00E945118882351F4EE
:105080000E944718882331F40E944A197801DD24D0
:10509000D39401C078010E9411298091710584FF89
:1050A00059C080916304882331F480916604882379
:1050B00011F40E9489160E94A72380915F0488231F
:1050C00021F180917404882309F483CFD401EC2D5D
:1050D0001D92EA95E9F7809160048093790410921B
:1050E0007A04F50101900020E9F73197EB56F4407E
:1050F000C301B501AF010E94842D89E794E068E007
:105100000E94572A10925F0425C08091610481306B
:10511000A1F4F2E0F0936104D401EC2D1D92EA9524
:10512000E9F789E794E068E00E94572A0E94270A7D
:1051300080910201882371F00BC08091620482305B
:1051400049F4F3E0F093620480910201882311F4A2
:105150000E94882180919D0584FF24C08091630472
:10516000882371F0809164049091650421E0298383
:105170009B838A83C20163E00E94522A10926304D7
:1051800080916604882371F080916704909168048F
:10519000A2E0A9839B838A83C20163E00E94522A12
:1051A0001092660480916104823009F012CF8091E0
:1051B000690490916A049C012F5F3F4F30936A0409
:1051C00020936904883C910519F40E94802B01CF3B
:1051D000293C31050CF4FDCE30926A04209269041A
:1051E000B3E0B0936104F5CE0E9443050E944E06E1
:1051F00080916204882319F482E080936204089508
:1052000085B7886085BF8BB780688BBF8BE4809340
:10521000720580939E058AE58093710580939D05B4
:1052200008951F93CF93DF9360918305635067FDCB
:10523000BDC080917F05CCE0D0E0C81BD109C95723
:10524000DA4F80917E058D3209F09DC0683009F0FB
:10525000ABC083EC809366058AE58093BE00109214
:1052600071048881807629F0CE010E948D0A282F52
:1052700077C09A8110926F058981882321F410925A
:10528000700522E066C0853019F49093840560C0F3
:10529000863009F047C08B81813059F489B78B7F04
:1052A00089BF8DED96E0909382058093810522E180
:1052B00035C0823019F18330F9F48A81882341F4B2
:1052C0008DEA96E0909382058093810524E026C0C4
:1052D000813041F481EB96E09093820580938105C3
:1052E0002CE11CC08230C9F48DEC96E090938205CD
:1052F0008093810520E112C0813229F4CE010E9401
:10530000450A282F0BC0823241F4CE010E94450A83
:10531000282F89B7846089BF01C020E080E4809392
:1053200071041EC0883021F421E086E895E013C0A6
:10533000893019F4909386050BC08A3011F421E06E
:1053400008C08B3029F48BE48093720580939E050E
:1053500020E08FE695E0909382058093810509C057
:105360002F3F39F4888187FD2E8180E88093710476
:1053700006C08F81882319F48E81821708F0822F4E
:105380008093BF0011C08091710487FF0DC0CE01D2
:105390000E947F0A8F3F21F48EE18093BE0004C0FB
:1053A000882311F01092BF00109283058091BE00F7
:1053B00084FF46C08091BF008F3F09F441C0182F81
:1053C000893008F018E0811B8093BF00809166054A
:1053D00098E8892780936605112321F120918105A2
:1053E000309182058091710486FF0AC0912FF901E6
:1053F000A7E6B5E084918D9331969150D9F708C016
:10540000912FD901E7E6F5E08D9181939150E1F775
:10541000C90101961150810F911D1F5F9093820564
:105420008093810587E695E0612F0E94B703612F85
:105430006C5F6C3019F08FEF8093BF006093BE00FB
:1054400094E180B38C7031F49150D9F710928405B7
:1054500010927D05DF91CF911F9108951F93CF93F7
:10546000DF93DC01162FEA01888184FF05C0898162
:1054700098E88927898302C08AE58883AE014E5F58
:105480005F4F212FFA018D91819321501216DCF389
:10549000CA01612F0E94B7031C5F1883DF91CF916F
:1054A0001F9108954DE955E00E942E2A089541E785
:1054B00055E00E942E2A08958D98959A08958D9A08
:1054C000959808959C018091C000882311F0833045
:1054D00011F435952795C90108959093760480932A
:1054E00075040895E0917504F09176040190F081BF
:1054F000E02D099508951F93182F0E94360A112355
:1055000099F010E0812F0E949C111F5F1730D1F796
:1055100089B78E7F89BF89B78B7F89BF89B78F7B1A
:1055200089BF8D98959A02C08D9A95981F9108957C
:105530009F92AF92BF92CF92DF92EF92FF920F9322
:105540001F93CF93DF930E94360A0E94270A84E1BB
:105550008A95F1F710E00E946B09882319F41F5F08
:105560001431C9F70E9426097C0100E0DD2431E0F6
:10557000A32EB12C2AE0922E95E0C92EF70180814E
:10558000882309F43FC0C0E0D0E095010C2E02C092
:10559000220F331F0A94E2F7F7018081822371F111
:1055A00080E06D2D4C2F0E94A618182F8C2F6D2D8A
:1055B0000E94E50A882311F41B3221F481E00E9445
:1055C000A2231CC0103119F40E94A31917C018316E
:1055D00011F4016013C0133111F402600FC01E31C9
:1055E00021F481E08093090109C01F3119F4C092B0
:1055F000090104C0103211F4909209012196C830BB
:10560000D10519F6D3940894E11CF11CF1E1DF16E1
:1056100009F0B4CF0E945D090E942E09002319F001
:105620000F5F0093C0006091C000643021F48CE0F3
:1056300090E06FEF04C0643028F48CE090E00E94AA
:10564000762E06C08CE090E00E946E2E8093C00003
:105650008A98929A2091C0002430D0F090E080E0A7
:10566000829907C092FD09C08F5F863060F021E00B
:105670000AC0829B09C092FD02C080E004C08F5F17
:10568000863008F020E090B3223050F72093C0001D
:105690000E9445170E9498210E946D260E9497251E
:1056A0000E94CC250E9454188091C0008150823005
:1056B00070F4F8940E9449051092730410927204D9
:1056C0001092740481E00E947B2A0E9492278091AC
:1056D000C000882311F0833039F7F8940E944905FF
:1056E00010927304109272041092740482E390E09A
:1056F0000E94150780E00E947B2A0E94F20DD4CF01
:105700000E943A050E9404070E94FE140895ABE02F
:10571000B0E0EDE8FBE20C94252D5C014B017A0131
:10572000FC0117821682838181FD08C06FEF7FEF35
:1057300008C142E050E0E40EF51E04C03E010894AA
:10574000611C711CF501D380F401D3FC8591D3FE5B
:1057500081914F01882309F4F1C0853259F4D3FCBB
:105760006591D3FE61914F01653219F0062F10E06B
:105770001BC085E290E02BC0002309F4DFC086EF58
:1057800096E0602F70E00E946C2D892B39F4033273
:1057900011F4106103C00C3661F41068F401D3FCFD
:1057A0000591D3FE01914F0117FFE6CF002309F4C5
:1057B000C5C08FEE96E0602F70E00E946C2D892BA3
:1057C00051F044E050E0E40EF51E8FE390E0B501A7
:1057D0000E94C02DB7CF033629F0033779F0033587
:1057E000F1F40BC087010E5F1F4FF701808191819B
:1057F000B5010E94C02D7801A5CF1160F701C080CE
:10580000D18004C090E0B5010E94C02DF60110FDCA
:10581000859110FF81916F018823A1F78ACF04360B
:1058200011F0093639F517FF08C0F70120813181E1
:105830004281538184E090E00AC0F7018081918128
:105840009C01442737FD4095542F82E090E0E80EFC
:10585000F91E1F7E57FF08C0509540953095219541
:105860003F4F4F4F5F4F1064CA01B901A3012AE0B7
:1058700030E034C00037A9F0013730F40835B1F01A
:105880000F3609F05BC006C0053739F0083709F05C
:1058900055C008C028E030E00CC01F7E2AE030E090
:1058A00008C01061146220E130E003C0146020E100
:1058B00032E017FF08C0F701608171818281938116
:1058C00044E050E008C0F70180819181BC0180E094
:1058D00090E042E050E0E40EF51EA3010E94102E7D
:1058E000D82ED618012F10E006FF05C08DE290E0FB
:1058F000B5010E94C02D04FF15C0FE01ED0DF11D84
:105900008081803379F080E390E0B5010E94C02D62
:1059100002FF08C000721070C801885A9F4FB5017D
:105920000E94C02DDA94F301ED0DF11D808190E00D
:10593000B5010E94C02DDD20A9F704CFF5016681D5
:105940007781CB012B96EEE00C94412D629FD00124
:10595000739FF001829FE00DF11D649FE00DF11D2A
:10596000929FF00D839FF00D749FF00D659FF00DD9
:105970009927729FB00DE11DF91F639FB00DE11DC6
:10598000F91FBD01CF0111240895991B79E004C0CE
:10599000991F961708F0961B881F7A95C9F780956E
:1059A000089597FB092E07260AD077FD04D080D0F2
:1059B00006D000201AF4709561957F4F0895F6F790
:1059C000909581959F4F0895A1E21A2EAA1BBB1BAB
:1059D000FD010DC0AA1FBB1FEE1FFF1FA217B307BB
:1059E000E407F50720F0A21BB30BE40BF50B661FD1
:1059F000771F881F991F1A9469F760957095809595
:105A000090959B01AC01BD01CF01089597FB092E34
:105A100005260ED057FD04D0D7DF0AD0001C38F47D
:105A200050954095309521953F4F4F4F5F4F0895CA
:105A3000F6F790958095709561957F4F8F4F9F4FAA
:105A400008952F923F924F925F926F927F928F9222
:105A50009F92AF92BF92CF92DF92EF92FF920F93FD
:105A60001F93CF93DF93CDB7DEB7CA1BDB0B0FB607
:105A7000F894DEBF0FBECDBF09942A8839884888C4
:105A80005F846E847D848C849B84AA84B984C8845A
:105A9000DF80EE80FD800C811B81AA81B981CE0F51
:105AA000D11D0FB6F894DEBF0FBECDBFED01089536
:105AB000AA1BBB1B51E107C0AA1FBB1FA617B70734
:105AC00010F0A61BB70B881F991F5A95A9F7809550
:105AD0009095BC01CD010895FC010590061621F0BA
