:100000000C94B9020C94D6020C94F1020C94D60212
:100010000C94630F0C946F0E0C94360F0C94DC0E42
:100020000C94090F0C94420E0C94AF0E0C94EF0D2F
:100030000C94D6020C94D6020C94D6020C94D602E0
:100040000C94D6020C94D6020C94D6020C94D602D0
:100050000C94D6026C1B581B881B5C1B5E1B601B20
:10006000641B861B681B6A1B661B741B8E1B6E1B26
:10007000921B961B9F1B981B981B981B981B981BE9
:10008000981B981B981B981B841B821B901B721B30
:10009000941B9A1B5A1B981B981B981B981B981B08
:1000A000981B981B981B981B981B981B981B981BB8
:1000B000981B981B981B981B981B981B981B981BA8
:1000C000981B981B981B981B981B761B7E1B7A1BF2
:1000D000621B701B8A1B981B981B981B981B981BF4
:1000E000981B981B981B981B981B981B981B981B78
:1000F000981B981B981B981B981B981B981B981B68
:10010000981B981B981B981B981B781B801B7C1BAB
:100110008C1B05010906A101050719E029E7150057
:1001200025019508750181029501750881039505E2
:1001300075010508190129059102950175039103BF
:100140000507190029FF95067508150026FF00818F
:1001500000C005010902A10185030901A1000509EB
:100160001901290515002501750195058102750301
:10017000950181030501093009311581257F750835
:100180009502810609381581257F350045007508DF
:1001900095018106050C0A38021581257F750895A1
:1001A000018106C0C005010980A101850215012554
:1001B000B7190129B7751095018100C0050C090117
:1001C000A10185011501269C0219012A9C027510C6
:1001D00095018100C009023B0002010080FA090478
:1001E000000001030101000921010100012240007A
:1001F0000705810308000A0904010001030000004B
:100200000921010100012283000705830308000A78
:10021000000001000800400000010004000001008F
:10022000080020004000800000010004FEFEF8F8F5
:100230006C6C68686D6D69696B6B6767FEF8F6F6E4
:10024000F6FEF8F68E8D8E8D8E8D8E8D8E8D8E8D2A
:100250008E8D8E8D39398E8D39656565010101016F
:100260000101010101010101010101010000010180
:1002700000010101FEF8F6FB010204081020408095
:100280000000FC001C322123242B3433433B424B1F
:100290003A31444D152D1B2C3C2A1D22351A161EB1
:1002A00026252E363D3E46455A76660D294E555436
:1002B0005B5D5D4C520E41494A580506040C030B28
:1002C000830A010978077C7E7C706C7D71697A7481
:1002D0006B7275774A7C7B795A69727A6B73746C2E
:1002E000757D7071612F001412111F1459112700B0
:1002F00000373F5E48103A38302820184D153B34FF
:10030000233221502B404B1C43221D0000F1F237B9
:100310000F08101820283038404850575F6D0000F3
:100320008100820083008A01210223022402250227
:10033000260227022A02B500B600B700CD00E2006F
:10034000E900EA008301920194010000000000002E
:10035000000000009190666768696A6B6C6D6E6F53
:10036000707172738586464800488E8D0071727375
:100370008F006A6B6E6D6546494A4B4C4D4E52502C
:100380004F5154587172737475767778797A7B7C93
:100390007D7E7F808182838485868788898A8F009D
:1003A000494C4A4D4B4E6A6E65504F52515400397C
:1003B00053470073656C656374206D6F64650067F7
:1003C0006F6F64206279650020003A006F6E006FE5
:1003D000666600746F67676C6500657869740062B3
:1003E00061636B006D6163726F00626F6F74206D8B
:1003F000617070657200737461727400313A736574
:100400006C656374206D6163726F20696E646578DA
:1004100000323A636C656172206D6163726F0039FE
:100420003A636C65617220616C6C0068656C6C6F1E
:10043000003E3E20006E6F7468696E6700696E70E2
:100440007574206D6163726F20696E646578202811
:1004500030317E31322C2063616E63656C3A20301E
:10046000302C206D7573742032206E756D6265724C
:100470007329203A200073656C65637420696E648B
:100480006578202830317E31322C2063616E6365BF
:100490006C3A20303029203A2000696E7075742043
:1004A0006B657920286D6178203234206B65797313
:1004B0002C2073746F70203A20707265737320451E
:1004C000534320647572696E672031207365632918
:1004D00000696E76616C6964206E756D6265722C60
:1004E00020696E70757420616761696E2E00636C9F
:1004F0006561722E2E2E00666E322F33206C65647D
:10050000006E6C00736C0065736320746F207E0056
:100510006C617A7920666E00040309041C0377007D
:1005200069006E006B00650079006C006500730067
:1005300073002E006B007200100370007300320015
:1005400061007600720055001201100100000008E1
:10055000A0201C420701010200014546476566676D
:1005600000202B2D2E303132333435363738396870
:10057000000011241FBECFE5D8E0DEBFCDBF10E0E4
:10058000A0E6B0E0ECEDFCE402C005900D92A639C7
:10059000B107D9F713E0A6E9B0E001C01D92A83574
:1005A000B107E1F70E94F2220C946C260C94000033
:1005B000A82FB92F80E090E041E050EA609530E04C
:1005C00009C02D9182279795879510F0842795274C
:1005D000305EC8F36F5FA8F30895EADF8D939D93B3
:1005E0000895CF93CFB7CF93C395839BE9F7839BB0
:1005F0000EC0839B0CC0839B0AC0839B08C0839B57
:1006000006C0C0912F03C395C0932F03A3C0DF93EF
:10061000C0912E03DD27CA5CDC4F839B02C0DF91B3
:10062000E6CF2F930F931F9300B32FEF03FB20F917
:100630004F933F9310B34FEF012703FB21F93BE0AA
:1006400031C04E7F012F10B3216028C0102F4D7F85
:100650002260000000B329C04B7F2460012F0000FE
:1006600010B32BC010B3477F28602AC04F7E00B361
:1006700020612CC04F7D10B320622FC04F7B00B390
:10068000206432C0422700B349934FEF0000102787
:1006900013FB20F910B31C70C9F1297F91F20127D7
:1006A00003FB21F900B3237F89F2315058F1102761
:1006B00013FB22F910B3277E79F2012703FB23F9FC
:1006C0002F7C81F200B3102713FB24F92F7971F2EC
:1006D00000C010B3012703FB25F92F7359F200C0A6
:1006E00000B3102713FB26F9223040F200C010B3EC
:1006F000012703FB27F9243028F64F77206810B331
:100700000000F9CF10E81ABF002719C03B503195FF
:10071000C31BD04010E81ABF0881033CF9F00B342A
:10072000E9F020912C031981110F1213EDCF4A81AA
:10073000441F093641F10D3211F0013E29F70093B3
:1007400034033F914F911F910F912F91DF91CAB7C1
:10075000C7FD4ACFCF91CFBFCF91189520913403D9
:10076000222379F3109132031123C1F53430C2F101
:100770003093320320932D0310912E033BE0311B65
:1007800030932E032DC00091320301303CF50AE571
:100790004F7049F43091930034FD24C000939300CE
:1007A000C5E1D3E023C0433049F03091200334FD4C
:1007B00019C000932003C1E2D3E018C030914C036C
:1007C00034FD10C000934C03CDE4D3E00FC0279557
:1007D000A8F45150A9F4220F0000F9CF4AE503C054
:1007E00042ED01C0432FC4E1D0E032E011B31C6000
:1007F000939A11BB02B320E41CE05F93012756E0FB
:1008000002BB279520F4515021F4220FF9CF012784
:1008100056E000003B5A02BBD0F2279528F4515015
:1008200029F4220F0000F9CF012756E0279502BBDB
:1008300020F4515021F4220FF9CF012756E02991DD
:10084000332302BB21F6037F10913303110FC651EE
:10085000D04002BB11F010932C0310E81ABF0860BF
:1008600011B3137F402F437F5F9100C000C002BBD4
:1008700011BB42BB66CF982FFA01D9018091A60027
:100880008923E081882341F0E92379F4662311F478
:1008900085E007C084E005C0E92339F0662319F438
:1008A00083E08C93089582E08C930895662361F031
:1008B000813011F4909A0895823011F4919A08953C
:1008C000843069F4969A0895813011F490980895CF
:1008D000823011F491980895843009F4969808951F
:1008E00081B3836181BB82B38C7E82BB8E9A9698E2
:1008F00008958093A60008958091A600089510920F
:10090000960008952091600030E0AC01429FC00144
:10091000439F900D529F900D11246FEF70E00E9445
:10092000D924CB0108950E94EC0D089590919A006E
:10093000992319F480E090E010C0913049F41092AE
:10094000A00010929F0010929E0010929D000895AA
:10095000923031F48091600090E00E94EC0D089597
:10096000892F83508230A0F483E08093A4009430D8
:1009700019F481E08093A4008091A4009FEF899FE7
:10098000C00111246CE070E00E94D9246093A300A0
:100990000895109297000E94960408958091600037
:1009A0008E31A1F08951809360008E3118F48EE170
:1009B0008093600080919A00823011F40E94960426
:1009C00081E090E090939900809398000895809141
:1009D00060008F3FA9F090E049968F3F910511F09C
:1009E0000CF08FEF8093600080919A00823011F4B8
:1009F0000E94960481E090E0909399008093980083
:100A0000089590989198969880E090E00E94EC0D5F
:100A10009498089581E08093970080E090E00E9490
:100A2000EC0D949808952223E9F10E944A1488233A
:100A3000C9F5809197008823A9F580919A008330A9
:100A4000C1F484EF91E09093A2008093A100809183
:100A5000A4008C3038F58F5F8093A4009FEF899FAE
:100A6000C00111246CE070E00E94D9246093A300BF
:100A700008958430B9F484EF91E09093A2008093BC
:100A8000A1008091A400882369F081508093A40084
:100A90009FEF899FC00111246CE070E00E94D9246F
:100AA0006093A30008950E944A14882391F48091D2
:100AB0009A0090E0019665E070E00E94D92480934E
:100AC0009A0081E090E090939900809398000E94B2
:100AD00096040895662311F0893311F08D3F21F4B7
:100AE00081E00E94530505C08A3F29F481E00E94FD
:100AF000E70480E00895893F11F081E0089581E0E6
:100B00000E94CE0480E008950E945E1C813069F44A
:100B10000E945B1C60E0811161E081E047EA50E0E7
:100B200025EA30E00E943B0407C08091A60080FFC8
:100B300002C0909A01C090988091A60081FF02C0E7
:100B4000919A01C091980E945E1C823069F40E94C3
:100B50005B1C60E0811161E084E047EA50E025EA37
:100B600030E00E943B0407C08091A60082FF02C0D3
:100B7000969A01C096988091A6008093A700089548
:100B8000109297000E9484050E9496040895209177
:100B9000A500222309F442C08091AA009091AB00E5
:100BA00001969093AB008093AA0085369105D4F10D
:100BB000253011F0233029F40E945E1C8130F1F4BD
:100BC00022C0243011F0223041F40E945E1C81309A
:100BD00011F4909819C0969817C00E945E1C81303D
:100BE00029F40E945B1C882371F40EC00E945E1CD5
:100BF000823031F40E945B1C882331F0969A04C045
:100C00008091A60080FD909A1092AB001092AA00ED
:100C10008091A50081508093A50008951092AB00AB
:100C20001092AA00089589E090E00E9447268093E0
:100C3000600080939C008BE090E00E9447268093A8
:100C40009A00853010F010929A0080919A0080935B
:100C50009B000E949604089580919600882361F479
:100C600081E0809396000E94510C88E00E948F0DD5
:100C70000E94D40D0E9413060895CF93DF93EC01D8
:100C80000E945E1C813029F40E945B1C882339F08D
:100C900004C08091A60080FF02C0909801C0909A85
:100CA0008091A60081FF02C0919801C0919ACE0167
:100CB0000E944D1A0E945E1C813029F40E945B1C28
:100CC000882339F004C08091A60080FF02C0909A6A
:100CD00001C090988091A60081FF02C0919A01C046
:100CE0009198DF91CF9108950E94291C8823A1F447
:100CF00081E080936100089590916100913011F43A
:100D0000919801C0919A1092A9001092A80081E0D8
:100D100098279093610008958091A8009091A90070
:100D200001969093A9008093A8008558934024F7DA
:100D3000089580919600882309F421C10E944A14E5
:100D4000882309F01CC10E9474060E94C705809187
:100D50009800909199001816190644F50196909301
:100D6000990080939800885E934001F51092990055
:100D70001092980060919A0080919B00681731F062
:100D800060939B008BE090E00E944F266091600092
:100D900080919C00861731F060939C0089E090E080
:100DA0000E944F2682E390E00E943D0680919700CA
:100DB000882309F0E4C080919A00813009F056C080
:100DC00080919D0090919E00009761F480919F001A
:100DD0009091A00063E070E00E94D924CB010E94B2
:100DE000820410C08230910589F480919F00909117
:100DF000A0006DEF7FEF0E94D924CB0181509F4F5F
:100E00000E94820490E00E94EC0D0EC0813091059A
:100E100011F0039749F480919F009091A0000196F2
:100E20009093A00080939F0080919F009091A000DC
:100E30008D5F92408CF01092A00010929F008091E4
:100E40009D0090919E00019664E070E00E94D9247C
:100E500090939E0080939D0080919F009091A000B0
:100E600001969093A00080939F0008958330D9F558
:100E70008091A1009091A2001816190634F40197F0
:100E80009093A2008093A10028C02091A300222368
:100E9000F1F080919F009091A00001969093A000A6
:100EA00080939F000397CCF01092A00010929F00B7
:100EB00021502093A3008FEF90E0821B91096BEEED
:100EC0007FEF0E94D924645F6093A40006C0109253
:100ED000A4001092A00010929F008091A30090E0C7
:100EE0000E9482043EC0843009F03FC08091A1007E
:100EF0009091A2001816190634F401979093A2005D
:100F00008093A10029C02091A3002F3FF1F0809190
:100F10009F009091A00001969093A00080939F0065
:100F20000397D4F01092A00010929F002F5F20939F
:100F3000A3008FEF90E0821B91096BEE7FEF0E9480
:100F4000D924645F6093A40007C08CE08093A40060
:100F50001092A00010929F008091A30090E00E9448
:100F6000820490E00E94EC0D08951092A00010926F
:100F70009F0083E090E090939E0080939D000895F1
:100F8000A89AA99A86B7846086BF1092AD00109285
:100F9000AC000895BC010898099880EE9EE20E947A
:100FA000C524603130F0862F90E040979595879565
:100FB000682F60B9089586B78F70806A86BF0895DC
:100FC00086B78F70806D86BF0895FC01108205C0C2
:100FD00080818F5F8083803A18F406B607FEF8CFD1
:100FE000089583B986B78F70806886BF0895882377
:100FF00021F086B78F70806C03C086B78F708068D1
:1010000086BF089583B10895CF92DF92EF92FF9249
:101010000F931F93DF93CF930F92CDB7DEB7182FA7
:10102000062F6A0186B78E7F86BF86B78F70806A6B
:1010300086BF7E010894E11CF11CC7010E94E507F0
:101040008981803A68F51E7F13B986B78F708068F2
:1010500086BFC7010E94E5078981803A08F581B102
:10106000883181F091E014C0F60181916F0183B95C
:1010700086B78F70806886BF8F2D912F0E94E507FD
:10108000015003C0C701FE2C192F002369F790E01F
:1010900086B78F70806D86BF86B7816086BF01C0BE
:1010A00091E0892F0F90CF91DF911F910F91FF90C9
:1010B000EF90DF90CF900895CF92DF92EF92FF9262
:1010C0000F931F93DF93CF930F92CDB7DEB7182FF7
:1010D000062F6A0186B78E7F86BF86B78F70806ABB
:1010E00086BF7E010894E11CF11CC7010E94E50740
:1010F0008981803AE0F5116013B986B78F708068F6
:1011000086BFC7010E94E5078981803A80F581B1D9
:10111000803491F091E023C081E00E94F707812F95
:101120009F2D0E94E5078981803A08F583B1F60179
:1011300081936F01015003C0C7011E2DF92E0230AB
:1011400058F780E00E94F707812F9F2D0E94E50746
:101150008981803A60F483B1F601808390E086B79C
:101160008F70806D86BF86B7816086BF01C091E0B9
:10117000892F0F90CF91DF911F910F91FF90EF90EA
:10118000DF90CF9008958091620008958091630070
:1011900008958091B0000895EF92FF921F93CF932E
:1011A000DF9360E070E081E0E82EF12CFB01EE536C
:1011B000FF4F80818823D9F120E030E0C82FD0E0B4
:1011C000162F1F5FCE01022E02C0959587950A94B7
:1011D000E2F780FF27C0522F22C0CE01052E02C0A9
:1011E000959587950A94E2F780FF19C0412FD701A2
:1011F000052E02C0AA0FBB1F0A94E2F70EC0E42F0F
:10120000F0E0EE53FF4F808190E08A239B23181675
:10121000190614F481E012C04F5F413181F75F5F1E
:101220005830D8F22F5F3F4F2830310559F66F5FA5
:101230007F4F6131710509F0B9CF80E0DF91CF9127
:101240001F91FF90EF9008958091B3029091B402A6
:10125000089581EB90E0089581E080936200E2ECD4
:10126000F0E08081882319F01092620005C0319669
:1012700080E0E33DF807A9F781E080936300E1EBAC
:10128000F0E08081882319F01092630005C0319648
:1012900080E0E23CF807A9F780916200882341F4DE
:1012A0000E946D13882331F48091B000882311F4DB
:1012B0001092AF000895A1EBB0E08091B30290913D
:1012C000B4029C01F90181E101900D928150E1F796
:1012D0000895DF93CF930F92CDB7DEB7198282ECDA
:1012E00090E0BE016F5F7F4F0E945A0B8981882377
:1012F00019F01092D40007C08091D400843618F4FD
:101300008F5F8093D4009091D4008091D300981780
:1013100011F080E00EC00E94CC08882319F081EB08
:1013200090E002C082EC90E09093B4028093B3020C
:1013300081E00F90CF91DF9108950E94690908958F
:101340000E945B1C882329F00E945B1C8093AE00E6
:1013500008951092AE000895CF92DF92FF920F93FE
:101360001F93CF93DF938091AF00882339F00E94C1
:10137000A0091092B0001091AF005EC00091B302BE
:101380001091B402FF2491E0C92ED12CF801808184
:10139000882309F444C0C0E0D0E096010C2E02C0BE
:1013A000220F331F0A94E2F7F8018081822391F122
:1013B0008091AE006F2D4C2F0E94E2130E947E128E
:1013C0008E3F99F0883F11F412E010C0863F11F46F
:1013D00013E00CC08B3FF1F48091AE008230D1F469
:1013E00081E08093B00010E027C011E00E94051F4B
:1013F000882351F080916300882321F48091B0000C
:101400008823C1F41093AF000E94A00981E080936B
:10141000B00012C02196C830D10509F0BECFF394B8
:101420000F5F1F4FF1E1FF1609F0B0CF0E94A00936
:101430001092B0001091AE00812FDF91CF911F91DB
:101440000F91FF90DF90CF90089581E1E1EBF0E004
:10145000DF01982F1D929A95E9F7E2ECF0E0DF01A9
:101460001D928A95E9F708950E942E0C87E08093DB
:10147000D3008AE08093D40082EC90E09093B40291
:101480008093B3020895FC018381813261F082323E
:10149000D9F0823081F585ED91E09093310380930E
:1014A00030038BE308958281882319F0813019F588
:1014B00003C087EE91E002C080E092E09093310398
:1014C0008093300389E0089584819581009719F015
:1014D000019789F408C082E191E0909331038093F1
:1014E000300380E4089582E591E090933103809386
:1014F000300383E8089580E00895FC018091D600D0
:10150000882329F0613019F480810E946B211092A8
:10151000D60081E008950F931F93CF93DF93182F88
:10152000092F0E94881FC12FD02F8881807680329A
:10153000D1F58981813041F485EB92E090933103BC
:101540008093300388E030C0893071F48A819B81B8
:101550008050924041F58C819D81892B21F581E05D
:101560008093D6008FEF20C0823019F48091D5008F
:1015700014C08A3031F40E948C1F8B818093D50077
:1015800012C0833031F48B81882369F41092640097
:101590000BC08B3041F48091640080933003109233
:1015A000310381E001C080E0DF91CF911F910F9165
:1015B000089528E088E190E00FB6F894A89581BDE1
:1015C0000FBE21BDFFCF813011F090E006C090E04A
:1015D000613009F091E081E09827892F089521E09A
:1015E00030E002C0220F331F8A95E2F727BB209517
:1015F00028BB84E18A95F1F70895282F883058F4A4
:1016000049B381E090E002C0880F991F2A95E2F764
:101610004095482318C08E3078F443B38FE090E0B3
:10162000821B910921E030E002C0220F331F8A950E
:10163000E2F74095422307C0803111F040E003C03B
:1016400040B340954078842F0895FF920F931F93E5
:10165000DF93CF9300D00F92CDB7DEB719821A82F5
:10166000FF24FA94FB8280E463E08E010F5F1F4F3A
:10167000A8010E9404088823A1F48CE089831A82BF
:10168000FB8280E463E0A8010E940408882349F4F7
:1016900084E18983FA82FB8280E463E0A8010E94EE
:1016A00004080F900F900F90CF91DF911F910F9131
:1016B000FF9008952F923F924F925F926F927F9288
:1016C0008F929F92AF92BF92CF92DF92EF92FF9252
:1016D0000F931F93DF93CF9300D000D0CDB7DEB729
:1016E0002C014B01EE24FF2441E0642E712C34E1E7
:1016F000332EAA24A39493010E2C02C0220F331F71
:101700000A94E2F727BB822F809588BB832D8A95A8
:10171000F1F78201DD24C22EB22EB0948D2D0E94ED
:10172000FD0A282FD8019C918C2D892319F02223A2
:1017300039F00BC0222349F09C29F801908303C0A3
:101740009B21D8019C93F401A082D3940F5F1F4F7B
:10175000F9E0DF1619F70894E11CF11C88E0E8169F
:10176000F10449F60E94250B882309F060C0EE249D
:10177000FF2422E1222E91E0A92EB12C82E0682ED6
:10178000712C6C0E7D1E332433946E010894C11CA1
:10179000D11C2A8285010E2C02C0000F111F0A9451
:1017A000E2F7802F80958B8380E462E0A3010E94A2
:1017B000040880E461E0A6010E945C08F20120E0D8
:1017C00030E0502F5095898190E080959095022EC1
:1017D00002C0959587950A94E2F7482F417091854C
:1017E000802F892319F0442329F008C0442331F0C5
:1017F000902B01C095239187D4013C922F5F3F4FDE
:10180000319628303105F9F60894E11CF11CB8E056
:10181000EB16F10409F0BDCF82E18A838FEF8B8351
:1018200080E462E0AE014E5F5F4F0E9404080F90BB
:101830000F900F900F90CF91DF911F910F91FF901C
:10184000EF90DF90CF90BF90AF909F908F907F9060
:101850006F905F904F903F902F9008958FEF87BBD0
:1018600088BB1ABA14BA8BBB8CEF85BB8F98979A3A
:101870000E94C00780E991E00E94CA070895089578
:1018800083B7887F826083BF12BE89B7816089BFBA
:101890001092BD021092BE021092BF021092C002BE
:1018A00008958EB5887F83608EBD1DBC1CBC89B732
:1018B000846089BF089585B5887F846085BD14BC28
:1018C00089B7806489BF1092C5021092C602109237
:1018D000C7021092C802089580E090E0FC01EE0F6C
:1018E000FF1FE952FF4F1182108201968830910547
:1018F000A9F70E94400C0E94510C0E945B0C789446
:10190000089593B7987F982B93BF08959EB5987FBD
:10191000982B9EBD089595B5987F982B95BD0895F9
:1019200083B7E82FF0E0E770F070EE0FFF1FE05F85
:10193000FD4F25913491C90108958EB5E82FF0E04F
:10194000E770F070EE0FFF1FE05FFD4F25913491BF
:10195000C901089585B5E82FF0E0E770F070EE0F4B
:10196000FF1FE45EFD4F25913491C9010895883031
:1019700040F4E82FF0E0EE0FFF1FE952FF4F7183B4
:1019800060830895883040F4E82FF0E0EE0FFF1FE9
:10199000E952FF4F118210820895AF92BF92CF9209
:1019A000DF92EF92FF920F931F93CF93DF93EC019F
:1019B00012B71092C1021092C2021092C30210928A
:1019C000C40283B7E82FF0E0E770F070EE0FFF1F5E
:1019D000E05FFD4F2591349140E050E060E07BE115
:1019E00087EB90E00E94EC24B901CA01693B2DE825
:1019F000720726E0820720E09207A0F437E2C131A7
:101A0000D30780F49E0140E050E00E94A62428EE17
:101A100033E040E050E00E94EC24C901DA01BC014F
:101A2000CD010DC028EE33E040E050E00E94EC24F0
:101A3000CA01B9019E0140E050E00E94A624A72EF1
:101A4000B82EC92EDD249B01AC01210F311D411D93
:101A5000511D79018A0117C08091C1029091C20283
:101A6000A091C302B091C4028A159B05AC05BD05C7
:101A700050F485B78F7885BF85B7806885BF889516
:101A800085B78F7785BF2091C1023091C202409106
:101A9000C3025091C40282B790E0A0E0B0E0542F9E
:101AA000432F322F2227822B932BA42BB52B8E155D
:101AB0009F05A007B10780F2DF91CF911F910F9191
:101AC000FF90EF90DF90CF90BF90AF90089510926D
:101AD000BD021092BE021092BF021092C002089581
:101AE0002091BD023091BE024091BF025091C002D0
:101AF000B901CA0108951092C5021092C60210924F
:101B0000C7021092C80208952091C5023091C60202
:101B10004091C7025091C802B901CA0108958930A5
:101B200031F48FB582608FBD8FB58E7F0AC08A3049
:101B300019F48FB5826002C08FB58D7F8FBD8FB5D0
:101B400081608FBD1BBC1ABC19BC18BC08952FB591
:101B50002E7F2FBD2FB522602FBD2EB528602EBD44
:101B60002EB520612EBD97BD86BD1BBC1ABC19BC0D
:101B700018BC08958FB58D7F8FBD8FB58E7F8FBDBB
:101B80008FB58F778FBD8FB58F7B8FBD8FB58F7DD5
:101B90008FBD8FB58F7E8FBD08958FB580688FBD47
:101BA0008FB58F7B8FBD08958FB580628FBD8FB548
:101BB0008F7E8FBD08958FB58F778FBD8FB58F7B4B
:101BC0008FBD08958FB58F7D8FBD8FB58F7E8FBDF3
:101BD00008959BBD8ABD089599BD88BD08951F9243
:101BE0000F920FB60F9211242F933F934F935F9351
:101BF0006F937F938F939F93AF93BF93EF93FF93D5
:101C00008091BD029091BE02A091BF02B091C0022E
:101C10000196A11DB11D8093BD029093BE02A093B9
:101C2000BF02B093C0028091C1029091C202A09104
:101C3000C302B091C4020196A11DB11D8093C102DF
:101C40009093C202A093C302B093C4028091D700C4
:101C50009091D800892B29F0E091D700F091D8001D
:101C60000995FF91EF91BF91AF919F918F917F91D6
:101C70006F915F914F913F912F910F900FBE0F90F9
:101C80001F9018951F920F920FB60F9211242F9349
:101C90003F934F935F936F937F938F939F93AF93F4
:101CA000BF93EF93FF938091D9009091DA00892B35
:101CB00029F0E091D900F091DA000995FF91EF91B8
:101CC000BF91AF919F918F917F916F915F914F9154
:101CD0003F912F910F900FBE0F901F9018951F925C
:101CE0000F920FB60F9211242F933F934F935F9350
:101CF0006F937F938F939F93AF93BF93EF93FF93D4
:101D00008091C5029091C602A091C702B091C8020D
:101D10000196A11DB11D8093C5029093C602A093A8
:101D2000C702B093C8028091E1009091E200892B34
:101D300029F0E091E100F091E2000995FF91EF9127
:101D4000BF91AF919F918F917F916F915F914F91D3
:101D50003F912F910F900FBE0F901F9018951F92DB
:101D60000F920FB60F9211242F933F934F935F93CF
:101D70006F937F938F939F93AF93BF93EF93FF9353
:101D80008091E5009091E600892B29F0E091E50033
:101D9000F091E6000995FF91EF91BF91AF919F916E
:101DA0008F917F916F915F914F913F912F910F9004
:101DB0000FBE0F901F9018951F920F920FB60F92A3
:101DC00011242F933F934F935F936F937F938F9340
:101DD0009F93AF93BF93EF93FF938091DB0090911C
:101DE000DC00892B29F0E091DB00F091DC00099503
:101DF000FF91EF91BF91AF919F918F917F916F91E3
:101E00005F914F913F912F910F900FBE0F901F90B8
:101E100018951F920F920FB60F9211242F933F9394
:101E20004F935F936F937F938F939F93AF93BF93E2
:101E3000EF93FF938091DD009091DE00892B29F0D4
:101E4000E091DD00F091DE000995FF91EF91BF91E7
:101E5000AF919F918F917F916F915F914F913F9142
:101E60002F910F900FBE0F901F9018951F920F92F9
:101E70000FB60F9211242F933F934F935F936F935D
:101E80007F938F939F93AF93BF93EF93FF93809133
:101E9000DF009091E000892B29F0E091DF00F091C4
:101EA000E0000995FF91EF91BF91AF919F918F91C4
:101EB0007F916F915F914F913F912F910F900FBE46
:101EC0000F901F9018951F920F920FB60F9211242A
:101ED0002F933F934F935F936F937F938F939F9332
:101EE000AF93BF93EF93FF938091E3009091E40051
:101EF000892B29F0E091E300F091E4000995FF912E
:101F0000EF91BF91AF919F918F917F916F915F9171
:101F10004F913F912F910F900FBE0F901F901895EA
:101F200086E084BD8091C9029091CA020196909387
:101F3000CA028093C902089598EA899FF00111248A
:101F4000E050F849E49180E0E150EE3F08F481E090
:101F500008958091E70008951092E70080E00E94C4
:101F60008B0C08950F931F931092CA021092C9020E
:101F70001092E9001092E80008EA2091EA003091FE
:101F8000EB00283A31051CF00E94AC0F30C0E09104
:101F90006500E09FA0011124C9010196240F351F9F
:101FA00020503849F901249101969093EB008093D9
:101FB000EA000197480F591F40505849FA011491FF
:101FC000822F81508E3F78F4822F0E94D61A912F53
:101FD0009F7799F28BE4989FC00111249093E900B8
:101FE0008093E80004C00E94AC0F0E941A1B1F914E
:101FF0000F9108958091E700882369F02091C9022C
:102000003091CA028091E8009091E90028173907C1
:1020100014F00E94B20F0895982F8091E700882352
:1020200091F481E08093E700909365001092E900BD
:102030001092E8001092EB001092EA000E94B20F9A
:1020400085B5836085BD08950E945B0C85E060E9DD
:102050007FE00E94B70C80E00E948B0C0895909363
:10206000EF008093EE0008950F931F93182F062F13
:10207000662329F00E948C1261E00E948613E09191
:10208000EE00F091EF000190F081E02D812F602FA4
:1020900009951F910F910895DF92EF92FF920F9390
:1020A0001F93182F062FE42ED22E642F422F202F9D
:1020B0000E94AF1CF82E002329F0112319F081E0B3
:1020C0000E9432130E949F14882339F0812F6E2DB5
:1020D0004D2D202F0E94EC1716C0FF20A1F00023E9
:1020E00029F0812F0E948415882369F4812F602FA5
:1020F0000E947F1EE091EE00F091EF000190F081D0
:10210000E02D602F09951F910F91FF90EF90DF90C8
:102110000895EF92FF920F931F93F82E142FE22E43
:102120006417C9F00E948C12612F0E9486138F2DB4
:10213000612F0E94611C8F2D0E947D1C882359F005
:10214000112319F08F2D61E002C08F2D60E04E2D1C
:10215000202F0E944C101F910F91FF90EF90089537
:102160002F923F924F925F926F927F928F929F92A7
:10217000AF92BF92CF92DF92EF92FF920F931F9395
:10218000DF93CF9300D00F92CDB7DEB70E949D09A9
:10219000882309F4CEC00E94AC09882E0E9424092D
:1021A0003C010E9429098983492E0E94051F88232A
:1021B00029F08091ED00882309F05AC08091EC004D
:1021C000881509F455C0EE24FF2491E0292E312C06
:1021D0003FC05A808091EC00652D4B2D0E94E21388
:1021E000082F882D6A814B2D0E94E213A82E081714
:1021F000F1F0802F0E9434148823C9F4EA81FB8116
:10220000E60DF71D1081F6018081892139F0802FBC
:1022100061E040E02B2D0A810E948910192139F0DC
:102220008A2D60E041E02B2D052D0E9489108A81C6
:102230009B8101969B838A830894C11CD11C419782
:1022400041F60894E11CF11C98E0E916F10481F0D4
:10225000BE2CC1010E2C02C0880F991F0A94E2F710
:10226000982E2981342DC9016C011B821A82B1CFAD
:102270008092EC000E94C9088093ED000E9424091E
:10228000182F092F0E9429096C01212F302FC90115
:102290007C01BB2481E0682E712CF60180818823AB
:1022A00021F4F70180818823A9F144245524942C3A
:1022B000C301042C02C0880F991F0A94E2F7F601AB
:1022C00010811823F70100810823882D6B2D442DE0
:1022D0000E94E213A82E0E94291C882349F010179F
:1022E00091F00023B9F08B2D642D0E942C1C12C09C
:1022F00060E0111161E040E0011141E08A2D292DDB
:102300000B2D0E9489100894411C511CF8E04F16B7
:10231000510469F6B3940894C11CD11C0894E11CC3
:10232000F11C81E1B81609F0B8CF0E945B090E9448
:102330002C090F900F900F90CF91DF911F910F916B
:10234000FF90EF90DF90CF90BF90AF909F908F90D5
:102350007F906F905F904F903F902F9008950F93D4
:102360001F930E94AF1B882349F10E941D1B8823E5
:1023700029F50E94F21B092F813051F4E091EE0003
:10238000F091EF000190F081E02D892F61E015C000
:10239000892F8756883040F40E947713182F802F9A
:1023A0000E944314182351F4E091EE00F091EF00E5
:1023B0000190F081E02D802F60E009950E94B0101F
:1023C0001F910F910895982F8091F20080FF0FC008
:1023D000993611F49AE60BC09A3611F499E607C0C3
:1023E0009D3611F49EE603C09E3609F49DE6892FC2
:1023F00008951F9381E00E946D13882309F067C040
:102400000E947713182F80E00E946D13982F1123DC
:1024100011F41092F100992311F41092F0008091C0
:10242000F1001817E1F08091F0008917C1F01C301D
:1024300031F0103C21F0183411F0143851F4983276
:1024400041F41092F7001092F60082E08093F300BE
:1024500002C01092F3001093F1009093F0004091AD
:10246000F3004423B1F18091F6009091F7000196BA
:102470009093F7008093F6002091F4003091F500DE
:102480002817390734F54230E1F482E390E00E94E6
:102490003D068091F20080FF04C08E7F8093F200A1
:1024A00010C081608093F20084EF91E02CE231E073
:1024B000F9013197F1F70197D9F784E690E00E948E
:1024C0003D0688E090E06091F2000E944F26109255
:1024D000F3001F91089588E090E00E9447268093C2
:1024E000F2008F3F11F41092F20088E893E10E940D
:1024F000D9229093F5008093F4000895E82F865D2B
:10250000883140F4F0E0EA5AFE4FE4918E2F0E94A9
:10251000DF13E82F8E2F0895982F8091F8008823DD
:1025200021F0892F0E947E12982F892F0895282F3D
:10253000865D8831A8F4822F90E0865D9040FC0192
:10254000E45AFD4FE491EE2321F0822F0E947E1287
:1025500006C08C5B9D4FFC0184910E94DF13282FE5
:10256000822F08951F93982F865D662381F188310D
:10257000A8F48091F9008F5F8093F9008091FA00B0
:10258000882309F58091FB008823E9F49093FC00EF
:1025900081E08093FA001092F80062C08091FC0004
:1025A000882339F081E08093F8008091FB008F5FF1
:1025B00055C08091FA00882309F052C08091FB0039
:1025C0008F5F8093FB0081E08093F80049C08831E1
:1025D00008F03FC08091F900882319F08150809362
:1025E000F9001091FC00112369F18091F800882313
:1025F00049F5812F865D883148F4E12FF0E0E259FA
:10260000FE4FE4918E2F0E94DF13182F812F0E941E
:10261000D61A812F0E94D61A1092FC001092FE004A
:102620001092FD000E94BD14882361F0812F60E0AC
:1026300040E021E00E94EC17812F60E040E020E0C4
:102640000E94EC178091F900882351F41092FA004F
:1026500007C08091FB00882319F081508093FB0014
:102660001F9108951F93182F9091FC009923E9F072
:102670008091F8008823C9F0892F0E947E12612F73
:102680000E9434100E94BD14882349F08091FC0000
:102690000E947E1260E040E021E00E94EC17109260
:1026A000FC001092FE001092FD001F910895809191
:1026B000FC00882389F08091FD009091FE00019636
:1026C0009093FE008093FD00855F914028F081E0AB
:1026D0008093F8000E9432130895863010F080E055
:1026E0000895E82FF0E0E150FF4F80810895809138
:1026F00005010895109206011092050186E0EFEFA2
:10270000F0E0DF011D928A95E9F708950F931F937A
:10271000082F8756662301F1883038F4109105019F
:10272000802F0E944314182B20C080910601863010
:1027300080F50D3B70F58FEF90E0602F0E947E1AC0
:102740008F5F9F4F31F580910601E82FF0E0E15057
:10275000FF4F00838F5F1BC0883050F4109105013C
:10276000802F0E944314809518231093050111C0F7
:102770008FEF90E0602F0E947E1ABC0197FD09C088
:102780008FEF90E00E94981A80910601815080930B
:1027900006011F910F91089598E8899FF001112477
:1027A000E050FB4970E083E0660F771F8A95E1F700
:1027B000E60FF71FE40FF11DE4918E2F08950E949C
:1027C000E3110895FF920F931F93182F062FF42EF5
:1027D0000E949F14882379F10E94BD14602F70E03D
:1027E0004F2D50E08823B9F0E8E81E9FF001112436
:1027F000E050FB49A3E0660F771FAA95E1F7E60FCB
:10280000F71FE40FF51F1491812F0E94AF14882346
:1028100021F110E022C0E8E81E9FF0011124E050F1
:10282000FB4933E0660F771F3A95E1F7E60FF71F94
:10283000E40FF51F11C0E8E81E9FF0011124E050DD
:10284000FB49802F90E023E0880F991F2A95E1F73C
:10285000E80FF91FEF0DF11D1491812F0E94E31174
:102860001F910F91FF900895982FE4E7F2E0849173
:10287000981711F481E00895319682E0E837F8075F
:10288000B1F780E00895E82FF0E0EF5EFD4FE491AE
:102890008E2F089580910701089580910701882364
:1028A00029F481E0809307010E9401050895809139
:1028B00007018823C9F480910801909109010196CC
:1028C00090930901809308018053954768F0109216
:1028D00009011092080180910A018F5F80930A011B
:1028E0008A3011F40E944D140895809107018823C5
:1028F00021F0109207010E94C00510920901109268
:10290000080110920A01089520912701E22FF0E0BA
:10291000EE0FFF1FE15EFE4F918380832F5F2093B8
:102920002701089580931901089580911501817000
:102930000895809115018360809315010895809119
:1029400015018270089580911701089581E08093A8
:10295000170108951092150110921A01089590E040
:102960008D5B883108F491E0892F089590E0895CAF
:102970008C3008F491E0892F089590E0809119013E
:102980008B3009F491E0892F089580911101089509
:1029900080E3E4EEF2E0DF01982F1D929A95E9F7CB
:1029A00010921403ECECF2E0DF011D928A95E9F736
:1029B00010921001089588E20E94D61A88E20E94BF
:1029C000D61A08951F93182F0E94C8141093CB0293
:1029D0008BE080931901809115018360809315012C
:1029E00081E08093110184EF91E00E943D0688EE22
:1029F00093E02CE231E0F9013197F1F70197D9F733
:102A000084EF91E00E943D061F9108958091150189
:102A100081608093150182E390E00E943D0684EF7F
:102A200091E02CE231E0F9013197F1F70197D9F704
:102A300082E390E00E943D0684EF91E02CE231E0D9
:102A4000F9013197F1F70197D9F784E690E00E94F8
:102A50003D0608951F93CF93DF938091CB028C3076
:102A6000C8F4C0E0D0E010E38091CB02819FC001A8
:102A700011248B559E4FFE01EC51FD4F8C0F9D1F75
:102A800060810E944F262196C033D10569F78FEFF0
:102A90008093CB02DF91CF911F9108950E942A1558
:102AA0008FEF8093CB0210921901109211011092B6
:102AB000150110921A0188EE93E00E943D060895D8
:102AC0000F931F93CF93DF93982F8C30C0F480E344
:102AD000989FC0011124EC01CB55DE4F8C010B52A5
:102AE0001E4FCE010E944726982F81508E3F18F42A
:102AF000892F0E94D61A2196C017D10791F7DF912E
:102B0000CF911F910F9108950F931F93182F8091CC
:102B1000150180FD30C0012F0D5B083160F50E946A
:102B2000AF1B8823F9F4193C90F0195C80E3189FDF
:102B3000C00111248B559E4F0E94472681508E3F25
:102B4000E0F40E94C01B812F0E94601516C0802FE8
:102B50000E949C0F882389F00E94C01B802F0E9436
:102B60000C100BC00E94171B882329F00E94ED1B3C
:102B70000E941A1B02C080E001C081E01F910F91EA
:102B800008950F931F93FC0180810E942C1B8C01E0
:102B9000882319F088E60E94D61A812F0E94D61A3F
:102BA000812F0E94D61A002319F088E60E94D61AB7
:102BB0001F910F910895CF92DF92EF92FF920F93A2
:102BC0001F93DF93CF930F92CDB7DEB78C010097A1
:102BD00011F52FC000D000D000D0EDB7FEB7319670
:102BE000ADB7BEB71296FC92EE921197D382C28215
:102BF000992787FD9095958384830E94C5258DB77D
:102C00009EB706960FB6F8949EBF0FBE8DBFC70144
:102C10000E94C11508C07E010894E11CF11C46E623
:102C2000C42E40E0D42EF8010F5F1F4F84918823FB
:102C300089F60F90CF91DF911F910F91FF90EF9048
:102C4000DF90CF9008950E94DB150E94DB14089559
:102C50008EEE94E00E94231681E080930F018CE0B9
:102C600080931A011092190108958BE294E00E945A
:102C700023160895AF92BF92CF92DF92FF920F93E7
:102C80001F93DF93CF930F92CDB7DEB78C01FF2454
:102C90006E010894C11CD11C56E6A52E50E0B52E3D
:102CA00025C000D000D000D0EDB7FEB73196ADB74B
:102CB000BEB71296DC92CE921197B382A282800F99
:102CC000911FDC018C91992787FD909595838483D2
:102CD0000E94C5258DB79EB706960FB6F8949EBF85
:102CE0000FBE8DBFC6010E94C115F3948F2D90E0D9
:102CF000F80101900020E9F73197E01BF10B8E17E6
:102D00009F0778F20F90CF91DF911F910F91FF9065
:102D1000DF90CF90BF90AF9008950F931F938B01DA
:102D20000E943A16C8010E94DB151F910F91089569
:102D30000F931F9384EE93E00E94DB1508EC13E0E1
:102D4000C8010E94DB158091CB028F5F0E94A11BFE
:102D5000B8010E948D168EEE94E00E94231681E049
:102D600080930F018DE080931A01109219011F9139
:102D70000F9108950F931F930E94DB1484EE93E04C
:102D80000E9423168CEF93E00E94231681E194E0C9
:102D90000E94DB150E94DB1483E00E94A11B0AEC59
:102DA00013E0B8010E948D168AED93E00E9423166D
:102DB00086E00E94A11BB8010E948D168FED93E062
:102DC0000E9423168FE194E00E94231687E08093EF
:102DD00019011F910F9108951F930E94DB1483EB3B
:102DE00093E00E94231681E00E94A11B6AEC73E02D
:102DF0000E948D1684EE93E00E94231610E01AC004
:102E0000809129018F5F810F0E94A11B6AEC73E002
:102E10000E948D16E12FF0E0EE0FFF1FE15EFE4FE6
:102E20000190F081E02D0190F081E02D09950E9444
:102E3000DB141F5F80912701181710F381E0809346
:102E40000F018EE080931A01109219011F910895CD
:102E500081E080930F01809119018B3001F18C305A
:102E600038F48730C0F1893078F08930A1F50FC08F
:102E7000843621F1853618F48D3069F50DC08E3613
:102E800041F1883741F510C081E394E002C08DE341
:102E900094E00E94DB151FC086E794E0FACF8AE930
:102EA00094E00E94231617C08AEE93E00E94231636
:102EB0001092190181E00E94491C0DC01092150169
:102EC00010921A018FEB93E00E94231610921901C1
:102ED00002C00E94EC1680911901882349F088EE07
:102EE00093E02CE231E0F9013197F1F70197D9F73E
:102EF000089580911101882319F00E944E150895BC
:102F00000E942A1587E0809319010E94DB140E9419
:102F1000281708951F93CF93DF93C0E0D0E010E30C
:102F20008091CB02819FC00111248B559E4F8C0F45
:102F30009D1F60E00E944F262196C033D10581F786
:102F400087E0809319010E942817DF91CF911F918C
:102F50000895CF93DF93C5EAD1E0CE0160E00E94EF
:102F60004F26219683E0C53ED807B9F787E08093C6
:102F700019010E942817DF91CF91089583E0EBE1BA
:102F8000F1E0DF011D928A95E9F710921E0110927F
:102F900018010E94EC1608950F931F9387E00E947A
:102FA000A11B0AEC13E0B8010E948D168AED93E094
:102FB0000E94231689E00E94A11BB8010E948D1671
:102FC0008AEE93E00E94231688E0809319010E9404
:102FD00028171F910F910895EF92FF920F931F935F
:102FE000CF93DF93982FF62EE42E122F80910F01AE
:102FF000882309F09FC1892F0E948C12082F80918D
:1030000019018B3009F086C10D3B08F093C1809106
:103010000E01882371F010920D0110920E01802F85
:103020000E94D61AE0911403F0E0ED51FD4F10829A
:1030300030C0112371F080911001883108F07AC1FD
:103040008F5F809310018CEC92E0602F0E94CA1A6F
:103050000FC08CEC92E0602F0E947E1ABC018FEFB3
:103060006F3F780709F466C18CEC92E00E94981AD1
:1030700080911403E82FF0E0EC51FD4F00838F5F47
:1030800080931403802F0E94D61A809114038033FA
:1030900018F00E9479174EC1112351F0093241F402
:1030A00081E080930D0110920C0110920B0142C13E
:1030B00010920D0110920E013DC1CA30D10508F0E9
:1030C00039C1E0911E01F0E0E55EFE4FC0838C2F18
:1030D0000E94A11B0E943A160E94DB1490911B01D2
:1030E000809119018830B9F5913029F49093180135
:1030F0000E94BA16FFC0973009F445C0993051F4C8
:103100009093180188E7809319011092150110928D
:103110001A01F0C0E92FF0E0319780912901E81BF6
:10312000F1098091270190E0E817F9070CF0E2C05F
:1031300083E680931801E0932801F0E0EE0FFF1F73
:10314000E15EFE4F0190F081E02D0280F381E02DE1
:10315000099587E013C0873009F0CCC0963019F488
:103160008EE680931901809118018130B9F4913075
:1031700011F489E003C0923021F48DE080931901AD
:10318000B9C0933011F484E6F9CF993009F0B2C098
:103190008CE0809319010E942816ACC0833609F098
:1031A000A9C0E0912801F0E0EE0FFF1FE15EFE4FA5
:1031B0000190F081E02D0480F581E02D892F602FB2
:1031C0004F2D2E2D00E0099595C0923099F0CA3010
:1031D000D10508F0AFC080911E01E82FF0E0E55E58
:1031E000FE4FC0838F5F80931E018C2F0E94A11B16
:1031F0000E943A162A9728F080911901823009F02E
:1032000099C080911901893021F08D3009F07FC07B
:103210003EC080911E01823081F590911B018AE0B1
:10322000989F9001112480911C01280F311DC90124
:1032300001970C9750F4822F81508093CB028BE042
:10324000809319010E94C8140CC0232B21F487E03D
:103250008093190106C00E94DB1481ED94E00E9466
:10326000DB1583E0EBE1F1E0DF011D928A95E9F7E0
:1032700010921E010E94DB144AC088EE93E02CE2FB
:1032800031E0F9013197F1F70197D9F753C08091F7
:103290001E01823091F590911B018AE0989F900168
:1032A000112480911C01280F311DC90101970C9731
:1032B00060F4822F81508093CB0287E080931901C4
:1032C0000E94DB140E9498160EC0232B31F487E075
:1032D000809319010E94DB1406C00E94DB1481ED6B
:1032E00094E00E94231683E0EBE1F1E0DF011D9200
:1032F0008A95E9F710921E010AC088EE93E02CE24D
:1033000031E0F9013197F1F70197D9F713C00E9425
:10331000281710C0112371F489E690E0602F0E94F5
:103320007E1AEC0190911901892F8750823008F0A4
:103330004CCFC3CEDF91CF911F910F91FF90EF90B3
:1033400008950E947713982F8091150180FD18C071
:10335000809116019817A1F0973261F480911201C3
:10336000882341F4109214011092130181E080939C
:10337000120104C0109215011092120190931601CF
:103380008091150180FF0FC081FD0DC00E94C6080D
:10339000882349F0809115018360809315010E9474
:1033A00035160E94BE17809115018823C9F48091BB
:1033B00012018130A9F480911301909114010196BA
:1033C0009093140180931301209174003091750043
:1033D000281739072CF40E94061582E08093120109
:1033E0008091150181FF3AC080910F018823E9F097
:1033F0000E94AF1B8823C9F40E94E9228823A9F404
:1034000080911A018E3019F40E94CC170CC08D30B7
:1034100019F40E948A1707C08C3019F40E94A9176A
:1034200002C010920F0110921A0180910D018823A1
:10343000A9F080910B0190910C01019690930C01E1
:1034400080930B01895E93404CF081E080930E01E4
:1034500089E26FEF4FEF20E00E94EC1708950E9481
:10346000291C882319F010921701089580911701E3
:10347000813021F40E94061510921701089584EC02
:1034800099E00E94D922909375008093740081E0A6
:103490008093290110922701089528EB3BE003C097
:1034A000F9013197F1F70197D9F708951F93162F76
:1034B0000E94472690E002C0959587951A95E2F7FD
:1034C000809581701F9108950F931F93162F042FDD
:1034D0000E94472621E030E002C0220F331F1A95D8
:1034E000E2F7622F60956823002309F4622B87E0DE
:1034F00090E00E944F261F910F910895CF93DF9384
:10350000EC01DC010D900020E9F71197A81BB90B25
:1035100070E0AD010E945025009719F4EFEFFFEF26
:1035200003C0FC01EC1BFD0BCF01DF91CF9108958F
:103530009B01FC0101900020E9F73197E81BF90B92
:103540006F5F7F4F680F791FE21BF30B820F931F92
:10355000AF010E9466250895FF920F931F93F42EEA
:103560009B01DC010D900020E9F78C01060F171F6D
:10357000A81BB90BA61BB70B2F5F3F4F820F931FE2
:10358000B801AD010E946625F801F0821F910F91EC
:10359000FF900895462FDC010D900020E9F7119768
:1035A000A81BB90BBD010E94AC1A0895282F809169
:1035B0005F019091600101966CE271E00E94D92454
:1035C000FC019093600180935F0180915D01909177
:1035D0005E018E179F0759F4009719F48BE291E072
:1035E00001C001979093600180935F010895EE59A7
:1035F000FE4F2083089520915D0130915E018091FE
:103600005F01909160012817390711F480E0089557
:10361000C90101966CE271E00E94D924FC019093EB
:103620005E0180935D01EE59FE4F80810895809187
:103630006101089510926101089540E020915D01BB
:1036400030915E0180915F019091600128173907E8
:1036500009F441E0842F0895982F81568A3118F497
:10366000292F2D5510C0892F81548A3120F4292FFC
:103670002D5332E009C0892F8153893010F020E0AA
:1036800002C0292F235130E0892F992787FD90957B
:10369000A92FB92FFC01B097EF35F10508F048C00C
:1036A000E65DFF4FEE0FFF1F0590F491E02D0994AA
:1036B0002EE141C02FE13FC020E23DC021E23BC0EE
:1036C00022E239C023E237C024E235C025E233C00C
:1036D00026E231C027E22FC02CE22EC02DE22CC002
:1036E0002DE229C02EE228C02EE225C02FE224C000
:1036F0002FE221C020E320C020E31DC021E31CC035
:1037000021E319C023E318C023E315C024E314C048
:1037100024E311C025E310C025E30DC026E30CC04F
:1037200026E309C027E308C027E305C028E304C057
:10373000222311F428E332E0832F922F089527E209
:10374000FBCF0F931F930AE211E090E0B8014AE02B
:1037500050E00E947825C8011F910F910895209193
:103760005D0130915E0180915F01909160012817A9
:10377000390719F081E090E008950E94A90F08959B
:1037800020915D0130915E0180915F019091600117
:103790002817390739F480E3EDE2F1E0DF011D92EB
:1037A0008A95E9F708951092600110925F011092D6
:1037B0005E0110925D018CE291E0E2E6F1E0DF0152
:1037C0009C011D9221503040E1F780E3EDE2F1E0F1
:1037D000DF011D928A95E9F708950E94D31B0E948C
:1037E000AC0F08950F931F93CF93DF930E94FB1AA2
:1037F000082F182F1D5B1C3058F40E94ED1B812FE1
:103800000E940C1081E08093610182E000E01BC007
:10381000CDE2D1E0882331F480E3FE0111928A9554
:10382000E9F70AC0CE01602F0E947E1ABC0197FD05
:1038300005C0CE010E94981A82E005C0CE01602F1B
:103840000E94CA1A81E0902FDF91CF911F910F91B2
:10385000089580918E0208950F931F93082F162FBD
:1038600086E790E00E943A16812F0E94A11B0E94D9
:103870003A1688E790E00E943A16802F0E94A11B1A
:103880000E943A168AE790E00E943A161F910F9123
:10389000089580938E020E94840508950E94A119C4
:1038A0000E94F9110E94FA0F0E946B1D0E9457138B
:1038B0000E94990608958091900208958091960241
:1038C00008956623C9F0843F51F4809194028230B8
:1038D00011F483E001C081E0809394020895833F56
:1038E00059F480919502823021F483E0809395020F
:1038F000089581E0809395020895982F8091940215
:10390000823059F080919502823029F49A3629F05C
:1039100080E09E3619F081E0089580E00895FC0172
:1039200080818130A1F482E0808382E390E00E9474
:103930003D0684EF91E02CE231E0F9013197F1F797
:103940000197D9F784E690E00E943D060895833000
:1039500029F4108284E690E00E943D0608950F93BA
:103960001F93182F022F0E941305812F0E943414D9
:10397000882309F0ACC0812F602F0E94B212812FE2
:103980000E949712182F0E943414882309F09FC0B8
:10399000002309F48FC01C3F59F0173F49F0809174
:1039A0008F02882309F44DC01A3209F04AC014C0AE
:1039B00080919002882331F41C3F41F083E0809392
:1039C00090020CC01C3F21F4823031F082E0F7CF2E
:1039D000173F11F4833091F7109290028091960274
:1039E0008823C1F480919002882319F484E690E042
:1039F0000FC084E690E00E943D0680E293E02CE256
:103A000031E0F9013197F1F70197D9F786E490E0B9
:103A10000E943D0680919602813039F460E08091E9
:103A20009002811161E081E009C0823009F04FC04D
:103A300060E080919002811161E084E00E94560470
:103A400046C080919102882361F0812F0E94B614B4
:103A5000882339F0195C1093820081E080939202F0
:103A600036C0193221F481E080938F0231C0153FB6
:103A700071F48091930291E08927809393028823C7
:103A800019F40E94C9041FC00E940A051CC0123FFD
:103A900059F40E94C514882319F00E944E1517C0CE
:103AA00081E08093910213C0812F60918F020E9468
:103AB0006A050EC01C3F59F0193219F410928F029A
:103AC00002C0123F11F081E003C01092910280E029
:103AD0001F910F9108950E94C308882341F084E943
:103AE00092E00E948F1C85E992E00E948F1C0E9448
:103AF000C608882379F080919202882359F01092A9
:103B00009202809182008F3F29F00E94E2148FEF91
:103B100080938200089587EF94E00E94DB1588EC83
:103B200093E00E94DB158AEC93E00E94DB1588ECA1
:103B300093E00E94DB1580919602813019F481E0B8
:103B400095E007C0823019F484E095E002C08FEC64
:103B500093E00E94DB1508951F93182F1150133026
:103B600050F587E00E94921410939602113041F4B0
:103B700087E090E00E944726682F6B7E606110C04E
:103B8000123041F487E090E00E944726682F6B7E58
:103B9000646006C087E090E00E944726682F646159
:103BA00087E090E00E944F260E9484050E948B1DB2
:103BB0000E94DB140DC0843031F484E60E9492141C
:103BC0000E94AA1405C0863019F48EE60E94921451
:103BD0001F9108950E948B1D08950F931F930E94BB
:103BE0008B1D0E94DB1481E00E94A11B0E943A16EB
:103BF0000AEC13E0C8010E94DB158FEC93E00E94F1
:103C0000DB150E94DB1482E00E94A11B0E943A1681
:103C1000C8010E94DB1581E095E00E94DB150E943F
:103C2000DB1483E00E94A11B0E943A16C8010E9487
:103C3000DB1584E095E00E94DB150E94DB1484E034
:103C40000E94A11B0E943A16C8010E94DB158AED52
:103C500093E00E94DB150E94DB1486E00E94A11B0A
:103C60000E943A16C8010E94DB158FED93E00E9476
:103C7000DB150E94DB141F910F91089587E090E0FF
:103C80000E944726482F8695869590E09C012170DA
:103C9000307080FD07C0842F82958F7080FF0DC02B
:103CA00081E008C0222349F0842F82958F7080FD27
:103CB00004C082E08093960202C0109296028CE7C4
:103CC00090E00E9484140895809198020895409194
:103CD000980281E048274093980287E090E063E0F3
:103CE0000E94641A089587E090E063E00E94561AEB
:103CF0008093980283E890E00E94841408951F93B3
:103D0000182F8932B9F480919802882399F066239C
:103D100051F00E947713823011F0803259F481E023
:103D20008093970206C080919702882319F0109221
:103D3000970215E3812F1F91089587E095E00E9477
:103D4000DB1588EC93E00E94DB158AEC93E00E947F
:103D5000DB1588EC93E00E94DB15809198028823A4
:103D600019F08CEC93E002C08FEC93E00E94DB151D
:103D70000895813051F487E00E9492140E94671EDA
:103D80000E949D1E0E94DB140895833031F484E666
:103D90000E9492140E94AA140895863019F48EE6A7
:103DA0000E94921408950E949D1E08950F931F93E0
:103DB0000E949D1E0E94DB1481E00E94A11B0E94B4
:103DC0003A160AEC13E0C8010E94DB1583ED93E07C
:103DD0000E94231683E00E94A11B0E943A16C8018C
:103DE0000E94DB158AED93E00E94231686E00E9474
:103DF000A11B0E943A16C8010E94DB158FED93E0CB
:103E00000E9423161F910F910895809199020895A1
:103E10004091990281E048274093990287E090E021
:103E200060E00E94641A089587E090E060E00E94DC
:103E3000561A8093990289E890E00E9484140895AC
:103E400080E195E00E94DB1588EC93E00E94DB1591
:103E50008AEC93E00E94DB1588EC93E00E94DB156E
:103E600080919902882319F08CEC93E002C08FECCA
:103E700093E00E94DB150895813051F487E00E94A1
:103E800092140E94081F0E94201F0E94DB140895B4
:103E9000833031F484E60E9492140E94AA1408959B
:103EA000863019F48EE60E94921408950E94201F15
:103EB00008950F931F930E94201F0E94DB1481E03E
:103EC0000E94A11B0E943A160AEC13E0C8010E944E
:103ED000DB1583ED93E00E94231683E00E94A11B73
:103EE0000E943A16C8010E94DB158AED93E00E94F9
:103EF000231686E00E94A11B0E943A16C8010E9468
:103F0000DB158FED93E00E9423161F910F9108950A
:103F100081E08093B002089581E080939D02109229
:103F20009E0280939A02089580919B02811181E004
:103F300008950F931F93162F0E948C12082F815003
:103F40008C3B08F057C080578A3108F453C081E099
:103F500080939B02802F8756112359F1883038F4C3
:103F600010919C02802F0E944314182B2BC0E7EA6B
:103F7000F2E001900020E9F73197E75AF240E6308D
:103F800008F038C0802F8D58823128F4E02FF0E0FF
:103F9000E953FD4F049187EA92E0602F0E947E1A58
:103FA0008F5F9F4F39F587EA92E0602F0E94CA1A0F
:103FB00021C0883050F410919C02802F0E9443143D
:103FC0008095182310939C0215C0802F8D58823144
:103FD00028F4E02FF0E0E953FD4F049187EA92E0E6
:103FE000602F0E947E1ABC0197FD04C087EA92E010
:103FF0000E94981A1F910F9108950F931F93182FE5
:10400000082F01576623E9F061E00E94991F0A31E9
:1040100060F521E020939F02E12FF0E0EE0FFF1FFB
:10402000E25CFD4F859194919093A1028093A00250
:104030000330D8F42093A2029093A4028093A302A9
:1040400014C060E00E94991F0A3178F481E08093E7
:104050009F021092A1021092A002033030F48093CC
:10406000A2021092A4021092A30281E01F910F916C
:1040700008952F923F924F925F926F927F928F920C
:104080009F92AF92BF92CF92DF92EF92FF920F93E7
:104090001F93DF93CF9300D00F92CDB7DEB782B3DB
:1040A000837F82BB81B3837F81BB0E9477218B9A00
:1040B00020E048EB5BE0CA010197F1F72150D9F706
:1040C0008B988FE890E00E942F1081E990E00E9489
:1040D000E42286E0E7EAF2E0DF011D928A95E9F743
:1040E00010929C021092A1021092A0027894DD24FA
:1040F000EE24FF2459EC252E312C2E010894411C6E
:10410000511C45EB842E42E0942E38E0C32E27EA62
:10411000A22E22E0B22E92E0692E712C680C791C3E
:1041200080912F03882351F010922F0310929A024E
:104130000E947514DD24EE24FF2424C080919A028D
:10414000882339F0B1E0B0932F030E947514DD2469
:1041500019C0DD20B9F487010F5F1F4FE1E1EE16B2
:10416000E7E2FE0674F00E947713882351F40E9460
:104170006D13882331F40E944D147801DD24D3940B
:1041800001C078010E9488218091200384FF59C0DA
:1041900080919F02882331F48091A202882311F438
:1041A0000E94AF110E944E1C80919B02882321F136
:1041B0008091B002882309F4B3CFD401EC2D1D9275
:1041C000EA95E9F780919C028093B5021092B602BD
:1041D000F50101900020E9F73197E75AF240C30159
:1041E000B501AF010E945D2585EB92E068E00E9479
:1041F000CE2210929B0225C080919D028130A1F4B5
:10420000F2E0F0939D02D401EC2D1D92EA95E9F7BE
:1042100085EB92E068E00E94CE220E94250A809100
:10422000D500882371F00BC080919E02823049F442
:10423000F3E0F0939E028091D500882311F40E9450
:104240002F1A80914C0384FF24C080919F02882301
:1042500071F08091A0029091A10221E029839B83BB
:104260008A83C20163E00E94C92210929F0280915A
:10427000A202882371F08091A3029091A402A2E08F
:10428000A9839B838A83C20163E00E94C9221092A2
:10429000A20280919D02823009F042CF8091A50256
:1042A0009091A6029C012F5F3F4F3093A60220936E
:1042B000A502883C910519F40E94802331CF293C46
:1042C00031050CF42DCF3092A6022092A502B3E066
:1042D000B0939D0225CF0E9479040E9484058091AD
:1042E0009E02882319F482E080939E02089585B788
:1042F000886085BF8BB780688BBF8BE48093210378
:1043000080934D038AE58093200380934C030895A6
:104310001F93CF93DF9360913203635067FDBDC05D
:1043200080912E03CCE0D0E0C81BD109CA5CDC4FE1
:1043300080912D038D3209F09DC0683009F0ABC02B
:1043400083EC809315038AE5809393001092AD026D
:104350008881807629F0CE010E948B0A282F77C0B1
:104360009A8110921E038981882321F410921F03E1
:1043700022E066C0853019F49093330360C0863024
:1043800009F047C08B81813059F489B78B7F89BF91
:1043900088E495E0909331038093300322E135C0A7
:1043A000823019F18330F9F48A81882341F488E15D
:1043B00095E0909331038093300324E026C0813050
:1043C00041F48CE195E090933103809330032CE12C
:1043D0001CC08230C9F488E395E090933103809348
:1043E000300320E112C0813229F4CE010E94430A39
:1043F000282F0BC0823241F4CE010E94430A282F9D
:1044000089B7846089BF01C020E080E48093AD0259
:104410001EC0883021F421E085E393E013C0893089
:1044200019F4909335030BC08A3011F421E008C0D1
:104430008B3029F48BE48093210380934D0320E09B
:104440008EE193E0909331038093300309C02F3FB6
:1044500039F4888187FD2E8180E88093AD0206C003
:104460008F81882319F48E81821708F0822F809320
:10447000940011C08091AD0287FF0DC0CE010E9453
:104480007D0A8F3F21F48EE18093930004C088233E
:1044900011F010929400109232038091930084FFE7
:1044A00046C0809194008F3F09F441C0182F893095
:1044B00008F018E0811B809394008091150398E820
:1044C000892780931503112321F120913003309126
:1044D00031038091AD0286FF0AC0912FF901A6E158
:1044E000B3E084918D9331969150D9F708C0912F04
:1044F000D901E6E1F3E08D9181939150E1F7C90193
:1045000001961150810F911D1F5F9093310380938D
:10451000300386E193E0612F0E94ED02612F6C5F12
:104520006C3019F08FEF809394006093930094E1C6
:1045300080B38C7031F49150D9F7109233031092FC
:104540002C03DF91CF911F9108951F93CF93DF9399
:10455000DC01162FEA01888184FF05C0898198E873
:104560008927898302C08AE58883AE014E5F5F4F49
:10457000212FFA018D91819321501216DCF3CA018B
:10458000612F0E94ED021C5F1883DF91CF911F9174
:1045900008954CE453E00E94A522089540E253E0C0
:1045A0000E94A52208958D98959A08958D9A9598C0
:1045B00008959C0180919500882311F0833011F4B7
:1045C00035952795C90108959093B2028093B10261
:1045D0000895E091B102F091B2020190F081E02DD6
:1045E00009950895CF92DF92EF92FF920F931F9358
:1045F000CF93DF930E94340A0E94250A84E18A95B2
:10460000F1F710E00E946909882319F41F5F143143
:10461000C9F70E9424098C01EE2491E0C92ED12C07
:10462000F8018081882349F1C0E0D0E096010C2E8A
:1046300002C0220F331F0A94E2F7F801808182231F
:10464000C1F080E06E2D4C2F0E94CC13F82E8C2FE1
:104650006E2D0E94E30A882319F4FBE2FF1621F471
:1046600081E00E94491C05C080E1F81611F40E9407
:10467000A6142196C830D105C9F6E3940F5F1F4FE9
:10468000E1E1EE1669F60E945B090E942C0982E0C6
:10469000809395000E946B120E943F1A0E94141F83
:1046A0000E943E1E0E94731E0E947A13F8940E947C
:1046B0007F041092AF021092AE021092B0020E94DC
:1046C000340A10E0812F0E94C20C1F5F1730D1F70F
:1046D00089B78E7F89BF89B78B7F89BF89B78F7B69
:1046E00089BF8D98959A0E94392081E090E0DF91F2
:1046F000CF911F910F91FF90EF90DF90CF90089591
:104700000E9470040E942C060E9424100895ABE0C1
:10471000B0E0EDE8F3E20C9412255C014B017A0164
:10472000FC0117821682838181FD08C06FEF7FEF45
:1047300008C142E050E0E40EF51E04C03E010894BA
:10474000611C711CF501D380F401D3FC8591D3FE6B
:1047500081914F01882309F4F1C0853259F4D3FCCB
:104760006591D3FE61914F01653219F0062F10E07B
:104770001BC085E290E02BC0002309F4DFC081E676
:1047800095E0602F70E00E944525892B39F40332B3
:1047900011F4106103C00C3661F41068F401D3FC0D
:1047A0000591D3FE01914F0117FFE6CF002309F4D5
:1047B000C5C08AE595E0602F70E00E944525892BF1
:1047C00051F044E050E0E40EF51E8FE390E0B501B7
:1047D0000E949925B7CF033629F0033779F00335C6
:1047E000F1F40BC087010E5F1F4FF70180819181AB
:1047F000B5010E9499257801A5CF1160F701C0800D
:10480000D18004C090E0B5010E949925F60110FD09
:10481000859110FF81916F018823A1F78ACF04361B
:1048200011F0093639F517FF08C0F70120813181F1
:104830004281538184E090E00AC0F7018081918138
:104840009C01442737FD4095542F82E090E0E80E0C
:10485000F91E1F7E57FF08C0509540953095219551
:104860003F4F4F4F5F4F1064CA01B901A3012AE0C7
:1048700030E034C00037A9F0013730F40835B1F02A
:104880000F3609F05BC006C0053739F0083709F06C
:1048900055C008C028E030E00CC01F7E2AE030E0A0
:1048A00008C01061146220E130E003C0146020E110
:1048B00032E017FF08C0F701608171818281938126
:1048C00044E050E008C0F70180819181BC0180E0A4
:1048D00090E042E050E0E40EF51EA3010E94E925BD
:1048E000D82ED618012F10E006FF05C08DE290E00B
:1048F000B5010E94992504FF15C0FE01ED0DF11DC3
:104900008081803379F080E390E0B5010E949925A1
:1049100002FF08C000721070C801885A9F4FB5018D
:104920000E949925DA94F301ED0DF11D808190E04C
:10493000B5010E949925DD20A9F704CFF501668114
:104940007781CB012B96EEE00C942E25629FD0014F
:10495000739FF001829FE00DF11D649FE00DF11D3A
:10496000929FF00D839FF00D749FF00D659FF00DE9
:104970009927729FB00DE11DF91F639FB00DE11DD6
:10498000F91FBD01CF0111240895AA1BBB1B51E1E2
:1049900007C0AA1FBB1FA617B70710F0A61BB70BAF
:1049A000881F991F5A95A9F780959095BC01CD0154
:1049B000089597FB092E07260AD077FD04D0E5DF7E
:1049C00006D000201AF4709561957F4F0895F6F790
:1049D000909581959F4F0895A1E21A2EAA1BBB1BAB
:1049E000FD010DC0AA1FBB1FEE1FFF1FA217B307BB
:1049F000E407F50720F0A21BB30BE40BF50B661FD1
:104A0000771F881F991F1A9469F760957095809594
:104A100090959B01AC01BD01CF0108952F923F926B
:104A20004F925F926F927F928F929F92AF92BF92BE
:104A3000CF92DF92EF92FF920F931F93CF93DF936A
:104A4000CDB7DEB7CA1BDB0B0FB6F894DEBF0FBEC7
:104A5000CDBF09942A88398848885F846E847D8414
:104A60008C849B84AA84B984C884DF80EE80FD8016
:104A70000C811B81AA81B981CE0FD11D0FB6F8948C
:104A8000DEBF0FBECDBFED010895FC0105900616F7
:104A900021F00020D9F7C00108953197CF01089582
:104AA000FC014150504030F001900616D1F731978B
:104AB000CF010895882799270895FB01DC0102C0E2
:104AC00001900D9241505040D8F70895681779072A
:104AD00068F4FB01DC01E40FF51FA40FB51F02C051
:104AE00002900E9241505040D8F708950C945D25E5
:104AF000FB019F01E8944230C4F04532B4F44A30DF
:104B000029F497FB1EF4909581959F4F642F77278A
:104B10000E94C524805D8A330CF0895D8193CB01AE
:104B20000097A1F716F45DE251931082C9010C942D
:104B30005C260F931F93CF93DF938C01EB018B8146
:104B400081FF1BC082FF0DC02E813F818C819D8122
:104B50002817390764F4E881F9810193F983E88320
:104B600006C0E885F985802F0995892B31F48E815F
:104B70009F8101969F838E8302C00FEF1FEFC801B4
:104B8000DF91CF911F910F910895AEE0B0E0EBEC73
:104B9000F5E20C941C250D891E8986E08C831A830E
:104BA00009838FEF9FE79E838D839E01275E3F4F92
:104BB000CE0101966F89788DA9010E9487232F81EC
:104BC0003885020F131FF80110822E96E4E00C9432
:104BD0003825FA01AA27283051F1203181F1E894D3
:104BE0006F936E7F6E5F7F4F8F4F9F4FAF4FB1E0E0
:104BF0003ED0B4E03CD0670F781F891F9A1FA11DDB
:104C0000680F791F8A1F911DA11D6A0F711D811DDB
:104C1000911DA11D20D009F468943F912AE0269FA0
:104C200011243019305D3193DEF6CF010895462FFF
:104C30004770405D4193B3E00FD0C9F7F6CF462FE0
:104C40004F70405D4A3318F0495D31FD4052419349
:104C500002D0A9F7EACFB4E0A69597958795779506
:104C60006795BA95C9F700976105710508959B018D
:104C7000AC010A2E06945795479537952795BA9516
:104C8000C9F7620F731F841F951FA01D0895E19936
:104C9000FECF9FBB8EBBE09A99278DB30895262F38
:104CA000E199FECF9FBB8EBB2DBB0FB6F894E29A65
:104CB000E19A0FBE01960895DC01FC01672F719106
:104CC0007723E1F7329704C07C916D9370836291F2
:0C4CD000AE17BF07C8F30895F894FFCF9B
:104CDC00FF01010101FF256300271E1F2021222354
:104CEC0024252629C4092D002C003D00EA1DED1DAC
:104CFC00AC1DFFD31ED61EB91E561F591F3C1FFDDF
:064D0C001F941F5AFFFF77
:00000001FF
