:100000000C9483030C94A0030C94BB030C94A003E6
:100010000C9405140C9411130C94D8130C947E13A7
:100020000C94AB130C94E4120C9451130C94911295
:100030000C94A0030C94A0030C94A0030C94A003B4
:100040000C94A0030C94A0030C94A0030C94A003A4
:100050000C94A0038D227922A9227D227F22812265
:100060008522A72289228B2287229522AF228F22E6
:10007000B322B722C022B922B922B922B922B922A9
:10008000B922B922B922B922A522A322B1229322F0
:10009000B522BB227B22B922B922B922B922B922C8
:1000A000B922B922B922B922B922B922B922B92278
:1000B000B922B922B922B922B922B922B922B92268
:1000C000B922B922B922B922B92297229F229B22B2
:1000D00083229122AB22B922B922B922B922B922B4
:1000E000B922B922B922B922B922B922B922B92238
:1000F000B922B922B922B922B922B922B922B92228
:10010000B922B922B922B922B9229922A1229D226B
:10011000AD2205010906A101050719E029E715002F
:1001200025019508750181029501750881039505E2
:1001300075010508190129059102950175039103BF
:100140000507190029FF95067508150026FF00818F
:1001500000C005010902A10185030901A1000509EB
:100160001901290515002501750195058102750301
:10017000950181030501093009311581257F750835
:100180009502810609381581257F350045007508DF
:1001900095018106050C0A38021581257F750895A1
:1001A000018106C0C005010980A101850215012554
:1001B000B7190129B7751095018100C0050C090117
:1001C000A10185011501269C0219012A9C027510C6
:1001D00095018100C009023B0002010080FA090478
:1001E000000001030101000921010100012240007A
:1001F0000705810308000A0904010001030000004B
:100200000921010100012283000705830308000A78
:10021000000001000800400000010004000001008F
:10022000080020004000800000010004FEFEF8F8F5
:100230006C6C68686D6D69696B6B6767FEF8F6F6E4
:10024000F6FEF8F68E8D8E8D8E8D8E8D8E8D8E8D2A
:100250008E8D8E8D39398E8D39656565010101016F
:100260000101010101010101010101010000010180
:1002700000010101FEF8F6FB010204081020408095
:100280000000FC001C322123242B3433433B424B1F
:100290003A31444D152D1B2C3C2A1D22351A161EB1
:1002A00026252E363D3E46455A76660D294E555436
:1002B0005B5D5D4C520E41494A580506040C030B28
:1002C000830A010978077C7E7C706C7D71697A7481
:1002D0006B7275774A7C7B795A69727A6B73746C2E
:1002E000757D7071612F001412111F1459112700B0
:1002F00000373F5E48103A38302820184D153B34FF
:10030000233221502B404B1C43221D0000F1F237B9
:100310000F08101820283038404850575F6D0000F3
:100320008100820083008A01210223022402250227
:10033000260227022A02B500B600B700CD00E2006F
:10034000E900EA008301920194010000000000002E
:10035000000000009190666768696A6B6C6D6E6F53
:10036000707172738586464800488E8D0071727375
:100370008F006A6B6E6D6546494A4B4C4D4E52502C
:100380004F5154587172737475767778797A7B7C93
:100390007D7E7F808182838485868788898A8F009D
:1003A000494C4A4D4B4E6A6E65504F52515400397C
:1003B00053470073656C656374206D6F64650067F7
:1003C0006F6F64206279650020003A006F6E006FE5
:1003D000666600746F67676C6500657869740062B3
:1003E00061636B006D6163726F00626F6F74206D8B
:1003F000617070657200737461727400313A736574
:100400006C656374206D6163726F20696E646578DA
:1004100000323A636C656172206D6163726F0039FE
:100420003A636C65617220616C6C006B6579206D5C
:10043000617070657200313A6368616E6765206C47
:100440006179657200323A73656C656374206B651F
:1004500079202D20696E707574206B6579636F64E7
:100460006500333A7361766520616E642065786952
:100470007400343A6578697420776974686F7574AC
:1004800020736176696E6700393A7265736574200E
:10049000746F2064656661756C7420286375727270
:1004A000656E74206C61796572290063686F6F7383
:1004B00065206C617965722028313A206E6F726D0B
:1004C000616C2C20323A20464E2C20333A20464E86
:1004D00032292063757272656E743D200073656CFD
:1004E000656374206B65792028616E79206B65796E
:1004F00020796F752077616E74292000696E7075A0
:1005000074206B6579636F646520286D7573742042
:1005100033206E756D626572732C20636C65617239
:100520003A30303029203A20007361766520262049
:10053000657869742C207468616E6B20796F752EF4
:10054000006578697420776974686F7574207361C9
:1005500076696E672C2073656520796F75206C61F4
:100560007465722E00726573657420746F20646503
:100570006661756C742063757272656E74206C614F
:1005800079657200736176652063757272656E7449
:10059000206C61796572006C6F61642063757272A2
:1005A000656E74206C6179657200636F6C2C2072CB
:1005B0006F77203A2000736176696E672E2E2E00C9
:1005C00068656C6C6F003E3E20006E6F7468696EEB
:1005D0006700696E707574206D6163726F20696E5B
:1005E000646578202830317E31322C2063616E635F
:1005F000656C3A2030302C206D7573742032206E7B
:10060000756D6265727329203A200073656C6563AD
:100610007420696E646578202830317E31322C2058
:1006200063616E63656C3A20303029203A2000699E
:100630006E707574206B657920286D617820323476
:10064000206B6579732C2073746F70203A20707260
:100650006573732045534320647572696E6720315A
:10066000207365632900696E76616C6964206E751C
:100670006D6265722C20696E7075742061676169A6
:100680006E2E00636C6561722E2E2E00666E322F08
:1006900033206C6564006E6C00736C0065736320BE
:1006A000746F207E006C617A7920666E0004030905
:1006B000041C03770069006E006B00650079006C14
:1006C000006500730073002E006B00720010037051
:1006D00000730032006100760072005500120110B4
:1006E0000100000008A0201C420701010200014592
:1006F000464765666700202B2D2E30313233343566
:1007000036373839680011241FBECFE5D8E0DEBF88
:10071000CDBF10E0A0E6B0E0EAEBFCE502C005903A
:100720000D92A23CB107D9F715E0A2ECB0E001C0F0
:100730001D92A63AB107E1F70E94602A0C945B2E45
:100740000C940000A82FB92F80E090E041E050EA1F
:10075000609530E009C02D9182279795879510F01C
:1007600084279527305EC8F36F5FA8F30895EADF0A
:100770008D939D930895CF93CFB7CF93C395839BCC
:10078000E9F7839B0EC0839B0CC0839B0AC0839BAD
:1007900008C0839B06C0C0917D05C395C0937D05AD
:1007A000A3C0DF93C0917C05DD27CC57DA4F839B34
:1007B00002C0DF91E6CF2F930F931F9300B32FEF6B
:1007C00003FB20F94F933F9310B34FEF012703FB37
:1007D00021F93BE031C04E7F012F10B3216028C0CA
:1007E000102F4D7F2260000000B329C04B7F246092
:1007F000012F000010B32BC010B3477F28602AC020
:100800004F7E00B320612CC04F7D10B320622FC0FB
:100810004F7B00B3206432C0422700B349934FEFAF
:100820000000102713FB20F910B31C70C9F1297FB9
:1008300091F2012703FB21F900B3237F89F23150A4
:1008400058F1102713FB22F910B3277E79F2012704
:1008500003FB23F92F7C81F200B3102713FB24F94B
:100860002F7971F200C010B3012703FB25F92F7314
:1008700059F200C000B3102713FB26F9223040F2D2
:1008800000C010B3012703FB27F9243028F64F7767
:10089000206810B30000F9CF10E81ABF002719C074
:1008A0003B503195C31BD04010E81ABF0881033C70
:1008B000F9F00B34E9F020917A051981110F121328
:1008C000EDCF4A81441F093641F10D3211F0013E4E
:1008D00029F7009382053F914F911F910F912F911E
:1008E000DF91CAB7C7FD4ACFCF91CFBFCF9118953F
:1008F00020918205222379F3109180051123C1F5FF
:100900003430C2F13093800520937B0510917C0533
:100910003BE0311B30937C052DC0009180050130F8
:100920003CF50AE54F7049F43091BE0034FD24C017
:100930000093BE00C3E6D5E023C0433049F03091B8
:100940006E0534FD19C000936E05CFE6D5E018C0E2
:1009500030919A0534FD10C000939A05CBE9D5E09B
:100960000FC02795A8F45150A9F4220F0000F9CF29
:100970004AE503C042ED01C0432FC4E1D0E032E0BC
:1009800011B31C60939A11BB02B320E41CE05F9387
:10099000012756E002BB279520F4515021F4220F85
:1009A000F9CF012756E000003B5A02BBD0F2279551
:1009B00028F4515029F4220F0000F9CF012756E006
:1009C000279502BB20F4515021F4220FF9CF0127C3
:1009D00056E02991332302BB21F6037F1091810554
:1009E000110FC651D04002BB11F010937A0510E8E8
:1009F0001ABF086011B3137F402F437F5F9100C07F
:100A000000C002BB11BB42BB66CF982FFA01D901CF
:100A10008091D2008923E081882341F0E92379F491
:100A2000662311F485E007C084E005C0E92339F0AE
:100A3000662319F483E08C93089582E08C930895E3
:100A4000662361F0813011F4909A0895823011F498
:100A5000919A0895843069F4969A0895813011F43A
:100A600090980895823011F491980895843009F493
:100A70009698089581B3836181BB82B38C7E82BBDB
:100A80008E9A969808958093D20008958091D2000E
:100A900008951092C20008952091600030E0AC01EA
:100AA000429FC001439F900D529F900D11246FEF04
:100AB00070E00E94992CCB0108950E948E12089537
:100AC0009091C600992319F480E090E010C0913015
:100AD00049F41092CC001092CB001092CA001092F0
:100AE000C9000895923031F48091600090E00E9436
:100AF0008E120895892F83508230A0F483E0809372
:100B0000D000943019F481E08093D0008091D0001F
:100B10009FEF899FC00111246CE070E00E94992C26
:100B20006093CF0008951092C3000E94600508955D
:100B3000809160008E31A1F08951809360008E31E8
:100B400018F48EE1809360008091C600823011F429
:100B50000E94600581E090E09093C5008093C400FE
:100B60000895809160008F3FA9F090E049968F3FF3
:100B7000910511F00CF08FEF809360008091C6001A
:100B8000823011F40E94600581E090E09093C500EE
:100B90008093C400089590989198969880E090E092
:100BA0000E948E129498089581E08093C30080E0A3
:100BB00090E00E948E12949808952223E9F10E94F9
:100BC0000F198823C9F58091C3008823A9F5809166
:100BD000C6008330C1F484EF91E09093CE008093FF
:100BE000CD008091D0008C3038F58F5F8093D0009D
:100BF0009FEF899FC00111246CE070E00E94992C46
:100C00006093CF0008958430B9F484EF91E090931D
:100C1000CE008093CD008091D000882369F0815070
:100C20008093D0009FEF899FC00111246CE070E099
:100C30000E94992C6093CF0008950E940F19882379
:100C400091F48091C60090E0019665E070E00E940A
:100C5000992C8093C60081E090E09093C50080932A
:100C6000C4000E9460050895662311F0893311F0D5
:100C70008D3F21F481E00E941D0605C08A3F29F4C2
:100C800081E00E94B10580E00895893F11F081E084
:100C9000089581E00E94980580E008950E947F23D6
:100CA000813069F40E947C2360E0811161E081E081
:100CB00043ED50E021ED30E00E94050507C0809132
:100CC000D20080FF02C0909A01C090988091D2001B
:100CD00081FF02C0919A01C091980E947F238230C7
:100CE00069F40E947C2360E0811161E084E043EDBF
:100CF00050E021ED30E00E94050507C08091D20050
:100D000082FF02C0969A01C096988091D20080938B
:100D1000D30008951092C3000E944E060E94600501
:100D200008952091D100222309F442C08091D60079
:100D30009091D70001969093D7008093D600853686
:100D40009105D4F1253011F0233029F40E947F233E
:100D50008130F1F422C0243011F0223041F40E949D
:100D60007F23813011F4909819C0969817C00E9483
:100D70007F23813029F40E947C23882371F40EC0E4
:100D80000E947F23823031F40E947C23882331F03B
:100D9000969A04C08091D20080FD909A1092D7005C
:100DA0001092D6008091D10081508093D100089597
:100DB0001092D7001092D600089589E090E00E942A
:100DC000362E809360008093C8008BE090E00E94F4
:100DD000362E8093C600853010F01092C6008091A8
:100DE000C6008093C7000E94600508958091C200EC
:100DF000882361F481E08093C2000E94F31088E0B0
:100E00000E9431120E9476120E94DD060895CF934F
:100E1000DF93EC010E947F23813029F40E947C2320
:100E2000882339F004C08091D20080FF02C09098DE
:100E300001C0909A8091D20081FF02C0919801C0B8
:100E4000919ACE010E946E210E947F23813029F465
:100E50000E947C23882339F004C08091D20080FF57
:100E600002C0909A01C090988091D20081FF02C088
:100E7000919A01C09198DF91CF9108950E944A23E1
:100E80008823A1F481E0809361000895909161002E
:100E9000913011F4919801C0919A1092D50010925E
:100EA000D40081E098279093610008958091D40048
:100EB0009091D50001969093D5008093D4008558E9
:100EC000934024F708958091C200882309F424C137
:100ED0000E940F19882309F01FC10E943E070E943B
:100EE00091068091C4009091C5001816190644F52A
:100EF00001969093C5008093C400885E934001F5ED
:100F00001092C5001092C4006091C6008091C70085
:100F1000681731F06093C7008BE090E00E943E2E8E
:100F2000609160008091C800861731F06093C8001E
:100F300089E090E00E943E2E82E390E00E94070745
:100F40008091C300882309F0E7C08091C6008130FA
:100F500009F059C08091C9009091CA00009761F4CE
:100F60008091CB009091CC0068E070E00E94992CB9
:100F7000CB010E944C0513C082309105A1F48091F1
:100F8000CB009091CC0068E070E00E94992CCB01DE
:100F9000909581959F4F81509F4F0E944C0590E006
:100FA0000E948E120EC08130910511F0039749F412
:100FB0008091CB009091CC0001969093CC008093CF
:100FC000CB008091CB009091CC00885F97408CF053
:100FD0001092CC001092CB008091C9009091CA0071
:100FE000019664E070E00E94992C9093CA0080936F
:100FF000C9008091CB009091CC0001969093CC00D9
:101000008093CB0008958330D9F58091CD009091E5
:10101000CE001816190634F401979093CE008093F1
:10102000CD0028C02091CF002223F1F08091CB0089
:101030009091CC0001969093CC008093CB000897C0
:10104000CCF01092CC001092CB0021502093CF0016
:101050008FEF90E0821B91096BEE7FEF0E94992C3D
:10106000645F6093D00006C01092D0001092CC0054
:101070001092CB008091CF0090E00E944C053EC0C2
:10108000843009F03FC08091CD009091CE001816B9
:10109000190634F401979093CE008093CD0029C0B7
:1010A0002091CF002F3FF1F08091CB009091CC00A8
:1010B00001969093CC008093CB000897D4F01092C7
:1010C000CC001092CB002F5F2093CF008FEF90E0E9
:1010D000821B91096BEE7FEF0E94992C645F6093F5
:1010E000D00007C08CE08093D0001092CC0010920A
:1010F000CB008091CF0090E00E944C0590E00E94D0
:101100008E1208951092CC001092CB0083E090E0F4
:101110009093CA008093C900089580916200089559
:101120008091630008958091DA000895EF92FF9214
:101130001F93CF93DF9360E070E081E0E82EF12C05
:10114000FB01E451FF4F80818823D9F120E030E09A
:10115000C82FD0E0162F1F5FCE01022E02C095953A
:1011600087950A94E2F780FF27C0522F22C0CE0154
:10117000052E02C0959587950A94E2F780FF19C065
:10118000412FD701052E02C0AA0FBB1F0A94E2F718
:101190000EC0E42FF0E0E451FF4F808190E08A23FD
:1011A0009B231816190614F481E012C04F5F4131D9
:1011B00081F75F5F5830D8F22F5F3F4F28303105FD
:1011C00059F66F5F7F4F6131710509F0B9CF80E04B
:1011D000DF91CF911F91FF90EF900895809174045B
:1011E0009091750408958BED90E0089581E08093CF
:1011F0006200ECEEF0E08081882319F0109262002A
:1012000005C0319680E0ED3FF807A9F781E08093B3
:101210006300EBEDF0E08081882319F01092630009
:1012200005C0319680E0EC3EF807A9F78091620096
:10123000882341F40E940F18882331F48091DA004A
:10124000882311F41092D9000895ABEDB0E080919D
:101250007404909175049C01F90181E101900D9253
:101260008150E1F70895DF93CF930F92CDB7DEB7AA
:1012700019828CEE90E0BE016F5F7F4F0E94F70AEB
:101280008981882319F01092FE0007C08091FE002A
:10129000843618F48F5F8093FE009091FE00809159
:1012A000FD00981711F080E00EC00E949608882378
:1012B00019F08BED90E002C08CEE90E090937504F5
:1012C0008093740481E00F90CF91DF9108950E9484
:1012D000330908950E947C23882329F00E947C23EF
:1012E0008093D80008951092D8000895CF92DF928D
:1012F000FF920F931F93CF93DF938091D9008823A0
:1013000039F00E946A091092DA001091D9005EC08B
:101310000091740410917504FF2491E0C92ED12C22
:10132000F8018081882309F444C0C0E0D0E0960130
:101330000C2E02C0220F331F0A94E2F7F8018081BD
:10134000822391F18091D8006F2D4C2F0E94841838
:101350000E9420178E3F99F0883F11F412E010C0D0
:10136000863F11F413E00CC08B3FF1F48091D8005C
:101370008230D1F481E08093DA0010E027C011E0E0
:101380000E942626882351F080916300882321F44F
:101390008091DA008823C1F41093D9000E946A0971
:1013A00081E08093DA0012C02196C830D10509F09F
:1013B000BECFF3940F5F1F4FF1E1FF1609F0B0CFDE
:1013C0000E946A091092DA001091D800812FDF91F3
:1013D000CF911F910F91FF90DF90CF90089581E101
:1013E000EBEDF0E0DF01982F1D929A95E9F7ECEE16
:1013F000F0E0DF011D928A95E9F708950E94B90A8D
:1014000087E08093FD008AE08093FE008CEE90E000
:1014100090937504809374040895FC018381813254
:1014200061F08232D9F0823081F585ED91E09093C0
:101430007F0580937E058BE308958281882319F0D0
:10144000813019F503C087EE91E002C080E092E0A0
:1014500090937F0580937E0589E00895848195812E
:10146000009719F0019789F408C082E191E0909308
:101470007F0580937E0580E4089582E591E0909356
:101480007F0580937E0583E8089580E00895FC0140
:1014900080910001882329F0613019F480810E9435
:1014A000BC281092000181E008950F931F93CF9301
:1014B000DF93182F092F0E94A926C12FD02F8881D2
:1014C00080768032D1F58981813041F486E794E0DD
:1014D00090937F0580937E0588E030C0893071F459
:1014E0008A819B818050924041F58C819D81892B1E
:1014F00021F581E0809300018FEF20C0823019F444
:101500008091FF0014C08A3031F40E94AD268B8197
:101510008093FF0012C0833031F48B81882369F4FB
:10152000109264000BC08B3041F480916400809372
:101530007E0510927F0581E001C080E0DF91CF91B0
:101540001F910F91089528E088E190E00FB6F8947C
:10155000A89581BD0FBE21BDFFCF813011F090E075
:1015600006C090E0613009F091E081E09827892F72
:1015700008958FEF87BB88BB1ABA14BA8BBB85BBA3
:101580008F98979A089521E030E002C0220F331F10
:101590008A95E2F727BB209528BB84E18A95F1F76D
:1015A0000895282F883058F449B381E090E002C0B4
:1015B000880F991F2A95E2F74095482316C0682F97
:1015C00070E0803120F443B38FE090E003C040B37B
:1015D00087E190E0861B970B21E030E002C0220FEC
:1015E000331F8A95E2F740954223842F08955F9236
:1015F0006F927F928F929F92AF92BF92CF92DF9223
:10160000EF92FF920F931F93CF93DF93782EC92E03
:101610005B0100E010E091E0892E912C84E1582ECE
:10162000662463949401002E02C0220F331F0A9493
:10163000E2F727BB822F809588BB852D8A95F1F72D
:10164000472D5C2DCA01EC01FF24E22ED22ED0944E
:101650008F2D0E94D10A282F98818E2D892319F071
:10166000222329F008C0222331F09E2901C09D21A8
:101670009883F5016082F3942196F1E1FF1641F71A
:101680000F5F1F4F0830110569F6DF91CF911F9151
:101690000F91FF90EF90DF90CF90BF90AF909F9011
:1016A0008F907F906F905F90089580930201F894DF
:1016B00080917F048F7E80937F0480917F04886077
:1016C00080937F0478940895F89480917F048B7FB1
:1016D00080937F04789480910101089580917F0424
:1016E00090E096958795969587958170089580915D
:1016F0007F0490E034E0969587953A95E1F7817004
:1017000008958FEC82BF80917E04833000F58B9822
:10171000939A80917F0480FF23C0829BA3C0809115
:101720007E04813031F0813040F0823009F0F6C023
:1017300006C0839902C08DE096C082E094C080917B
:101740007F0483FFEBC093988B9A84E28CC08091D6
:101750007E048A3108F079C080917F0480FD08C042
:1017600080917F04816080937F048A98929A089583
:10177000829B76C080917E04873140F4803118F5D9
:101780008D3061F08F3009F055C00CC08831E1F127
:10179000883158F1893109F04DC049C080917F04EA
:1017A0008D7F4DC080917F048B7F80937F04839BCE
:1017B00005C080E88093010181E014C0109204010B
:1017C0001092010137C0809101018695809301013B
:1017D000839B30C0809101018068809301018091DA
:1017E00004018F5F8093040125C0839B05C0809115
:1017F00004018F5F809304018091040180FD1AC071
:1018000080917F04826010C0839905C080917F041D
:10181000826080937F0480917F0481FD0BC0939848
:101820008B9A80917F04846080937F0403C08B989F
:10183000939A6CC092988A9A80917F048E7F80934D
:101840007F0480917E048F5F0EC080917E048F3272
:1018500008F064C080917F0480FF10C0829906C0A8
:101860008B98939A81E080937E04089580917F0401
:101870008E7F80937F0492988A9A089580917F0446
:10188000816080937F048A98929A80917E048C3242
:1018900028F4853280F48432E1F507C08D3299F165
:1018A0008D32E8F08E32A9F531C08091020180932B
:1018B0000301109204018091030180FF08C08B98FE
:1018C000939A809104018F5F8093040102C09398E2
:1018D0008B9A809103018695809303011AC08091B1
:1018E000040180FF03C093988B9A02C08B98939A4F
:1018F00080917F04877F80937F0480917F04806143
:1019000080937F0406C08B98939A03C010927E0444
:10191000089580917E048F5F80937E0408951092D5
:101920007E0481E180937F048A98929A8B98939A9F
:101930000E94E21082E00E94231180E061E87BE0D7
:101940000E9459118FEC82BF0895282F8F3F31F4E8
:101950001092070181E080930C0108958E3F21F0E1
:101960008D3F29F41092070110920C010895809187
:101970000C01882351F080910701E82FF0E0E65236
:10198000FE4F20838F5F8093070180910801909123
:101990000901019668EC70E00E94992CFC0190937B
:1019A00009018093080180910A0190910B018E1723
:1019B0009F0759F4009719F487EC90E001C0019754
:1019C00090930901809308010895EF5EFE4F2083F4
:1019D000089540E020910A0130910B0180910801A7
:1019E000909109012817390709F041E0842F0895E3
:1019F000FF920F931F93F62E882309F49CC00E9438
:101A00002E17182F8D3B08F096C0A82FB0E0FD01CF
:101A1000E058FD4F0491FF2009F45CC08093D90188
:101A20001092E4011092E5011092E6011092E70194
:101A300010928204A851BE4F8C91F82E81FF2DC0C8
:101A4000163419F01834F1F50EC08FEF0E94A50C72
:101A500080EE0E94A50C82E10E94A50C80EE0E94FF
:101A6000A50C8CE727C08DEF0E94A50C81EE0E948B
:101A7000A50C84E10E94A50C87E70E94A50C81EECD
:101A80000E94A50C80EF0E94A50C84E10E94A50C89
:101A900080EF0E94A50C87E710C082FF02C0802F54
:101AA0000CC08FEF0E94A50CF0FE03C080EE0E94D8
:101AB000A50C802F0E94A50C8EEF0E94A50C8CEF28
:101AC0000E94A50CF5FE39C0173411F40E941918B4
:101AD0008BEF2EC08091D901811711F4109207016C
:101AE000E12FF0E0E851FE4F808181FF13C01634F2
:101AF00021F580EE0E94A50C80EF0E94A50C8CE7DA
:101B00000E94A50C80EE0E94A50C80EF0E94A50CFF
:101B100082E10BC082FD11C080FF03C080EE0E94F5
:101B2000A50C80EF0E94A50C802F0E94A50C8CEFC5
:101B30000E94A50C02C080E001C081E01F910F91BE
:101B4000FF90089580917104882339F481E0809397
:101B500071040E94482B0E94502108951F93162F54
:101B60008E3F11F0809381040E94550B10938204E4
:101B70001F9108958F929F92AF92BF92CF92DF9262
:101B8000EF92FF920F931F93CF93DF9388E08093A0
:101B900082040E948F0CE8EEF1E0119222E0E83816
:101BA000F207D9F726E633E006C0FC01E851FE4F04
:101BB000808182608083F901849190E02F5F3F4FA4
:101BC000009799F729E633E006C0FC01E851FE4F83
:101BD000808184608083F901849190E02F5F3F4F82
:101BE000009799F72DE633E006C0FC01E851FE4F5F
:101BF000808188608083F901849190E02F5F3F4F5E
:101C0000009799F722E733E006C0FC01E851FE4F48
:101C1000808181608083F901849190E02F5F3F4F44
:101C2000009799F720EA33E006C0FC01E851FE4F27
:101C3000808180618083F901849190E02F5F3F4F24
:101C4000009799F72FEA33E006C0FC01E851FE4FF8
:101C5000808180628083F901849190E02F5F3F4F03
:101C6000009799F710920B0110920A011092090146
:101C7000109208011092070110920D011092E401D8
:101C80001092E5011092E6011092E70186E090E0E3
:101C90000E94362E8F3F09F481E060910601662391
:101CA00019F48093060106C0681721F086E090E0E1
:101CB0000E943E2E85E690E00E94D11487E690E0D7
:101CC0000E94352A0E94EF09789499249394A5E004
:101CD000AA2EB12CC12CD12CF6E98F2ECCEFD0E05E
:101CE0008091C000882309F5809171048823E9F46C
:101CF00080916F049091700401969093700480938A
:101D00006F040197895E934084F081E08093C00066
:101D1000DF91CF911F910F91FF90EF90DF90CF90C7
:101D2000BF90AF909F908F90089580917F0481FF26
:101D300007C0F89480917F048D7F80937F0478940E
:101D40000E946E0B882309F402C180910E019091CC
:101D50000F018C3F910561F020910A0130910B0138
:101D600080910801909109012817390709F0EFC007
:101D70000E94640B8093880210921001609182048B
:101D8000623009F46BC0633018F4613039F460C01C
:101D9000663009F4C8C0673009F47BC0833F79F12D
:101DA000843F70F48E3ED1F08F3E20F48D3E09F0DA
:101DB000CAC022C0803FE9F0823F09F0C4C010C011
:101DC000863F39F1873F20F4843F09F0BCC01AC038
:101DD0008E3F61F08F3F09F0B6C005C08EEEB5C0F2
:101DE0008AEF64E0B2C08AEF68E0AFC080918104FE
:101DF000ACC08AEF62E0A9C08AEF66E0A6C08AEFB5
:101E000067E0A3C08AEF60E00E94AE0D0E94A20DC1
:101E10009EC090926900A0926A00B0926B00C0923E
:101E20006C00D0926D0010920B0110920A0110927A
:101E30000901109208011092070110920D011092F1
:101E4000E4011092E5011092E6011092E7017BC0D7
:101E5000853F09F478C08AEF61E077C010920B01EA
:101E600010920A01109209011092080110920701C4
:101E700010920D011092E4011092E5011092E6011A
:101E80001092E701882311F060E001C063E08AEF5F
:101E90005CC090E09C0120763070E5E03595279598
:101EA000EA95E1F7209369009C0127703070309328
:101EB0008A02209389028871907073E095958795C6
:101EC0007A95E1F790938C0280938B0241E050E089
:101ED00020E030E004C0440F551F2F5F3F4F28170C
:101EE0003907CCF340938F025093900230938E02C7
:101EF00020938D028091890290918A029C01429FD9
:101F0000C001439F900D529F900D1124AA2797FD69
:101F1000A095BA2F80936A0090936B00A0936C00F9
:101F2000B0936D0010C00E94A20D80918802982F7E
:101F300080E090FD84E091FD816092FD82600E94CE
:101F400043050E944E068AEF60E00E94AE0D0E949B
:101F5000770B882309F4C4CE80911001882309F0FF
:101F6000BFCE80918204843009F40DC1853030F4F5
:101F7000882371F0833009F0B3CE03C1883009F4AF
:101F800007C18C3009F480C0853009F0A9CEFEC0AD
:101F900020910A0130910B01809108019091090173
:101FA0002817390711F40E9451160E946F232091BF
:101FB0000A0130910B0180910801909109012817C5
:101FC000390711F480E00EC0C901019668EC70E099
:101FD0000E94992CFC0190930B0180930A01EF5E03
:101FE000FE4F8081282F30E030930F0120930E01A7
:101FF0002B3F310539F4D0930F01C0930E0190921D
:1020000010016ECE2C3F310509F46ACE232B21F04E
:1020100060E00E94AE0D5EC080910701882309F444
:102020005FCE2091E4013091E5014091E6015091AD
:10203000E7012F5F3F4F4F4F5F4F2093E4013093F5
:10204000E5014093E6015093E70180916900889D86
:10205000C00111248A519F4FAA2797FDA095BA2F3E
:10206000281739074A075B070CF43ACE1092E401AF
:102070001092E5011092E6011092E70110920D0115
:102080008CE0809382042CCE80910D01882311F482
:102090000E9451160E946F23809107018823C1F08E
:1020A00020910A0130910B01809108019091090162
:1020B0002817390769F48091E4019091E501A09116
:1020C000E601B091E7010197A105B10561F40FC0E8
:1020D000109282041092E4011092E5011092E60140
:1020E0001092E701FDCD80910D018823A9F0909118
:1020F0000D01E92FF0E0E652FE4F80819F5F909343
:102100000D016CE00E94AE0D6091070180910D0100
:102110000E948D2C90930D01E090E401F090E50178
:102120000091E6011091E7010894E11CF11C011DEA
:10213000111D60916A0070916B0080916C0090910C
:102140006D002AE030E040E050E00E946E2C6D5FB0
:102150007F4F8F4F9F4F2091060130E040E050E0CD
:102160000E946E2C9B01AC01C801B7010E94CE2CCD
:102170006093E4017093E5018093E6019093E70199
:10218000AFCD82E01AC08BEA65E018C083E815C0C5
:1021900010920B0110920A0110920901109208018D
:1021A0001092070110920D011092E4011092E501C6
:1021B0001092E6011092E7018AEA60E00E94AE0DFB
:1021C0008FCD089583B7887F826083BF12BE89B7A1
:1021D000816089BF10928304109284041092850458
:1021E0001092860408958EB5887F83608EBD1DBCD5
:1021F0001CBC89B7846089BF089585B5887F8460D9
:1022000085BD14BC89B7806489BF10928B0410927D
:102210008C0410928D0410928E04089580E090E05A
:10222000FC01EE0FFF1FEF56FD4F11821082019649
:1022300088309105A9F70E94E2100E94F3100E94D5
:10224000FD107894089593B7987F982B93BF0895C5
:102250009EB5987F982B9EBD089595B5987F982B35
:1022600095BD089583B7E82FF0E0E770F070EE0FAA
:10227000FF1FE05FFD4F25913491C90108958EB590
:10228000E82FF0E0E770F070EE0FFF1FE05FFD4F0A
:1022900025913491C901089585B5E82FF0E0E770E4
:1022A000F070EE0FFF1FE45EFD4F25913491C901E0
:1022B0000895883040F4E82FF0E0EE0FFF1FEF564E
:1022C000FD4F718360830895883040F4E82FF0E07B
:1022D000EE0FFF1FEF56FD4F118210820895AF924F
:1022E000BF92CF92DF92EF92FF920F931F93CF9303
:1022F000DF93EC0112B710928704109288041092B9
:10230000890410928A0483B7E82FF0E0E770F07038
:10231000EE0FFF1FE05FFD4F2591349140E050E04C
:1023200060E07BE187EB90E00E94AC2CB901CA0130
:10233000693B2DE8720726E0820720E09207A0F4AF
:1023400037E2C131D30780F49E0140E050E00E94A3
:102350006E2C28EE33E040E050E00E94AC2CC90126
:10236000DA01BC01CD010DC028EE33E040E050E0C1
:102370000E94AC2CCA01B9019E0140E050E00E94CD
:102380006E2CA72EB82EC92EDD249B01AC01210F87
:10239000311D411D511D79018A0117C080918704AB
:1023A00090918804A0918904B0918A048A159B05B4
:1023B000AC05BD0550F485B78F7885BF85B78068BB
:1023C00085BF889585B78F7785BF20918704309129
:1023D00088044091890450918A0482B790E0A0E07B
:1023E000B0E0542F432F322F2227822B932BA42B84
:1023F000B52B8E159F05A007B10780F2DF91CF9115
:102400001F910F91FF90EF90DF90CF90BF90AF9012
:1024100008951092830410928404109285041092FF
:1024200086040895209183043091840440918504AA
:1024300050918604B901CA01089510928B0410923C
:102440008C0410928D0410928E04089520918B04B8
:1024500030918C0440918D0450918E04B901CA01D1
:102460000895893031F48FB582608FBD8FB58E7F2E
:102470000AC08A3019F48FB5826002C08FB58D7F93
:102480008FBD8FB581608FBD1BBC1ABC19BC18BC39
:1024900008952FB52E7F2FBD2FB522602FBD2EB5ED
:1024A00028602EBD2EB520612EBD97BD86BD1BBCFC
:1024B0001ABC19BC18BC08958FB58D7F8FBD8FB520
:1024C0008E7F8FBD8FB58F778FBD8FB58F7B8FBD83
:1024D0008FB58F7D8FBD8FB58F7E8FBD08958FB5E2
:1024E00080688FBD8FB58F7B8FBD08958FB580625B
:1024F0008FBD8FB58F7E8FBD08958FB58F778FBDC0
:102500008FB58F7B8FBD08958FB58F7D8FBD8FB5B4
:102510008F7E8FBD08959BBD8ABD089599BD88BDEE
:1025200008951F920F920FB60F9211242F933F938D
:102530004F935F936F937F938F939F93AF93BF93CB
:10254000EF93FF938091830490918404A09185047C
:10255000B09186040196A11DB11D809383049093D0
:102560008404A0938504B09386048091870490919D
:102570008804A0918904B0918A040196A11DB11D1F
:102580008093870490938804A0938904B0938A046D
:102590008091910290919202892B29F0E091910211
:1025A000F09192020995FF91EF91BF91AF919F91A8
:1025B0008F917F916F915F914F913F912F910F90EC
:1025C0000FBE0F901F9018951F920F920FB60F928B
:1025D00011242F933F934F935F936F937F938F9328
:1025E0009F93AF93BF93EF93FF938091930290914A
:1025F0009402892B29F0E0919302F09194020995BD
:10260000FF91EF91BF91AF919F918F917F916F91CA
:102610005F914F913F912F910F900FBE0F901F90A0
:1026200018951F920F920FB60F9211242F933F937C
:102630004F935F936F937F938F939F93AF93BF93CA
:10264000EF93FF9380918B0490918C04A0918D0463
:10265000B0918E040196A11DB11D80938B049093BF
:102660008C04A0938D04B0938E0480919B02909172
:102670009C02892B29F0E0919B02F0919C02099524
:10268000FF91EF91BF91AF919F918F917F916F914A
:102690005F914F913F912F910F900FBE0F901F9020
:1026A00018951F920F920FB60F9211242F933F93FC
:1026B0004F935F936F937F938F939F93AF93BF934A
:1026C000EF93FF9380919F029091A002892B29F0B4
:1026D000E0919F02F091A0020995FF91EF91BF91C7
:1026E000AF919F918F917F916F915F914F913F91AA
:1026F0002F910F900FBE0F901F9018951F920F9261
:102700000FB60F9211242F933F934F935F936F93C4
:102710007F938F939F93AF93BF93EF93FF9380919A
:10272000950290919602892B29F0E0919502F09103
:1027300096020995FF91EF91BF91AF919F918F9173
:102740007F916F915F914F913F912F910F900FBEAD
:102750000F901F9018951F920F920FB60F92112491
:102760002F933F934F935F936F937F938F939F9399
:10277000AF93BF93EF93FF9380919702909198024C
:10278000892B29F0E0919702F09198020995FF9129
:10279000EF91BF91AF919F918F917F916F915F91D9
:1027A0004F913F912F910F900FBE0F901F90189552
:1027B0001F920F920FB60F9211242F933F934F93B6
:1027C0005F936F937F938F939F93AF93BF93EF9399
:1027D000FF938091990290919A02892B29F0E091C0
:1027E0009902F0919A020995FF91EF91BF91AF91F3
:1027F0009F918F917F916F915F914F913F912F9119
:102800000F900FBE0F901F9018951F920F920FB64A
:102810000F9211242F933F934F935F936F937F9366
:102820008F939F93AF93BF93EF93FF9380919D02FC
:1028300090919E02892B29F0E0919D02F0919E02D9
:102840000995FF91EF91BF91AF919F918F917F91EA
:102850006F915F914F913F912F910F900FBE0F900D
:102860001F90189586E084BD80918F04909190040C
:1028700001969093900480938F04089598EA899F1D
:10288000F0011124E050F849E49180E0E150EE3F7E
:1028900008F481E008958091A10208951092A102A8
:1028A00080E00E942D1108950F931F9310929004C1
:1028B00010928F041092A3021092A20208EA2091B3
:1028C000A4023091A502283A31051CF00E944E1452
:1028D00030C0E0916E00E09FA0011124C901019673
:1028E000240F351F20503849F90124910196909307
:1028F000A5028093A4020197480F591F40505849E0
:10290000FA011491822F81508E3F78F4822F0E9419
:10291000F721912F9F7799F28BE4989FC0011124A2
:102920009093A3028093A20204C00E944E140E94BE
:102930003B221F910F9108958091A102882369F095
:1029400020918F04309190048091A2029091A30273
:102950002817390714F00E9454140895982F809175
:10296000A102882391F481E08093A10290936E00EC
:102970001092A3021092A2021092A5021092A40239
:102980000E94541485B5836085BD08950E94FD1092
:1029900085E062E374E10E94591180E00E942D11EC
:1029A00008959093A9028093A80208950F931F930E
:1029B000182F062F662329F00E942E1761E00E942F
:1029C0002818E091A802F091A9020190F081E02D71
:1029D000812F602F09951F910F910895DF92EF923B
:1029E000FF920F931F93182F062FE42ED22E642FE1
:1029F000422F202F0E94D023F82E002329F01123EC
:102A000019F081E00E94D4170E946419882339F0DC
:102A1000812F6E2D4D2D202F0E94F31D16C0FF20FB
:102A2000A1F0002329F0812F0E948D1A882369F4D8
:102A3000812F602F0E94A025E091A802F091A902A9
:102A40000190F081E02D602F09951F910F91FF906B
:102A5000EF90DF900895EF92FF920F931F93F82E5F
:102A6000142FE22E6417C9F00E942E17612F0E94C6
:102A700028188F2D612F0E9482238F2D0E949E2364
:102A8000882359F0112319F08F2D61E002C08F2D9A
:102A900060E04E2D202F0E94EE141F910F91FF90A9
:102AA000EF9008952F923F924F925F926F927F9294
:102AB0008F929F92AF92BF92CF92DF92EF92FF924E
:102AC0000F931F93DF93CF9300D00F92CDB7DEB754
:102AD0000E946709882309F4CEC00E947609882ED7
:102AE0000E94EE083C010E94F3088983492E0E944F
:102AF0002626882329F08091A702882309F05AC04E
:102B00008091A602881509F455C0EE24FF2491E0B7
:102B1000292E312C3FC05A808091A602652D4B2D65
:102B20000E948418082F882D6A814B2D0E948418DA
:102B3000A82E0817F1F0802F0E94F9188823C9F4F5
:102B4000EA81FB81E60DF71D1081F6018081892164
:102B500039F0802F61E040E02B2D0A810E942B1577
:102B6000192139F08A2D60E041E02B2D052D0E94BE
:102B70002B158A819B8101969B838A830894C11CB3
:102B8000D11C419741F60894E11CF11C98E0E9162C
:102B9000F10481F0BE2CC1010E2C02C0880F991FD8
:102BA0000A94E2F7982E2981342DC9016C011B8209
:102BB0001A82B1CF8092A6020E9493088093A70246
:102BC0000E94EE08182F092F0E94F3086C01212F94
:102BD000302FC9017C01BB2481E0682E712CF601E5
:102BE0008081882321F4F70180818823A9F144247E
:102BF0005524942CC301042C02C0880F991F0A94F9
:102C0000E2F7F60110811823F70100810823882DCF
:102C10006B2D442D0E948418A82E0E944A238823DD
:102C200049F0101791F00023B9F08B2D642D0E940C
:102C30004D2312C060E0111161E040E0011141E05C
:102C40008A2D292D0B2D0E942B150894411C511CF7
:102C5000F8E04F16510469F6B3940894C11CD11CD6
:102C60000894E11CF11C81E1B81609F0B8CF0E946C
:102C700025090E94F6080F900F900F90CF91DF91D9
:102C80001F910F91FF90EF90DF90CF90BF90AF908A
:102C90009F908F907F906F905F904F903F902F907C
:102CA00008950F931F930E94D022882349F10E9418
:102CB0003E22882329F50E941323092F813051F4E5
:102CC000E091A802F091A9020190F081E02D892FF6
:102CD00061E015C0892F8756883040F40E9419188A
:102CE000182F802F0E940819182351F4E091A80290
:102CF000F091A9020190F081E02D802F60E009950C
:102D00000E9452151F910F910895982F8091AC0247
:102D100080FF0FC0993611F49AE60BC09A3611F471
:102D200099E607C09D3611F49EE603C09E3609F46D
:102D30009DE6892F08951F9381E00E940F18882334
:102D400009F067C00E941918182F80E00E940F1820
:102D5000982F112311F41092AB02992311F41092C1
:102D6000AA028091AB021817E1F08091AA0289179C
:102D7000C1F01C3031F0103C21F0183411F014383F
:102D800051F4983241F41092B1021092B00282E0F4
:102D90008093AD0202C01092AD021093AB029093EB
:102DA000AA024091AD024423B1F18091B00290910A
:102DB000B10201969093B1028093B0022091AE02CD
:102DC0003091AF022817390734F54230E1F482E33D
:102DD00090E00E9407078091AC0280FF04C08E7FC4
:102DE0008093AC0210C081608093AC0284EF91E0CC
:102DF0002CE231E0F9013197F1F70197D9F784E638
:102E000090E00E94070788E090E06091AC020E9489
:102E10003E2E1092AD021F91089588E090E00E942E
:102E2000362E8093AC028F3F11F41092AC0288E8EA
:102E300093E10E942A2A9093AF028093AE020895F4
:102E4000E82F865D883140F4F0E0EA5AFE4FE491C5
:102E50008E2F0E948118E82F8E2F0895982F809131
:102E6000B202882321F0892F0E942017982F892FE2
:102E70000895282F865D8831A8F4822F90E0865D22
:102E80009040FC01E45AFD4FE491EE2321F0822FA3
:102E90000E94201706C08C5B9D4FFC0184910E940C
:102EA0008118282F822F08951F93982F865D6623FF
:102EB00081F18831A8F48091B3028F5F8093B302CF
:102EC0008091B402882309F58091B5028823E9F442
:102ED0009093B60281E08093B4021092B20262C075
:102EE0008091B602882339F081E08093B20280910C
:102EF000B5028F5F55C08091B402882309F052C09B
:102F00008091B5028F5F8093B50281E08093B20219
:102F100049C0883108F03FC08091B302882319F07E
:102F200081508093B3021091B602112369F1809110
:102F3000B202882349F5812F865D883148F4E12F5C
:102F4000F0E0E259FE4FE4918E2F0E948118182F75
:102F5000812F0E94F721812F0E94F7211092B60243
:102F60001092B8021092B7020E948219882361F071
:102F7000812F60E040E021E00E94F31D812F60E09E
:102F800040E020E00E94F31D8091B302882351F4B9
:102F90001092B40207C08091B502882319F08150C5
:102FA0008093B5021F9108951F93182F9091B60238
:102FB0009923E9F08091B2028823C9F0892F0E94F9
:102FC0002017612F0E94D6140E948219882349F08D
:102FD0008091B6020E94201760E040E021E00E944C
:102FE000F31D1092B6021092B8021092B7021F9110
:102FF00008958091B602882389F08091B70290915C
:10300000B80201969093B8028093B702855F914011
:1030100028F081E08093B2020E94D4170895863090
:1030200010F080E00895E82FF0E0E754FD4F808134
:1030300008958091BF0208951092C0021092BF02BD
:1030400086E0E9EBF2E0DF011D928A95E9F7089549
:103050000F931F93082F8756662301F1883038F4A9
:103060001091BF02802F0E940819182B20C0809158
:10307000C002863080F50D3B70F589EB92E0602F41
:103080000E949F218F5F9F4F31F58091C002E82FF2
:10309000F0E0E754FD4F00838F5F1BC0883050F491
:1030A0001091BF02802F0E94081980951823109359
:1030B000BF0211C089EB92E0602F0E949F21BC01EA
:1030C00097FD09C089EB92E00E94B9218091C0026E
:1030D00081508093C0021F910F91089598E8899FB5
:1030E000F0011124E050FB4970E083E0660F771F88
:1030F0008A95E1F7E60FF71FE40FF11DE4918E2F9B
:1031000008950E9485160895EF92FF920F931F93E2
:10311000082FF62EE42E0E9464198823B9F10E942C
:103120008219882309F44BC0033010F010E011C05D
:1031300081E1089FC00111248F0D911D53E0880F7C
:10314000991F5A95E1F78E0D911D0D960E94362E0E
:10315000182F812F81508E3F90F0E8E80E9FF001EC
:103160001124E050FB498F2D90E043E0880F991F18
:103170004A95E1F7E80FF91FEE0DF11D1491812F2B
:103180000E947419882369F110E02BC0033010F0FD
:1031900010E011C081E1089FC00111248F0D911D25
:1031A00033E0880F991F3A95E1F78E0D911D0D962A
:1031B0000E94362E182F812F81508E3F90F0E8E824
:1031C0000E9FF0011124E050FB498F2D90E023E089
:1031D000880F991F2A95E1F7E80FF91FEE0DF11DF1
:1031E0001491812F0E9485161F910F91FF90EF90EF
:1031F0000895982FE4E7F2E08491981711F481E0A4
:103200000895319682E0E837F807B1F780E0089535
:10321000E82FF0E0EF5EFD4FE4918E2F089580914E
:10322000C10208958091C102882329F481E080932E
:10323000C1020E94CB0508958091C1028823C9F480
:103240008091C2029091C30201969093C302809331
:10325000C2028053954768F01092C3021092C202D6
:103260008091C4028F5F8093C4028A3011F40E945F
:10327000121908958091C102882321F01092C10291
:103280000E948A061092C3021092C2021092C402D7
:1032900008952091E802E22FF0E0EE0FFF1FE052C8
:1032A000FD4F918380832F5F2093E80208958093E0
:1032B000D30208958091CF02817008958091CF024A
:1032C00083608093CF0208958091CF028270089529
:1032D0008091D102089581E08093D10208951092E7
:1032E000CF021092D402089590E08D5B883108F4EB
:1032F00091E0892F089590E0895C8C3008F491E08A
:10330000892F089590E08091D3028B3009F491E0E9
:10331000892F08958091CB02089580E3E2E3F5E0E0
:10332000DF01982F1D929A95E9F710926205E2E964
:10333000F4E0DF011D928A95E9F71092CA02089520
:1033400088E20E94F72188E20E94F72108951F93E6
:10335000182F0E948D19109391048BE08093D30253
:103360008091CF0283608093CF0281E08093CB0273
:1033700084EF91E00E94070788EE93E02CE231E0B1
:10338000F9013197F1F70197D9F784EF91E00E94A5
:1033900007071F9108958091CF0281608093CF022B
:1033A00082E390E00E94070784EF91E02CE231E095
:1033B000F9013197F1F70197D9F782E390E00E9484
:1033C000070784EF91E02CE231E0F9013197F1F742
:1033D0000197D9F784E690E00E94070708951F93AC
:1033E000CF93DF93809191048C30C8F4C0E0D0E09B
:1033F00010E380919104819FC00111248B559E4F51
:10340000FE01EE5CFA4F8C0F9D1F60810E943E2EE4
:103410002196C033D10569F78FEF80939104DF9136
:10342000CF911F9108950E94EF198FEF809391041F
:103430001092D3021092CB021092CF021092D402BB
:1034400088EE93E00E94070708950F931F93CF9390
:10345000DF93982F8C30C0F480E3989FC001112433
:10346000EC01CB55DE4F8C010B521E4FCE010E945A
:10347000362E982F81508E3F18F4892F0E94F72105
:103480002196C017D10791F7DF91CF911F910F912E
:103490000895CF92DF92EF92FF920F931F93CF93F5
:1034A000DF939091DA0288E8989F700111248DE0F3
:1034B00090E0E80EF91ECC24DD2417C0CE018E0D5D
:1034C0009F1D0E94362EF80181938F012196C830EE
:1034D000D105A1F70894C11CD11C88E090E0E80E4A
:1034E000F91E91E1C916D10459F0860143E0000F9D
:1034F000111F4A95E1F706551B4FC0E0D0E0DECF23
:103500001092D9021092D802DF91CF911F910F91A2
:10351000FF90EF90DF90CF9008950F931F93182F97
:103520008091CF0280FD30C0012F0D5B083160F526
:103530000E94D0228823F9F4193C90F0195C80E3B2
:10354000189FC00111248B559E4F0E94362E81502A
:103550008E3FE0F40E94E122812F0E94251A16C0BE
:10356000802F0E943E14882389F00E94E122802F40
:103570000E94AE140BC00E943822882329F00E94BA
:103580000E230E943B2202C080E001C081E01F9117
:103590000F9108950F931F93FC0180810E944D228B
:1035A0008C01882319F088E60E94F721812F0E9460
:1035B000F721812F0E94F721002319F088E60E944D
:1035C000F7211F910F910895CF92DF92EF92FF9212
:1035D0000F931F93DF93CF930F92CDB7DEB78C017C
:1035E000009711F52FC000D000D000D0EDB7FEB786
:1035F0003196ADB7BEB71296FC92EE921197D38278
:10360000C282992787FD9095958384830E94B42D6B
:103610008DB79EB706960FB6F8949EBF0FBE8DBFAE
:10362000C7010E94CA1A08C07E010894E11CF11C5F
:103630005FE6C52E50E0D52EF8010F5F1F4F849135
:10364000882389F60F90CF91DF911F910F91FF9002
:10365000EF90DF90CF9008950E94E41A0E94A01985
:10366000089583E896E00E942C1B81E08093C902B4
:103670008CE08093D4021092D302089585E695E001
:103680000E942C1B22EB34E080E090E00BC01192F2
:10369000E217F307E1F701969F01285F3F4F813161
:1036A000910549F0FC0163E0EE0FFF1F6A95E1F719
:1036B000E655FB4FECCF81E090E09093D9028093E8
:1036C000D80208958091D8029091D902892B29F4CB
:1036D0001092CF021092D402089586EB95E00E94DA
:1036E0002C1B81E08093C9028BE08093D4028091EF
:1036F000D3028093D5021092D302089580EC95E016
:103700000E942C1B0895AF92BF92CF92DF92FF923E
:103710000F931F93DF93CF930F92CDB7DEB78C013A
:10372000FF246E010894C11CD11C7FE6A72E70E017
:10373000B72E25C000D000D000D0EDB7FEB731962F
:10374000ADB7BEB71296DC92CE921197B382A28229
:10375000800F911FDC018C91992787FD90959583AF
:1037600084830E94B42D8DB79EB706960FB6F89449
:103770009EBF0FBE8DBFC6010E94CA1AF3948F2D43
:1037800090E0F80101900020E9F73197E01BF10B80
:103790008E179F0778F20F90CF91DF911F910F91B5
:1037A000FF90DF90CF90BF90AF9008950F931F933D
:1037B0008B010E94831BC8010E94E41A1F910F9184
:1037C00008950F931F9384EE93E00E94E41A08EC8F
:1037D00013E0C8010E94E41A809191048F5F0E9457
:1037E000C222B8010E94D61B83E896E00E942C1BDF
:1037F00081E08093C9028DE08093D4021092D302BD
:103800001F910F9108950F931F930E94A01984EEAA
:1038100093E00E942C1B8CEF93E00E942C1B81E113
:1038200094E00E94E41A0E94A01983E00E94C22240
:103830000AEC13E0B8010E94D61B8AED93E00E94C7
:103840002C1B86E00E94C222B8010E94D61B8FED7D
:1038500093E00E942C1B8FE194E00E942C1B87E0D8
:103860008093D3021F910F9108951F930E94A01976
:1038700083EB93E00E942C1B81E00E94C2226AEC41
:1038800073E00E94D61B84EE93E00E942C1B82E022
:103890000E94C2226AEC73E00E94D61B8BE294E085
:1038A0000E942C1B10E01AC08091EA028F5F810FEA
:1038B0000E94C2226AEC73E00E94D61BE12FF0E066
:1038C000EE0FFF1FE052FD4F0190F081E02D0190BF
:1038D000F081E02D09950E94A0191F5F8091E802F8
:1038E000181710F381E08093C9028EE08093D40210
:1038F0001092D3021F91089583E0ECEDF2E0DF0116
:103900001D928A95E9F71092DF021092DA02109266
:10391000D2020E94351C089581E08093C9028091F3
:10392000D302893090F4873008F03FC0833089F1AA
:10393000843030F48130E1F0823009F05DC026C07F
:10394000853069F1863070F527C08D30B1F18E3049
:1039500030F4893079F18B3009F04EC031C08E36A9
:1039600009F448C0883789F1843609F045C037C06A
:103970008BEA94E00E94E41A8091DA028F5F0E9441
:10398000C2220E94831B0E94A01936C08DED94E0D4
:1039900019C08CEF94E00BC089E295E026C081E469
:1039A00095E023C01092C90227C086EC95E00E94E2
:1039B000E41A22C082ED95E0FACF8BE096E0F7CFD3
:1039C0008FE296E00E942C1B17C08AEE93E00E94C3
:1039D0002C1B1092D30281E00E946A230DC010922A
:1039E000CF021092D4028FEB93E00E942C1B109216
:1039F000D30202C00E94351C8091D302882349F073
:103A000088EE93E02CE231E0F9013197F1F701976C
:103A1000D9F708958091CB02882319F00E94131AD8
:103A200008950E94EF1987E08093D3020E94A019A5
:103A30000E948C1C08951F93CF93DF93C0E0D0E0C9
:103A400010E380919104819FC00111248B559E4FFA
:103A50008C0F9D1F60E00E943E2E2196C033D10541
:103A600081F787E08093D3020E948C1CDF91CF9175
:103A70001F910895CF93DF93C5EAD1E0CE0160E0B6
:103A80000E943E2E219683E0C53ED807B9F787E015
:103A90008093D3020E948C1CDF91CF910895BF9236
:103AA000CF92DF92EF92FF920F931F93CF93DF930A
:103AB000EE24FF24CC24DD2418E8B12E1EC0809112
:103AC000DA028B9DC00111240D968C0D9D1D8C0F6B
:103AD0009D1FF80161918F010E943E2E2196C830F2
:103AE000D10569F70894E11CF11C88E090E0C80E4C
:103AF000D91E91E1E916F10459F08701B3E0000FF6
:103B0000111FBA95E1F706551B4FC0E0D0E0D7CFA3
:103B10001092D9021092D8028091D502843039F4E3
:103B20008093D3021092CF021092D40211C0813040
:103B300079F40E94A01987E995E00E942C1B87E088
:103B40008093D3028091DB028093DA020E94491AAB
:103B50000E948C1CDF91CF911F910F91FF90EF90ED
:103B6000DF90CF90BF9008950E94A01982E694E064
:103B70000E942C1B82E794E00E942C1B86E00E948E
:103B8000C2226AEC73E00E94D61B8FED93E00E9484
:103B90002C1B88E894E00E942C1B87E08093D302C2
:103BA0000E948C1C08950F931F9387E00E94C222ED
:103BB0000AEC13E0B8010E94D61B8AED93E00E9444
:103BC0002C1B89E00E94C222B8010E94D61B8AEEFB
:103BD00093E00E942C1B88E08093D3020E948C1CEF
:103BE0001F910F910895EF92FF920F931F93CF9320
:103BF000DF93982FF62EE42E122F8091C90288238E
:103C000009F0AFC2892F0E942E17082F8091D3028E
:103C10008B3009F096C20D3B08F0A3C28091C80218
:103C2000882371F01092C7021092C802802F0E9460
:103C3000F721E0916205F0E0EF5CFA4F108230C0AE
:103C4000112371F08091CA02883108F08AC28F5F17
:103C50008093CA0282E994E0602F0E94EB210FC09A
:103C600082E994E0602F0E949F21BC018FEF6F3F9B
:103C7000780709F476C282E994E00E94B921809124
:103C80006205E82FF0E0EE5CFA4F00838F5F8093CF
:103C90006205802F0E94F72180916205803318F021
:103CA0000E940A1D5EC2112351F0093241F481E0E5
:103CB0008093C7021092C6021092C50252C210929F
:103CC000C7021092C8024DC2CA30D10508F049C2DD
:103CD000E091DF02F0E0E452FD4FC0838C2F0E94A0
:103CE000C2220E94831B0E94A0199091DC02809145
:103CF000D302883009F04EC0913029F49093D2025B
:103D00000E94031CC6C19230D9F49093D2020E9443
:103D1000491A0E94A0198BE294E00E942C1B86E3B2
:103D200094E00E942C1B85E494E00E94E41A81E058
:103D30008093C9028AE08093D4021092D302A9C171
:103D4000973009F45FC0993029F489E08093D2025A
:103D500088E73EC0E92FF0E031978091EA02E81B46
:103D6000F1098091E80290E0E817F9070CF091C1A1
:103D700083E68093D202E093E902F0E0EE0FFF1FAA
:103D8000E052FD4F0190F081E02D0280F381E02DA3
:103D900009952AC0873009F07CC1963019F48EE667
:103DA0008093D3028091D202823001F5913011F0DC
:103DB000923019F49093D3026CC1933031F484E0C3
:103DC0008093D3020E94621B64C1943041F485E069
:103DD0008093D3021092CF021092D4025AC199302C
:103DE00009F057C10E943E1B87E051C18130A9F400
:103DF000913011F489E04BC1923011F48DE047C14C
:103E0000933011F484E643C1993009F042C18CE04B
:103E10008093D3020E94311B3CC1833609F039C123
:103E2000E091E902F0E0EE0FFF1FE052FD4F01903C
:103E3000F081E02D0480F581E02D892F602F4F2D3A
:103E40002E2D00E0099525C1923099F0CA30D10598
:103E500008F087C18091DF02E82FF0E0E452FD4FC7
:103E6000C0838F5F8093DF028C2F0E94C2220E944A
:103E7000831B2A9728F08091D302823009F071C108
:103E80008091D302833009F407C1843038F4813043
:103E900009F475C0823009F051C1A0C0893021F009
:103EA0008D3009F04BC12DC08091DF028230F9F4D2
:103EB0009091DC028AE0989F900111248091DD02AC
:103EC000280F311DC90101970C9750F4822F8150A2
:103ED000809391048BE08093D3020E948D1918C1C6
:103EE000232B09F00FC187E08093D30211C188EE24
:103EF00093E02CE231E0F9013197F1F70197D9F71E
:103F000030C18091DF02823081F59091DC028AE03D
:103F1000989F900111248091DD02280F311DC90165
:103F200001970C9760F4822F81508093910487E071
:103F30008093D3020E94A0190E94E11B0EC0232B84
:103F400031F487E08093D3020E94A01906C00E943A
:103F5000A01986E696E00E942C1B83E0ECEDF2E0CF
:103F6000DF011D928A95E9F794C088EE93E02CE278
:103F700031E0F9013197F1F70197D9F7F2C090914B
:103F8000DC028091DA02833030F5092F015080176E
:103F900011F1033000F58091D8029091D9021816E2
:103FA00019065CF40E94A01984E895E00E942C1B7D
:103FB0000E94621B0093DB026CC00E94A01987E97B
:103FC00095E00E942C1B87E08093D3020093DA02D5
:103FD0000E94491A5EC00E94A01906CFF092D60234
:103FE000E092D7028AEA95E00E94E41A8091D60214
:103FF0008F5F0E94C2220E94831B82E790E00E9492
:10400000831B8091D7028F5F0E94C2220E94831B74
:1040100085E790E00E94831B8091DA028F5F0E9407
:10402000C2220E94831B8EE790E00E94831B809136
:10403000DA026091D7024091D6020E946E180E9467
:10404000C2220E94831B88E890E00E94831B80911B
:10405000D602E091D702F0E093E0EE0FFF1F9A95B1
:10406000E1F7E80FF11DE655FB4F808190E08F3FAF
:10407000910511F480E090E00E94C2220E94831B0F
:1040800082E990E00E94831B0E94A01983E0809344
:10409000D3021092DF0252C08091DF02833009F018
:1040A00043C09091DC0284E6989FA0011124809186
:1040B000DD022AE0829FC0011124480F591F809120
:1040C000DE02480F511D4F3F5105E4F48091D602A6
:1040D000E091D702F0E003E0EE0FFF1F0A95E1F751
:1040E000E80FF11DE655FB4F408387E08093D30234
:1040F0008091D8029091D90201969093D902809331
:10410000D80206C00E94A01986E696E00E94E41A32
:1041100083E0ECEDF2E0DF011D928A95E9F7109261
:10412000DF020E94A0190AC088EE93E02CE231E081
:10413000F9013197F1F70197D9F713C00E948C1C50
:1041400010C0112371F484E990E0602F0E949F2138
:10415000EC019091D302892F8750823008F074CE01
:10416000B3CDDF91CF911F910F91FF90EF90089504
:104170000E941918982F8091CF0280FD18C080915D
:10418000D0029817A1F0973261F48091CC02882375
:1041900041F41092CE021092CD0281E08093CC02C5
:1041A00004C01092CF021092CC029093D002809162
:1041B000CF0280FF0FC081FD0DC00E9490088823B0
:1041C00049F08091CF0283608093CF020E947E1BD2
:1041D0000E947C1C8091CF028823C9F48091CC027C
:1041E0008130A9F48091CD029091CE0201969093F6
:1041F000CE028093CD0220919F003091A00028171D
:1042000039072CF40E94CB1982E08093CC02809174
:10421000CF0281FF44C08091C902882339F10E94F6
:10422000D022882319F50E943A2A8823F9F4809134
:10423000D4028E3019F40E94D31D16C08B3019F4AD
:104240000E944F1D11C08A3019F40E94B41D0CC089
:104250008D3019F40E941B1D07C08C3019F40E9488
:104260003A1D02C01092C9021092D4028091C70276
:104270008823A9F08091C5029091C602019690937F
:10428000C6028093C502895E93404CF081E0809322
:10429000C80289E26FEF4FEF20E00E94F31D0895FE
:1042A0000E944A23882319F01092D1020895809128
:1042B000D102813021F40E94CB191092D1020895CD
:1042C00084EC99E00E942A2A9093A00080939F009A
:1042D00082E08093EA021092E802089528EB3BE026
:1042E00003C0F9013197F1F70197D9F708951F93AA
:1042F000162F0E94362E90E002C0959587951A954C
:10430000E2F7809581701F9108950F931F93162FE8
:10431000042F0E94362E21E030E002C0220F331F0E
:104320001A95E2F7622F60956823002309F4622B47
:1043300087E090E00E943E2E1F910F910895CF9349
:10434000DF93EC01DC010D900020E9F71197A81B29
:10435000B90B70E0AD010E943F2D009719F4EFEF0B
:10436000FFEF03C0FC01EC1BFD0BCF01DF91CF91F0
:1043700008959B01FC0101900020E9F73197E81BAB
:10438000F90B6F5F7F4F680F791FE21BF30B820FF2
:10439000931FAF010E94552D0895FF920F931F9315
:1043A000F42E9B01DC010D900020E9F78C01060F33
:1043B000171FA81BB90BA61BB70B2F5F3F4F820F10
:1043C000931FB801AD010E94552DF801F0821F9195
:1043D0000F91FF900895462FDC010D900020E9F722
:1043E0001197A81BB90BBD010E94CD210895282F5C
:1043F000809120039091210301966CE271E00E946C
:10440000992CFC01909321038093200380911E033B
:1044100090911F038E179F0759F4009719F48BE2B0
:1044200091E001C0019790932103809320030895A8
:10443000ED5DFC4F2083089520911E0330911F03F2
:1044400080912003909121032817390711F480E00F
:104450000895C90101966CE271E00E94992CFC015B
:1044600090931F0380931E03ED5DFC4F80810895A0
:1044700080912203089510922203089540E0209134
:104480001E0330911F038091200390912103281770
:10449000390709F441E0842F0895982F81568A3115
:1044A00018F4292F2D5510C0892F81548A3120F4FA
:1044B000292F2D5332E009C0892F8153893010F004
:1044C00020E002C0292F235130E0892F992787FD52
:1044D0009095A92FB92FFC01B097EF35F10508F0A1
:1044E00048C0E65DFF4FEE0FFF1F0590F491E02DF1
:1044F00009942EE141C02FE13FC020E23DC021E2FE
:104500003BC022E239C023E237C024E235C025E2B5
:1045100033C026E231C027E22FC02CE22EC02DE2AC
:104520002CC02DE229C02EE228C02EE225C02FE2A9
:1045300024C02FE221C020E320C020E31DC021E3DE
:104540001CC021E319C023E318C023E315C024E3F2
:1045500014C024E311C025E310C025E30DC026E3F9
:104560000CC026E309C027E308C027E305C028E301
:1045700004C0222311F428E332E0832F922F089500
:1045800027E2FBCF0F931F930BEE12E090E0B801F0
:104590004AE050E00E94672DC8011F910F910895D5
:1045A00020911E0330911F038091200390912103DD
:1045B0002817390719F081E090E008950E944B1404
:1045C000089520911E0330911F0380912003909144
:1045D00021032817390739F480E3EEEEF2E0DF011A
:1045E0001D928A95E9F708951092210310922003F5
:1045F00010921F0310921E038CE291E0E3E2F3E0BD
:10460000DF019C011D9221503040E1F780E3EEEE86
:10461000F2E0DF011D928A95E9F708950E94F422E5
:104620000E944E1408950F931F93CF93DF930E941F
:104630001C22082F182F1D5B1C3058F40E940E23DB
:10464000812F0E94AE1481E08093220382E000E07B
:104650001BC0CEEED2E0882331F480E3FE0111923C
:104660008A95E9F70AC0CE01602F0E949F21BC0104
:1046700097FD05C0CE010E94B92182E005C0CE01A0
:10468000602F0E94EB2181E0902FDF91CF911F914D
:104690000F91089580914F0408950F931F93082F51
:1046A000162F81EA90E00E94831B812F0E94C22274
:1046B0000E94831B83EA90E00E94831B802F0E944C
:1046C000C2220E94831B85EA90E00E94831B1F91F7
:1046D0000F91089580934F040E944E0608950E9402
:1046E000B8200E949B160E949C140E948C240E9459
:1046F000F9170E94630708958091510408958091ED
:10470000570408956623C9F0843F51F480915504FD
:10471000823011F483E001C081E080935504089554
:10472000833F59F480915604823021F483E08093D2
:104730005604089581E0809356040895982F80913F
:104740005504823059F080915604823029F49A360B
:1047500029F080E09E3619F081E0089580E0089508
:10476000FC0180818130A1F482E0808382E390E0CB
:104770000E94070784EF91E02CE231E0F9013197C4
:10478000F1F70197D9F784E690E00E9407070895B2
:10479000833029F4108284E690E00E940707089590
:1047A0000F931F93182F022F0E94DD05812F0E9467
:1047B000F918882309F0ACC0812F602F0E9454178C
:1047C000812F0E943917182F0E94F918882309F0A9
:1047D0009FC0002309F48FC01C3F59F0173F49F0D8
:1047E00080915004882309F44DC01A3209F04AC060
:1047F00014C080915104882331F41C3F41F083E0C0
:10480000809351040CC01C3F21F4823031F082E0CF
:10481000F7CF173F11F4833091F710925104809134
:1048200057048823C1F480915104882319F484E645
:1048300090E00FC084E690E00E94070780E293E0DA
:104840002CE231E0F9013197F1F70197D9F786E4CD
:1048500090E00E94070780915704813039F460E0AE
:1048600080915104811161E081E009C0823009F03A
:104870004FC060E080915104811161E084E00E94AA
:10488000200546C080915204882361F0812F0E9448
:104890007B19882339F0195C1093AD0081E0809377
:1048A000530436C0193221F481E08093500431C0A2
:1048B000153F71F48091540491E08927809354044A
:1048C000882319F40E9493051FC00E94D4051CC0C0
:1048D000123F59F40E948A19882319F00E94131A72
:1048E00017C081E08093520413C0812F609150045F
:1048F0000E9434060EC01C3F59F0193219F4109270
:10490000500402C0123F11F081E003C01092520423
:1049100080E01F910F9108950E948D08882341F037
:1049200085E594E00E94B02386E594E00E94B023E0
:104930000E949008882379F080915304882359F0CD
:10494000109253048091AD008F3F29F00E94A71967
:104950008FEF8093AD0008958CE896E00E94E41AF2
:1049600088EC93E00E94E41A8AEC93E00E94E41A37
:1049700088EC93E00E94E41A80915704813019F486
:1049800086E996E007C0823019F489E996E002C012
:104990008FEC93E00E94E41A08951F93182F115092
:1049A000133050F587E00E945719109357041130C7
:1049B00041F487E090E00E94362E682F6B7E6061A4
:1049C00010C0123041F487E090E00E94362E682F2C
:1049D0006B7E646006C087E090E00E94362E682FF0
:1049E000646187E090E00E943E2E0E944E060E9485
:1049F000AC240E94A0190DC0843031F484E60E94DA
:104A000057190E946F1905C0863019F48EE60E946E
:104A100057191F9108950E94AC2408950F931F9376
:104A20000E94AC240E94A01981E00E94C2220E9430
:104A3000831B0AEC13E0C8010E94E41A8FEC93E098
:104A40000E94E41A0E94A01982E00E94C2220E94E1
:104A5000831BC8010E94E41A86E996E00E94E41ACA
:104A60000E94A01983E00E94C2220E94831BC801F9
:104A70000E94E41A89E996E00E94E41A0E94A019B3
:104A800084E00E94C2220E94831BC8010E94E41A93
:104A90008AED93E00E94E41A0E94A01986E00E9429
:104AA000C2220E94831BC8010E94E41A8FED93E08A
:104AB0000E94E41A0E94A0191F910F91089587E0A7
:104AC00090E00E94362E482F8695869590E09C01B6
:104AD0002170307080FD07C0842F82958F7080FF19
:104AE0000DC081E008C0222349F0842F82958F7089
:104AF00080FD04C082E08093570402C010925704E6
:104B000087EA90E00E944919089580915904089518
:104B10004091590481E048274093590487E090E090
:104B200063E00E948521089587E090E063E00E94A1
:104B30007721809359048EEA90E00E9449190895E4
:104B40001F93182F8932B9F480915904882399F062
:104B5000662351F00E941918823011F0803259F406
:104B600081E08093580406C080915804882319F08E
:104B70001092580415E3812F1F9108958CE996E057
:104B80000E94E41A88EC93E00E94E41A8AEC93E015
:104B90000E94E41A88EC93E00E94E41A8091590480
:104BA000882319F08CEC93E002C08FEC93E00E9414
:104BB000E41A0895813051F487E00E9457190E9449
:104BC00088250E94BE250E94A0190895833031F4E3
:104BD00084E60E9457190E946F190895863019F4CF
:104BE0008EE60E94571908950E94BE2508950F93DE
:104BF0001F930E94BE250E94A01981E00E94C2223C
:104C00000E94831B0AEC13E0C8010E94E41A83EDA2
:104C100093E00E942C1B83E00E94C2220E94831B0F
:104C2000C8010E94E41A8AED93E00E942C1B86E0E2
:104C30000E94C2220E94831BC8010E94E41A8FEDC9
:104C400093E00E942C1B1F910F91089580915A04AC
:104C5000089540915A0481E0482740935A0487E020
:104C600090E060E00E948521089587E090E060E098
:104C70000E94772180935A0484EB90E00E944919A6
:104C8000089585EA96E00E94E41A88EC93E00E9479
:104C9000E41A8AEC93E00E94E41A88EC93E00E9404
:104CA000E41A80915A04882319F08CEC93E002C036
:104CB0008FEC93E00E94E41A0895813051F487E06C
:104CC0000E9457190E9429260E9441260E94A0197D
:104CD0000895833031F484E60E9457190E946F19B9
:104CE0000895863019F48EE60E94571908950E949F
:104CF000412608950F931F930E9441260E94A019F8
:104D000081E00E94C2220E94831B0AEC13E0C801CA
:104D10000E94E41A83ED93E00E942C1B83E00E9422
:104D2000C2220E94831BC8010E94E41A8AED93E00C
:104D30000E942C1B86E00E94C2220E94831BC80195
:104D40000E94E41A8FED93E00E942C1B1F910F919B
:104D5000089581E080937104089581E080935E045A
:104D600010925F0480935B04089580915C0481112C
:104D700081E008950F931F93162F0E942E17082F7E
:104D800081508C3B08F057C080578A3108F453C0DB
:104D900081E080935C04802F8756112359F188307D
:104DA00038F410915D04802F0E940819182B2BC035
:104DB000E8E6F4E001900020E9F73197E856F44086
:104DC000E63008F038C0802F8D58823128F4E02F6B
:104DD000F0E0E953FD4F049188E694E0602F0E94D3
:104DE0009F218F5F9F4F39F588E694E0602F0E94E6
:104DF000EB2121C0883050F410915D04802F0E9477
:104E000008198095182310935D0415C0802F8D58C4
:104E1000823128F4E02FF0E0E953FD4F049188E659
:104E200094E0602F0E949F21BC0197FD04C088E69A
:104E300094E00E94B9211F910F9108950F931F9341
:104E4000182F082F01576623E9F061E00E94BA2667
:104E50000A3160F521E020936004E12FF0E0EE0FCD
:104E6000FF1FE25CFD4F85919491909362048093C3
:104E700061040330D8F42093630490936504809315
:104E8000640414C060E00E94BA260A3178F481E01C
:104E9000809360041092620410926104033030F435
:104EA00080936304109265041092640481E01F9162
:104EB0000F9108952F923F924F925F926F927F923F
:104EC0008F929F92AF92BF92CF92DF92EF92FF921A
:104ED0000F931F93DF93CF9300D00F92CDB7DEB720
:104EE00082B3837F82BB81B3837F81BB0E94C8284A
:104EF0008B9A20E048EB5BE0CA010197F1F7215063
:104F0000D9F78B988AEB90E00E94D1148CEB90E05B
:104F10000E94352A86E0E8E6F4E0DF011D928A95DA
:104F2000E9F710925D041092620410926104789483
:104F3000DD24EE24FF2459EC252E312C2E0108947B
:104F4000411C511C46E7842E44E0942E38E0C32EC9
:104F500028E6A22E24E0B22E92E0692E712C680C75
:104F6000791C8091C000813061F5809171048823A3
:104F700041F580916F0490917004019690937004B4
:104F800080936F040197895B9B40DCF01092C00016
:104F90008BB78F778BBF0F900F900F90CF91DF91D2
:104FA0001F910F91FF90EF90DF90CF90BF90AF9047
:104FB0009F908F907F906F905F904F903F902F9039
:104FC000089580917D05882351F010927D051092FF
:104FD0005B040E943A19DD24EE24FF2424C0809152
:104FE0005B04882339F0E1E0E0937D050E943A19E3
:104FF000DD2419C0DD20B9F487010F5F1F4FF1E1F7
:10500000EF16F7E2FF0674F00E941918882351F496
:105010000E940F18882331F40E9412197801DD24B0
:10502000D39401C078010E94D92880916E0584FF35
:1050300059C080916004882331F4809163048823EF
:1050400011F40E9451160E946F2380915C04882302
:1050500021F180917104882309F483CFD401EC2DD0
:105060001D92EA95E9F780915D0480937604109291
:105070007704F50101900020E9F73197E856F440F4
:10508000C301B501AF010E944C2D86E794E068E0B2
:105090000E941F2A10925C0425C080915E0481301A
:1050A000A1F4F2E0F0935E04D401EC2D1D92EA9598
:1050B000E9F786E794E068E00E941F2A0E94EF0962
:1050C0008091FF00882371F00BC080915F048230D3
:1050D00049F4F3E0F0935F048091FF00882311F41A
:1050E0000E94502180919A0584FF24C08091600421
:1050F000882371F0809161049091620421E02983FA
:105100009B838A83C20163E00E941A2A1092600482
:1051100080916304882371F0809164049091650408
:10512000A2E0A9839B838A83C20163E00E941A2ABA
:105130001092630480915E04823009F012CF809156
:105140006604909167049C012F5F3F4F3093670482
:1051500020936604883C910519F40E94482B01CFE6
:10516000293C31050CF4FDCE309267042092660490
:10517000B3E0B0935E04F5CE0E9443050E944E0654
:1051800080915F04882319F482E080935F0408957E
:1051900085B7886085BF8BB780688BBF8BE48093B1
:1051A0006F0580939B058AE580936E0580939A0531
:1051B00008951F93CF93DF9360918005635067FD3F
:1051C000BDC080917C05CCE0D0E0C81BD109CC5794
:1051D000DA4F80917B058D3209F09DC0683009F06F
:1051E000ABC083EC809363058AE58093BE00109288
:1051F0006E048881807629F0CE010E94550A282FFE
:1052000077C09A8110926C058981882321F41092CD
:105210006D0522E066C0853019F49093810560C069
:10522000863009F047C08B81813059F489B78B7F74
:1052300089BF8DED96E090937F0580937E0522E1F6
:1052400035C0823019F18330F9F48A81882341F422
:105250008DEA96E090937F0580937E0524E026C03A
:10526000813041F481EB96E090937F0580937E0539
:105270002CE11CC08230C9F48DEC96E090937F0540
:1052800080937E0520E112C0813229F4CE010E9474
:105290000D0A282F0BC0823241F4CE010E940D0A64
:1052A000282F89B7846089BF01C020E080E4809303
:1052B0006E041EC0883021F421E083E895E013C01D
:1052C000893019F4909383050BC08A3011F421E0E2
:1052D00008C08B3029F48BE480936F0580939B0585
:1052E00020E08CE695E090937F0580937E0509C0D1
:1052F0002F3F39F4888187FD2E8180E880936E04EA
:1053000006C08F81882319F48E81821708F0822FBE
:105310008093BF0011C080916E0487FF0DC0CE0145
:105320000E94470A8F3F21F48EE18093BE0004C0A3
:10533000882311F01092BF00109280058091BE006A
:1053400084FF46C08091BF008F3F09F441C0182FF1
:10535000893008F018E0811B8093BF0080916305BD
:1053600098E8892780936305112321F120917E0518
:1053700030917F0580916E0486FF0AC0912FF9015C
:10538000A4E6B5E084918D9331969150D9F708C089
:10539000912FD901E4E6F5E08D9181939150E1F7E9
:1053A000C90101961150810F911D1F5F90937F05D8
:1053B00080937E0584E695E0612F0E94B703612FFC
:1053C0006C5F6C3019F08FEF8093BF006093BE006C
:1053D00094E180B38C7031F49150D9F7109281052B
:1053E00010927A05DF91CF911F9108951F93CF936B
:1053F000DF93DC01162FEA01888184FF05C08981D3
:1054000098E88927898302C08AE58883AE014E5FC8
:105410005F4F212FFA018D91819321501216DCF3F9
:10542000CA01612F0E94B7031C5F1883DF91CF91DF
:105430001F9108954AE955E00E94F62908954EE625
:1054400055E00E94F62908958D98959A08958D9AB1
:10545000959808959C018091C000882311F08330B5
:1054600011F435952795C90108959093730480939D
:1054700072040895E0917204F09173040190F08138
:10548000E02D099508951F93182F0E94FE091123FE
:1054900099F010E0812F0E9464111F5F1730D1F73F
:1054A00089B78E7F89BF89B78B7F89BF89B78F7B8B
:1054B00089BF8D98959A02C08D9A95981F910895ED
:1054C0009F92AF92BF92CF92DF92EF92FF920F9393
:1054D0001F93CF93DF930E94FE090E94EF0984E19E
:1054E0008A95F1F710E00E943309882319F41F5FB1
:1054F0001431C9F70E94EE087C0100E0DD2431E0A0
:10550000A32EB12C2AE0922E95E0C92EF7018081BE
:10551000882309F43FC0C0E0D0E095010C2E02C002
:10552000220F331F0A94E2F7F7018081822371F181
:1055300080E06D2D4C2F0E946E18182F8C2F6D2D32
:105540000E94AD0A882311F41B3221F481E00E94ED
:105550006A231CC0103119F40E946B1917C018314E
:1055600011F4016013C0133111F402600FC01E3139
:1055700021F481E08093060109C01F3119F4C09223
:10558000060104C0103211F4909206012196C83031
:10559000D10519F6D3940894E11CF11CF1E1DF1652
:1055A00009F0B4CF0E9425090E94F608002319F0E3
:1055B0000F5F0093C0006091C000643021F48CE064
:1055C00090E06FEF04C0643028F48CE090E00E941B
:1055D0003E2E06C08CE090E00E94362E8093C000E4
:1055E0008A98929A2091C0002430D0F090E080E018
:1055F000829907C092FD09C08F5F863060F021E07C
:105600000AC0829B09C092FD02C080E004C08F5F87
:10561000863008F020E090B3223050F72093C0008D
:105620000E940D170E9460210E9435260E945F256E
:105630000E9494250E941C188091C00081508230E5
:1056400070F4F8940E9449051092700410926F044F
:105650001092710481E00E94432A0E945A2780918F
:10566000C000882311F0833039F7F8940E9449056F
:105670001092700410926F041092710482E390E013
:105680000E94070780E00E94432A0E94BA0DD4CFEF
:105690000E943A050E94F6060E94C6140895ABE0E7
:1056A000B0E0E5E5FBE20C94ED2C5C014B017A01E6
:1056B000FC0117821682838181FD08C06FEF7FEFA6
:1056C00008C142E050E0E40EF51E04C03E0108941B
:1056D000611C711CF501D380F401D3FC8591D3FECC
:1056E00081914F01882309F4F1C0853259F4D3FC2C
:1056F0006591D3FE61914F01653219F0062F10E0DC
:105700001BC085E290E02BC0002309F4DFC086EFC8
:1057100096E0602F70E00E94342D892B39F403321B
:1057200011F4106103C00C3661F41068F401D3FC6D
:105730000591D3FE01914F0117FFE6CF002309F435
:10574000C5C08FEE96E0602F70E00E94342D892B4B
:1057500051F044E050E0E40EF51E8FE390E0B50117
:105760000E94882DB7CF033629F0033779F003352F
:10577000F1F40BC087010E5F1F4FF701808191810B
:10578000B5010E94882D7801A5CF1160F701C08076
:10579000D18004C090E0B5010E94882DF60110FD73
:1057A000859110FF81916F018823A1F78ACF04367C
:1057B00011F0093639F517FF08C0F7012081318152
:1057C0004281538184E090E00AC0F7018081918199
:1057D0009C01442737FD4095542F82E090E0E80E6D
:1057E000F91E1F7E57FF08C05095409530952195B2
:1057F0003F4F4F4F5F4F1064CA01B901A3012AE028
:1058000030E034C00037A9F0013730F40835B1F08A
:105810000F3609F05BC006C0053739F0083709F0CC
:1058200055C008C028E030E00CC01F7E2AE030E000
:1058300008C01061146220E130E003C0146020E170
:1058400032E017FF08C0F701608171818281938186
:1058500044E050E008C0F70180819181BC0180E004
:1058600090E042E050E0E40EF51EA3010E94D82D26
:10587000D82ED618012F10E006FF05C08DE290E06B
:10588000B5010E94882D04FF15C0FE01ED0DF11D2C
:105890008081803379F080E390E0B5010E94882D0B
:1058A00002FF08C000721070C801885A9F4FB501EE
:1058B0000E94882DDA94F301ED0DF11D808190E0B6
:1058C000B5010E94882DDD20A9F704CFF50166817E
:1058D0007781CB012B96EEE00C94092D629FD001CD
:1058E000739FF001829FE00DF11D649FE00DF11D9B
:1058F000929FF00D839FF00D749FF00D659FF00D4A
:105900009927729FB00DE11DF91F639FB00DE11D36
:10591000F91FBD01CF0111240895991B79E004C03E
:10592000991F961708F0961B881F7A95C9F78095DE
:10593000089597FB092E07260AD077FD04D080D062
:1059400006D000201AF4709561957F4F0895F6F700
:10595000909581959F4F0895A1E21A2EAA1BBB1B1B
:10596000FD010DC0AA1FBB1FEE1FFF1FA217B3072B
:10597000E407F50720F0A21BB30BE40BF50B661F41
:10598000771F881F991F1A9469F760957095809505
:1059900090959B01AC01BD01CF01089597FB092EA5
:1059A00005260ED057FD04D0D7DF0AD0001C38F4EE
:1059B00050954095309521953F4F4F4F5F4F08953B
:1059C000F6F790958095709561957F4F8F4F9F4F1B
:1059D00008952F923F924F925F926F927F928F9293
:1059E0009F92AF92BF92CF92DF92EF92FF920F936E
:1059F0001F93CF93DF93CDB7DEB7CA1BDB0B0FB678
:105A0000F894DEBF0FBECDBF09942A883988488834
:105A10005F846E847D848C849B84AA84B984C884CA
:105A2000DF80EE80FD800C811B81AA81B981CE0FC1
:105A3000D11D0FB6F894DEBF0FBECDBFED010895A6
:105A4000AA1BBB1B51E107C0AA1FBB1FA617B707A4
:105A500010F0A61BB70B881F991F5A95A9F78095C0
:105A60009095BC01CD010895FC010590061621F02A
:105A70000020D9F7C00108953197CF010895FC01A6
:105A80004150504030F001900616D1F73197CF01C8
:105A90000895882799270895FB01DC0102C0019031
:105AA0000D9241505040D8F708956817790768F46F
:105AB000FB01DC01E40FF51FA40FB51F02C002902B
:105AC0000E9241505040D8F708950C944C2DFB0194
:105AD0009F01E8944230C4F04532B4F44A3029F4CE
