:100000000C9483030C94A0030C94BB030C94A003E6
:100010000C94CA130C94D6120C949D130C94431395
:100020000C9470130C94A9120C9416130C94561281
:100030000C94A0030C94A0030C94A0030C94A003B4
:100040000C94A0030C94A0030C94A0030C94A003A4
:100050000C94A00352223E226E22422244224622C7
:100060004A226C224E2250224C225A2274225422BE
:1000700078227C2285227E227E227E227E227E2281
:100080007E227E227E227E226A22682276225822C8
:100090007A22802240227E227E227E227E227E22A0
:1000A0007E227E227E227E227E227E227E227E2250
:1000B0007E227E227E227E227E227E227E227E2240
:1000C0007E227E227E227E227E225C22642260228A
:1000D0004822562270227E227E227E227E227E228C
:1000E0007E227E227E227E227E227E227E227E2210
:1000F0007E227E227E227E227E227E227E227E2200
:100100007E227E227E227E227E225E226622622243
:10011000722205010906A101050719E029E715006A
:1001200025019508750181029501750881039505E2
:1001300075010508190129059102950175039103BF
:100140000507190029FF95067508150026FF00818F
:1001500000C005010902A10185030901A1000509EB
:100160001901290515002501750195058102750301
:10017000950181030501093009311581257F750835
:100180009502810609381581257F350045007508DF
:1001900095018106050C0A38021581257F750895A1
:1001A000018106C0C005010980A101850215012554
:1001B000B7190129B7751095018100C0050C090117
:1001C000A10185011501269C0219012A9C027510C6
:1001D00095018100C009023B0002010080FA090478
:1001E000000001030101000921010100012240007A
:1001F0000705810308000A0904010001030000004B
:100200000921010100012283000705830308000A78
:10021000000001000800400000010004000001008F
:10022000080020004000800000010004FEFEF8F8F5
:100230006C6C68686D6D69696B6B6767FEF8F6F6E4
:10024000F6FEF8F68E8D8E8D8E8D8E8D8E8D8E8D2A
:100250008E8D8E8D39398E8D39656565010101016F
:100260000101010101010101010101010000010180
:1002700000010101FEF8F6FB010204081020408095
:100280000000FC001C322123242B3433433B424B1F
:100290003A31444D152D1B2C3C2A1D22351A161EB1
:1002A00026252E363D3E46455A76660D294E555436
:1002B0005B5D5D4C520E41494A580506040C030B28
:1002C000830A010978077C7E7C706C7D71697A7481
:1002D0006B7275774A7C7B795A69727A6B73746C2E
:1002E000757D7071612F001412111F1459112700B0
:1002F00000373F5E48103A38302820184D153B34FF
:10030000233221502B404B1C43221D0000F1F237B9
:100310000F08101820283038404850575F6D0000F3
:100320008100820083008A01210223022402250227
:10033000260227022A02B500B600B700CD00E2006F
:10034000E900EA008301920194010000000000002E
:10035000000000009190666768696A6B6C6D6E6F53
:10036000707172738586464800488E8D0071727375
:100370008F006A6B6E6D6546494A4B4C4D4E52502C
:100380004F5154587172737475767778797A7B7C93
:100390007D7E7F808182838485868788898A8F009D
:1003A000494C4A4D4B4E6A6E65504F52515400397C
:1003B00053470073656C656374206D6F64650067F7
:1003C0006F6F64206279650020003A006F6E006FE5
:1003D000666600746F67676C6500657869740062B3
:1003E00061636B006D6163726F00626F6F74206D8B
:1003F000617070657200737461727400313A736574
:100400006C656374206D6163726F20696E646578DA
:1004100000323A636C656172206D6163726F0039FE
:100420003A636C65617220616C6C006B6579206D5C
:10043000617070657200313A6368616E6765206C47
:100440006179657200323A73656C656374206B651F
:1004500079202D20696E707574206B6579636F64E7
:100460006500333A7361766520616E642065786952
:100470007400343A6578697420776974686F7574AC
:1004800020736176696E6700393A7265736574200E
:10049000746F2064656661756C7420286375727270
:1004A000656E74206C61796572290063686F6F7383
:1004B00065206C617965722028313A206E6F726D0B
:1004C000616C2C20323A20464E2C20333A20464E86
:1004D00032292063757272656E743D200073656CFD
:1004E000656374206B65792028616E79206B65796E
:1004F00020796F752077616E74292000696E7075A0
:1005000074206B6579636F646520286D7573742042
:1005100033206E756D626572732C20636C65617239
:100520003A30303029203A20007361766520262049
:10053000657869742C207468616E6B20796F752EF4
:10054000006578697420776974686F7574207361C9
:1005500076696E672C2073656520796F75206C61F4
:100560007465722E00726573657420746F20646503
:100570006661756C742063757272656E74206C614F
:1005800079657200736176652063757272656E7449
:10059000206C61796572006C6F61642063757272A2
:1005A000656E74206C6179657200636F6C2C2072CB
:1005B0006F77203A2000736176696E672E2E2E00C9
:1005C00068656C6C6F003E3E20006E6F7468696EEB
:1005D0006700696E707574206D6163726F20696E5B
:1005E000646578202830317E31322C2063616E635F
:1005F000656C3A2030302C206D7573742032206E7B
:10060000756D6265727329203A200073656C6563AD
:100610007420696E646578202830317E31322C2058
:1006200063616E63656C3A20303029203A2000699E
:100630006E707574206B657920286D617820323476
:10064000206B6579732C2073746F70203A20707260
:100650006573732045534320647572696E6720315A
:10066000207365632900696E76616C6964206E751C
:100670006D6265722C20696E7075742061676169A6
:100680006E2E00636C6561722E2E2E00666E322F08
:1006900033206C6564006E6C00736C0065736320BE
:1006A000746F207E006C617A7920666E0004030905
:1006B000041C03770069006E006B00650079006C14
:1006C000006500730073002E006B00720010037051
:1006D00000730032006100760072005500120110B4
:1006E0000100000008A0201C420701010200014592
:1006F000464765666700202B2D2E30313233343566
:1007000036373839680011241FBECFE5D8E0DEBF88
:10071000CDBF10E0A0E6B0E0E4E4FCE502C0059047
:100720000D92A23CB107D9F715E0A2ECB0E001C0F0
:100730001D92A73AB107E1F70E94252A0C94202EBA
:100740000C940000A82FB92F80E090E041E050EA1F
:10075000609530E009C02D9182279795879510F01C
:1007600084279527305EC8F36F5FA8F30895EADF0A
:100770008D939D930895CF93CFB7CF93C395839BCC
:10078000E9F7839B0EC0839B0CC0839B0AC0839BAD
:1007900008C0839B06C0C0917E05C395C0937E05AB
:1007A000A3C0DF93C0917D05DD27CB57DA4F839B34
:1007B00002C0DF91E6CF2F930F931F9300B32FEF6B
:1007C00003FB20F94F933F9310B34FEF012703FB37
:1007D00021F93BE031C04E7F012F10B3216028C0CA
:1007E000102F4D7F2260000000B329C04B7F246092
:1007F000012F000010B32BC010B3477F28602AC020
:100800004F7E00B320612CC04F7D10B320622FC0FB
:100810004F7B00B3206432C0422700B349934FEFAF
:100820000000102713FB20F910B31C70C9F1297FB9
:1008300091F2012703FB21F900B3237F89F23150A4
:1008400058F1102713FB22F910B3277E79F2012704
:1008500003FB23F92F7C81F200B3102713FB24F94B
:100860002F7971F200C010B3012703FB25F92F7314
:1008700059F200C000B3102713FB26F9223040F2D2
:1008800000C010B3012703FB27F9243028F64F7767
:10089000206810B30000F9CF10E81ABF002719C074
:1008A0003B503195C31BD04010E81ABF0881033C70
:1008B000F9F00B34E9F020917B051981110F121327
:1008C000EDCF4A81441F093641F10D3211F0013E4E
:1008D00029F7009383053F914F911F910F912F911D
:1008E000DF91CAB7C7FD4ACFCF91CFBFCF9118953F
:1008F00020918305222379F3109181051123C1F5FD
:100900003430C2F13093810520937C0510917D0530
:100910003BE0311B30937D052DC0009181050130F6
:100920003CF50AE54F7049F43091BE0034FD24C017
:100930000093BE00C4E6D5E023C0433049F03091B7
:100940006F0534FD19C000936F05C0E7D5E018C0EE
:1009500030919B0534FD10C000939B05CCE9D5E098
:100960000FC02795A8F45150A9F4220F0000F9CF29
:100970004AE503C042ED01C0432FC4E1D0E032E0BC
:1009800011B31C60939A11BB02B320E41CE05F9387
:10099000012756E002BB279520F4515021F4220F85
:1009A000F9CF012756E000003B5A02BBD0F2279551
:1009B00028F4515029F4220F0000F9CF012756E006
:1009C000279502BB20F4515021F4220FF9CF0127C3
:1009D00056E02991332302BB21F6037F1091820553
:1009E000110FC651D04002BB11F010937B0510E8E7
:1009F0001ABF086011B3137F402F437F5F9100C07F
:100A000000C002BB11BB42BB66CF982FFA01D901CF
:100A10008091D5008923E081882341F0E92379F48E
:100A2000662311F485E007C084E005C0E92339F0AE
:100A3000662319F483E08C93089582E08C930895E3
:100A4000662361F0813011F4909A0895823011F498
:100A5000919A0895843069F4969A0895813011F43A
:100A600090980895823011F491980895843009F493
:100A70009698089581B3836181BB82B38C7E82BBDB
:100A80008E9A969808958093D50008958091D50008
:100A900008951092C20008952091600030E0AC01EA
:100AA000429FC001439F900D529F900D11246FEF04
:100AB00070E00E945E2CCB0108950E9453120895AD
:100AC0009091C900992319F480E090E010C0913012
:100AD00049F41092CF001092CE001092CD001092E7
:100AE000CC000895923031F48091600090E00E9433
:100AF00053120895892F83508230A0F483E08093AD
:100B0000D300943019F481E08093D3008091D30016
:100B10009FEF899FC00111246CE070E00E945E2C61
:100B20006093D20008951092C3000E94600508955A
:100B3000809160008E31A1F08951809360008E31E8
:100B400018F48EE1809360008091C900823011F426
:100B50000E94600581E090E09093C8008093C700F8
:100B60000895809160008F3FA9F090E049968F3FF3
:100B7000910511F00CF08FEF809360008091C90017
:100B8000823011F40E94600581E090E09093C800EB
:100B90008093C700089590989198969880E090E08F
:100BA0000E9453129498089581E08093C30080E0DE
:100BB00090E00E945312949808952223E9F10E9434
:100BC000D4188823C9F58091C3008823A9F58091A2
:100BD000C9008330C1F484EF91E09093D1008093F9
:100BE000D0008091D3008C3038F58F5F8093D30094
:100BF0009FEF899FC00111246CE070E00E945E2C81
:100C00006093D20008958430B9F484EF91E090931A
:100C1000D1008093D0008091D300882369F0815067
:100C20008093D3009FEF899FC00111246CE070E096
:100C30000E945E2C6093D20008950E94D4188823ED
:100C400091F48091C90090E0019665E070E00E9407
:100C50005E2C8093C90081E090E09093C80080935F
:100C6000C7000E9460050895662311F0893311F0D2
:100C70008D3F21F481E00E941D0605C08A3F29F4C2
:100C800081E00E94B10580E00895893F11F081E084
:100C9000089581E00E94980580E008951F930E94C6
:100CA0004423813069F40E94412360E0811161E0B6
:100CB00081E046ED50E024ED30E00E94050507C0DC
:100CC0008091D50080FF02C0909A01C090988091D9
:100CD000D50081FF02C0919A01C091980E944423DF
:100CE000823069F40E94412360E0811161E084E078
:100CF00046ED50E024ED30E00E94050507C08091EC
:100D0000D50082FF02C0969A01C096981091D50036
:100D1000612F70E076956795617084E046ED50E054
:100D200024EC30E00E9405051093D6001F91089531
:100D30001092C3000E944E060E9460050895209103
:100D4000D400222309F442C08091D9009091DA00A6
:100D500001969093DA008093D90085369105D4F1FD
:100D6000253011F0233029F40E9444238130F1F41E
:100D700022C0243011F0223041F40E9444238130FB
:100D800011F4909819C0969817C00E94442381309E
:100D900029F40E944123882371F40EC00E94442349
:100DA000823031F40E944123882331F0969A04C0A6
:100DB0008091D50080FD909A1092DA001092D900AF
:100DC0008091D40081508093D40008951092DA006D
:100DD0001092D900089589E090E00E94FB2D809345
:100DE00060008093CB008BE090E00E94FB2D80930D
:100DF000C900853010F01092C9008091C90080931D
:100E0000CA000E94600508958091C200882361F4A1
:100E100081E08093C2000E94B81088E00E94F61121
:100E20000E943B120E94EB060895CF93DF93EC01E2
:100E30000E944423813029F40E944123882339F001
:100E400004C08091D50080FF02C0909801C0909AA4
:100E50008091D50081FF02C0919801C0919ACE0186
:100E60000E9433210E944423813029F40E944123AF
:100E7000882339F004C08091D50080FF02C0909A89
:100E800001C090988091D50081FF02C0919A01C065
:100E90009198DF91CF9108950E940F238823A1F4A8
:100EA00081E080936100089590916100913011F488
:100EB000919801C0919A1092D8001092D70081E0C9
:100EC00098279093610008958091D7009091D80061
:100ED00001969093D8008093D7008558934024F7CB
:100EE00008958091C200882309F44EC10E94D4184D
:100EF000882309F049C10E944C070E949F06209157
:100F0000C400222311F18091C5009091C600019682
:100F10009093C6008093C50085369105D4F02530A6
:100F200059F0233049F0243011F0223011F4919817
:100F300004C08091D50081FD919A1092C600109254
:100F4000C50021502093C40004C01092C600109226
:100F5000C5008091C7009091C8001816190644F585
:100F600001969093C8008093C700885E934001F576
:100F70001092C8001092C7006091C9008091CA0009
:100F8000681731F06093CA008BE090E00E94032E56
:100F9000609160008091CB00861731F06093CB00A8
:100FA00089E090E00E94032E82E390E00E94150702
:100FB0008091C300882309F0E7C08091C900813087
:100FC00009F059C08091CC009091CD00009761F458
:100FD0008091CE009091CF0068E070E00E945E2C7E
:100FE000CB010E944C0513C082309105A1F4809181
:100FF000CE009091CF0068E070E00E945E2CCB01A3
:10100000909581959F4F81509F4F0E944C0590E095
:101010000E9453120EC08130910511F0039749F4DC
:101020008091CE009091CF0001969093CF00809355
:10103000CE008091CE009091CF00885F97408CF0D9
:101040001092CF001092CE008091CC009091CD00F4
:10105000019664E070E00E945E2C9093CD00809336
:10106000CC008091CE009091CF0001969093CF005C
:101070008093CE0008958330D9F58091D00090916F
:10108000D1001816190634F401979093D10080937B
:10109000D00028C02091D2002223F1F08091CE0010
:1010A0009091CF0001969093CF008093CE00089747
:1010B000CCF01092CF001092CE0021502093D2009D
:1010C0008FEF90E0821B91096BEE7FEF0E945E2C08
:1010D000645F6093D30006C01092D3001092CF00DB
:1010E0001092CE008091D20090E00E944C053EC04C
:1010F000843009F03FC08091D0009091D100181643
:10110000190634F401979093D1008093D00029C040
:101110002091D2002F3FF1F08091CE009091CF002E
:1011200001969093CF008093CE000897D4F0109250
:10113000CF001092CE002F5F2093D2008FEF90E06F
:10114000821B91096BEE7FEF0E945E2C645F6093BF
:10115000D30007C08CE08093D3001092CF00109290
:10116000CE008091D20090E00E944C0590E00E9459
:10117000531208951092CF001092CE0083E090E0B9
:101180009093CD008093CC000895809162000895E3
:101190008091630008958091DD0008958FEE90E0C6
:1011A00008958EED90E0089581E080936200EFEE67
:1011B000F0E08081882319F01092620005C031961A
:1011C00081E0E030F807A9F781E080936300EEED5D
:1011D000F0E08081882319F01092630005C03196F9
:1011E00080E0EF3EF807A9F780916200882341F480
:1011F0000E94D417882331F48091DD00882311F4F4
:101200001092DC000895AEEDB0E0EFEEF0E081E189
:1012100001900D928150E1F70895DF93CF930F92E3
:10122000CDB7DEB719828FEE90E0BE016F5F7F4FC2
:101230000E94BC0A8981882319F01092010107C01D
:1012400080910101843618F48F5F8093010120E0C2
:101250009091010180910001981709F421E0822FFB
:101260000F90CF91DF9108950E940D0908950E947B
:101270004123882329F00E9441238093DB000895B5
:101280001092DB000895CF92DF92FF920F931F938D
:10129000CF93DF938091DC00882339F00E943709D7
:1012A0001092DD001091DC005CC00FEE10E0FF2416
:1012B00081E0C82ED12CF8018081882309F444C034
:1012C000C0E0D0E096010C2E02C0220F331F0A941A
:1012D000E2F7F8018081822391F18091DB006F2D8C
:1012E0004C2F0E9449180E94E5168E3F99F0883FC6
:1012F00011F412E010C0863F11F413E00CC08B3FD4
:10130000F1F48091DB008230D1F481E08093DD0044
:1013100010E027C011E00E94EB25882351F0809156
:101320006300882321F48091DD008823C1F41093A9
:10133000DC000E94370981E08093DD0012C0219615
:10134000C830D10509F0BECFF3940F5F1F4FF1E114
:10135000FF1609F0B0CF0E9437091092DD001091FE
:10136000DB00812FDF91CF911F910F91FF90DF90D4
:10137000CF90089581E1EEEDF0E0DF01982F1D920E
:101380009A95E9F7EFEEF0E0DF011D928A95E9F713
:1013900008950E947E0A87E0809300018AE080938E
:1013A00001010895FC018381813261F08232D9F01C
:1013B000823081F585ED91E09093800580937F05E3
:1013C0008BE308958281882319F0813019F503C0D9
:1013D00087EE91E002C080E092E0909380058093D8
:1013E0007F0589E0089584819581009719F0019720
:1013F00089F408C082E191E09093800580937F0595
:1014000080E4089582E591E09093800580937F05C4
:1014100083E8089580E00895FC018091030188230A
:1014200029F0613019F480810E9481281092030113
:1014300081E008950F931F93CF93DF93182F092F07
:101440000E946E26C12FD02F888180768032D1F500
:101450008981813041F487E794E0909380058093FF
:101460007F0588E030C0893071F48A819B8180508B
:10147000924041F58C819D81892B21F581E08093FB
:1014800003018FEF20C0823019F48091020114C053
:101490008A3031F40E9472268B818093020112C03F
:1014A000833031F48B81882369F4109264000BC07F
:1014B0008B3041F48091640080937F051092800509
:1014C00081E001C080E0DF91CF911F910F910895DD
:1014D00028E088E190E00FB6F894A89581BD0FBE92
:1014E00021BDFFCF813011F090E006C090E0613067
:1014F00009F091E081E09827892F08958FEF87BB4D
:1015000088BB1ABA14BA8BBB85BB8F98979A08957B
:1015100021E030E002C0220F331F8A95E2F727BB9B
:10152000209528BB84E18A95F1F70895282F88300B
:1015300058F449B381E090E002C0880F991F2A95C2
:10154000E2F74095482316C0682F70E0803120F400
:1015500043B38FE090E003C040B387E190E0861B87
:10156000970B21E030E002C0220F331F8A95E2F78B
:1015700040954223842F08955F926F927F928F92BD
:101580009F92AF92BF92CF92DF92EF92FF920F9312
:101590001F93CF93DF93782EC92E5B0100E010E0FC
:1015A00091E0892E912C84E1582E66246394940155
:1015B000002E02C0220F331F0A94E2F727BB822FAE
:1015C000809588BB852D8A95F1F7472D5C2DCA0142
:1015D000EC01FF24E22ED22ED0948F2D0E94960A89
:1015E000282F98818E2D892319F0222329F008C0F5
:1015F000222331F09E2901C09D219883F50160824C
:10160000F3942196F1E1FF1641F70F5F1F4F083069
:10161000110569F6DF91CF911F910F91FF90EF9027
:10162000DF90CF90BF90AF909F908F907F906F9002
:101630005F90089580930501F894809180048F7ED7
:1016400080938004809180048860809380047894E3
:101650000895F894809180048B7F8093800478941F
:101660008091040108958091800490E0969587957B
:1016700096958795817008958091800490E034E07C
:10168000969587953A95E1F7817008958FEC82BF22
:1016900080917F04833000F58B98939A8091800429
:1016A00080FF23C0829BA3C080917F04813031F0F2
:1016B000813040F0823009F0F6C006C0839902C044
:1016C0008DE096C082E094C08091800483FFEBC0DF
:1016D00093988B9A84E28CC080917F048A3108F0C1
:1016E00079C08091800480FD08C080918004816071
:1016F000809380048A98929A0895829B76C0809104
:101700007F04873140F4803118F58D3061F08F30DF
:1017100009F055C00CC08831E1F1883158F18931A8
:1017200009F04DC049C0809180048D7F4DC08091EB
:1017300080048B7F80938004839B05C080E8809326
:10174000040181E014C0109207011092040137C017
:1017500080910401869580930401839B30C0809121
:101760000401806880930401809107018F5F80935A
:10177000070125C0839B05C0809107018F5F80937F
:1017800007018091070180FD1AC08091800482606A
:1017900010C0839905C0809180048260809380048A
:1017A0008091800481FD0BC093988B9A8091800476
:1017B00084608093800403C08B98939A6CC0929845
:1017C0008A9A809180048E7F8093800480917F0428
:1017D0008F5F0EC080917F048F3208F064C08091CB
:1017E000800480FF10C0829906C08B98939A81E094
:1017F00080937F040895809180048E7F809380047D
:1018000092988A9A089580918004816080938004E0
:101810008A98929A80917F048C3228F4853280F4E1
:101820008432E1F507C08D3299F18D32E8F08E32C5
:10183000A9F531C08091050180930601109207013E
:101840008091060180FF08C08B98939A80910701D0
:101850008F5F8093070102C093988B9A8091060155
:101860008695809306011AC08091070180FF03C00E
:1018700093988B9A02C08B98939A80918004877F6B
:10188000809380048091800480618093800406C0EE
:101890008B98939A03C010927F04089580917F04DF
:1018A0008F5F80937F04089510927F0481E180937D
:1018B00080048A98929A8B98939A0E94A71082E04B
:1018C0000E94E81080E066E47BE00E941E118FEC2D
:1018D00082BF0895282F8F3F31F410920A0181E0D2
:1018E00080930F0108958E3F21F08D3F29F41092CF
:1018F0000A0110920F01089580910F01882351F081
:1019000080910A01E82FF0E0E352FE4F20838F5FC1
:1019100080930A0180910B0190910C01019668EC73
:1019200070E00E945E2CFC0190930C0180930B01EF
:1019300080910D0190910E018E179F0759F4009729
:1019400019F487EC90E001C0019790930C0180930B
:101950000B010895EC5EFE4F2083089540E0209136
:101960000D0130910E0180910B0190910C0128170F
:10197000390709F041E0842F0895FF920F931F93D8
:10198000F62E882309F49CC00E94F316182F8D3B75
:1019900008F096C0A82FB0E0FD01E058FD4F04917B
:1019A000FF2009F45CC08093DC011092E7011092E3
:1019B000E8011092E9011092EA0110928304A55106
:1019C000BE4F8C91F82E81FF2DC0163419F01834BB
:1019D000F1F50EC08FEF0E946A0C80EE0E946A0C37
:1019E00082E10E946A0C80EE0E946A0C8CE727C09C
:1019F0008DEF0E946A0C81EE0E946A0C84E10E94C5
:101A00006A0C87E70E946A0C81EE0E946A0C80EFE4
:101A10000E946A0C84E10E946A0C80EF0E946A0CAA
:101A200087E710C082FF02C0802F0CC08FEF0E949A
:101A30006A0CF0FE03C080EE0E946A0C802F0E94A8
:101A40006A0C8EEF0E946A0C8CEF0E946A0CF5FE05
:101A500039C0173411F40E94DE178BEF2EC080912D
:101A6000DC01811711F410920A01E12FF0E0E55139
:101A7000FE4F808181FF13C0163421F580EE0E9455
:101A80006A0C80EF0E946A0C8CE70E946A0C80EE60
:101A90000E946A0C80EF0E946A0C82E10BC082FDFA
:101AA00011C080FF03C080EE0E946A0C80EF0E948C
:101AB0006A0C802F0E946A0C8CEF0E946A0C02C094
:101AC00080E001C081E01F910F91FF900895809107
:101AD0007404882339F481E0809374040E940D2BF0
:101AE0000E94152108951F93162F8E3F11F08093A9
:101AF00082040E941A0B109383041F9108958F9201
:101B00009F92AF92BF92CF92DF92EF92FF920F938C
:101B10001F93CF93DF9388E0809383040E94540C3B
:101B2000EBEEF1E0119222E0EB38F207D9F726E66E
:101B300033E006C0FC01E551FE4F80818260808366
:101B4000F901849190E02F5F3F4F009799F729E6C4
:101B500033E006C0FC01E551FE4F80818460808344
:101B6000F901849190E02F5F3F4F009799F72DE6A0
:101B700033E006C0FC01E551FE4F80818860808320
:101B8000F901849190E02F5F3F4F009799F722E78A
:101B900033E006C0FC01E551FE4F80818160808307
:101BA000F901849190E02F5F3F4F009799F720EA69
:101BB00033E006C0FC01E551FE4F808180618083E7
:101BC000F901849190E02F5F3F4F009799F72FEA3A
:101BD00033E006C0FC01E551FE4F808180628083C6
:101BE000F901849190E02F5F3F4F009799F7109291
:101BF0000E0110920D0110920C0110920B01109227
:101C00000A01109210011092E7011092E80110925F
:101C1000E9011092EA0186E090E00E94FB2D8F3FDF
:101C200009F481E060910901662319F480930901A8
:101C300006C0681721F086E090E00E94032E85E63A
:101C400090E00E94961487E690E00E94FA290E9494
:101C5000BA09789499249394A5E0AA2EB12CC12CAA
:101C6000D12CF6E98F2ECCEFD0E08091C0008823F4
:101C700009F5809174048823E9F4809172049091AD
:101C80007304019690937304809372040197895EA4
:101C9000934084F081E08093C000DF91CF911F9149
:101CA0000F91FF90EF90DF90CF90BF90AF909F90FB
:101CB0008F9008958091800481FF07C0F8948091EF
:101CC00080048D7F8093800478940E94330B882356
:101CD00009F402C180911101909112018C3F91058C
:101CE00061F020910D0130910E0180910B019091D6
:101CF0000C012817390709F0EFC00E94290B8093C7
:101D00008B021092130160918304623009F46BC05E
:101D1000633018F4613039F460C0663009F4C8C02B
:101D2000673009F47BC0833F79F1843F70F48E3EC5
:101D3000D1F08F3E20F48D3E09F0CAC022C0803F12
:101D4000E9F0823F09F0C4C010C0863F39F1873FF7
:101D500020F4843F09F0BCC01AC08E3F61F08F3F71
:101D600009F0B6C005C08EEEB5C08AEF64E0B2C01F
:101D70008AEF68E0AFC080918204ACC08AEF62E075
:101D8000A9C08AEF66E0A6C08AEF67E0A3C08AEF29
:101D900060E00E94730D0E94670D9EC090926900E2
:101DA000A0926A00B0926B00C0926C00D0926D005D
:101DB00010920E0110920D0110920C0110920B0165
:101DC00010920A01109210011092E7011092E8019E
:101DD0001092E9011092EA017BC0853F09F478C0B6
:101DE0008AEF61E077C010920E0110920D011092FF
:101DF0000C0110920B0110920A0110921001109226
:101E0000E7011092E8011092E9011092EA0188239B
:101E100011F060E001C063E08AEF5CC090E09C01DB
:101E200020763070E5E035952795EA95E1F7209327
:101E300069009C012770307030938D0220938C02D2
:101E40008871907073E0959587957A95E1F79093F6
:101E50008F0280938E0241E050E020E030E004C029
:101E6000440F551F2F5F3F4F28173907CCF340937E
:101E700092025093930230939102209390028091AA
:101E80008C0290918D029C01429FC001439F900D56
:101E9000529F900D1124AA2797FDA095BA2F8093E9
:101EA0006A0090936B00A0936C00B0936D0010C01B
:101EB0000E94670D80918B02982F80E090FD84E056
:101EC00091FD816092FD82600E9443050E944E0652
:101ED0008AEF60E00E94730D0E943C0B882309F496
:101EE000C4CE80911301882309F0BFCE8091830472
:101EF000843009F40DC1853030F4882371F08330CB
:101F000009F0B3CE03C1883009F407C18C3009F45D
:101F100080C0853009F0A9CEFEC020910D0130911E
:101F20000E0180910B0190910C012817390711F4D3
:101F30000E9416160E94342320910D0130910E014B
:101F400080910B0190910C012817390711F480E062
:101F50000EC0C901019668EC70E00E945E2CFC0185
:101F600090930E0180930D01EC5EFE4F8081282F2F
:101F700030E030931201209311012B3F310539F4E9
:101F8000D0931201C0931101909213016ECE2C3F99
:101F9000310509F46ACE232B21F060E00E94730D15
:101FA0005EC080910A01882309F45FCE2091E70189
:101FB0003091E8014091E9015091EA012F5F3F4FD4
:101FC0004F4F5F4F2093E7013093E8014093E901C1
:101FD0005093EA0180916900889DC00111248A51C3
:101FE0009F4FAA2797FDA095BA2F281739074A07B0
:101FF0005B070CF43ACE1092E7011092E8011092C0
:10200000E9011092EA01109210018CE080938304A0
:102010002CCE80911001882311F40E9416160E9484
:10202000342380910A018823C1F020910D01309161
:102030000E0180910B0190910C012817390769F46A
:102040008091E7019091E801A091E901B091EA0146
:102050000197A105B10561F40FC01092830410929D
:10206000E7011092E8011092E9011092EA01FDCD1A
:10207000809110018823A9F090911001E92FF0E0E0
:10208000E352FE4F80819F5F909310016CE00E94AD
:10209000730D60910A01809110010E94522C90935F
:1020A0001001E090E701F090E8010091E901109142
:1020B000EA010894E11CF11C011D111D60916A00E8
:1020C00070916B0080916C0090916D002AE030E07F
:1020D00040E050E00E94332C6D5F7F4F8F4F9F4F49
:1020E0002091090130E040E050E00E94332C9B0138
:1020F000AC01C801B7010E94932C6093E701709373
:10210000E8018093E9019093EA01AFCD82E01AC023
:102110008BEA65E018C083E815C010920E0110929A
:102120000D0110920C0110920B0110920A011092F5
:1021300010011092E7011092E8011092E90110924B
:10214000EA018AEA60E00E94730D8FCD089583B79B
:10215000887F826083BF12BE89B7816089BF109279
:1021600084041092850410928604109287040895C6
:102170008EB5887F83608EBD1DBC1CBC89B7846012
:1021800089BF089585B5887F846085BD14BC89B7F3
:10219000806489BF10928C0410928D0410928E047A
:1021A00010928F04089580E090E0FC01EE0FFF1F75
:1021B000EC56FD4F11821082019688309105A9F7E7
:1021C0000E94A7100E94B8100E94C210789408952F
:1021D00093B7987F982B93BF08959EB5987F982BBF
:1021E0009EBD089595B5987F982B95BD089583B7AA
:1021F000E82FF0E0E770F070EE0FFF1FE05FFD4F9B
:1022000025913491C90108958EB5E82FF0E0E7706B
:10221000F070EE0FFF1FE05FFD4F25913491C90173
:10222000089585B5E82FF0E0E770F070EE0FFF1F1E
:10223000E45EFD4F25913491C9010895883040F442
:10224000E82FF0E0EE0FFF1FEC56FD4F7183608327
:102250000895883040F4E82FF0E0EE0FFF1FEC56B1
:10226000FD4F118210820895AF92BF92CF92DF92FC
:10227000EF92FF920F931F93CF93DF93EC0112B76E
:10228000109288041092890410928A0410928B0490
:1022900083B7E82FF0E0E770F070EE0FFF1FE05F0C
:1022A000FD4F2591349140E050E060E07BE187EB09
:1022B00090E00E94712CB901CA01693B2DE87207B8
:1022C00026E0820720E09207A0F437E2C131D3076D
:1022D00080F49E0140E050E00E94332C28EE33E071
:1022E00040E050E00E94712CC901DA01BC01CD012F
:1022F0000DC028EE33E040E050E00E94712CCA018E
:10230000B9019E0140E050E00E94332CA72EB82E68
:10231000C92EDD249B01AC01210F311D411D511D32
:1023200079018A0117C08091880490918904A09155
:102330008A04B0918B048A159B05AC05BD0550F449
:1023400085B78F7885BF85B7806885BF889585B745
:102350008F7785BF209188043091890440918A0449
:1023600050918B0482B790E0A0E0B0E0542F432F4F
:10237000322F2227822B932BA42BB52B8E159F0552
:10238000A007B10780F2DF91CF911F910F91FF90CD
:10239000EF90DF90CF90BF90AF900895109284049B
:1023A000109285041092860410928704089520915B
:1023B0008404309185044091860450918704B901CA
:1023C000CA01089510928C0410928D0410928E040C
:1023D00010928F04089520918C0430918D044091C7
:1023E0008E0450918F04B901CA010895893031F4E7
:1023F0008FB582608FBD8FB58E7F0AC08A3019F489
:102400008FB5826002C08FB58D7F8FBD8FB5816023
:102410008FBD1BBC1ABC19BC18BC08952FB52E7FEC
:102420002FBD2FB522602FBD2EB528602EBD2EB535
:1024300020612EBD97BD86BD1BBC1ABC19BC18BC43
:1024400008958FB58D7F8FBD8FB58E7F8FBD8FB572
:102450008F778FBD8FB58F7B8FBD8FB58F7D8FBDF4
:102460008FB58F7E8FBD08958FB580688FBD8FB576
:102470008F7B8FBD08958FB580628FBD8FB58F7EA6
:102480008FBD08958FB58F778FBD8FB58F7B8FBD33
:1024900008958FB58F7D8FBD8FB58F7E8FBD0895C9
:1024A0009BBD8ABD089599BD88BD08951F920F9266
:1024B0000FB60F9211242F933F934F935F936F9317
:1024C0007F938F939F93AF93BF93EF93FF938091ED
:1024D000840490918504A0918604B09187040196AC
:1024E000A11DB11D8093840490938504A09386045C
:1024F000B09387048091880490918904A0918A0404
:10250000B0918B040196A11DB11D80938804909316
:102510008904A0938A04B0938B04809194029091D3
:102520009502892B29F0E0919402F091950209958A
:10253000FF91EF91BF91AF919F918F917F916F919B
:102540005F914F913F912F910F900FBE0F901F9071
:1025500018951F920F920FB60F9211242F933F934D
:102560004F935F936F937F938F939F93AF93BF939B
:10257000EF93FF938091960290919702892B29F017
:10258000E0919602F09197020995FF91EF91BF912A
:10259000AF919F918F917F916F915F914F913F91FB
:1025A0002F910F900FBE0F901F9018951F920F92B2
:1025B0000FB60F9211242F933F934F935F936F9316
:1025C0007F938F939F93AF93BF93EF93FF938091EC
:1025D0008C0490918D04A0918E04B0918F0401968B
:1025E000A11DB11D80938C0490938D04A0938E0443
:1025F000B0938F0480919E0290919F02892B29F0C5
:10260000E0919E02F0919F020995FF91EF91BF9199
:10261000AF919F918F917F916F915F914F913F917A
:102620002F910F900FBE0F901F9018951F920F9231
:102630000FB60F9211242F933F934F935F936F9395
:102640007F938F939F93AF93BF93EF93FF9380916B
:10265000A2029091A302892B29F0E091A202F091AD
:10266000A3020995FF91EF91BF91AF919F918F9137
:102670007F916F915F914F913F912F910F900FBE7E
:102680000F901F9018951F920F920FB60F92112462
:102690002F933F934F935F936F937F938F939F936A
:1026A000AF93BF93EF93FF9380919802909199021B
:1026B000892B29F0E0919802F09199020995FF91F8
:1026C000EF91BF91AF919F918F917F916F915F91AA
:1026D0004F913F912F910F900FBE0F901F90189523
:1026E0001F920F920FB60F9211242F933F934F9387
:1026F0005F936F937F938F939F93AF93BF93EF936A
:10270000FF9380919A0290919B02892B29F0E0918E
:102710009A02F0919B020995FF91EF91BF91AF91C1
:102720009F918F917F916F915F914F913F912F91E9
:102730000F900FBE0F901F9018951F920F920FB61B
:102740000F9211242F933F934F935F936F937F9337
:102750008F939F93AF93BF93EF93FF9380919C02CE
:1027600090919D02892B29F0E0919C02F0919D02AD
:102770000995FF91EF91BF91AF919F918F917F91BB
:102780006F915F914F913F912F910F900FBE0F90DE
:102790001F9018951F920F920FB60F9211242F932E
:1027A0003F934F935F936F937F938F939F93AF93D9
:1027B000BF93EF93FF938091A0029091A102892B88
:1027C00029F0E091A002F091A1020995FF91EF910B
:1027D000BF91AF919F918F917F916F915F914F9139
:1027E0003F912F910F900FBE0F901F90189586E08C
:1027F00084BD8091900490919104019690939104EE
:1028000080939004089598EA899FF0011124E05084
:10281000F849E49180E0E150EE3F08F481E008954A
:102820008091A40208951092A40280E00E94F21008
:1028300008950F931F931092910410929004109298
:10284000A6021092A50208EA2091A7023091A802E0
:10285000283A31051CF00E94131430C0E0916E003C
:10286000E09FA0011124C9010196240F351F2050BB
:102870003849F901249101969093A8028093A70208
:102880000197480F591F40505849FA011491822F5F
:1028900081508E3F78F4822F0E94BC21912F9F7728
:1028A00099F28BE4989FC00111249093A602809323
:1028B000A50204C00E9413140E9400221F910F91D0
:1028C00008958091A402882369F0209190043091AA
:1028D00091048091A5029091A6022817390714F05F
:1028E0000E9419140895982F8091A402882391F4CE
:1028F00081E08093A40290936E001092A602109241
:10290000A5021092A8021092A7020E94191485B580
:10291000836085BD08950E94C21085E067EF73E172
:102920000E941E1180E00E94F21008959093AC0264
:102930008093AB0208950F931F93182F062F6623E1
:1029400029F00E94F31661E00E94ED17E091AB02BE
:10295000F091AC020190F081E02D812F602F09955C
:102960001F910F910895DF92EF92FF920F931F93A3
:10297000182F062FE42ED22E642F422F202F0E94D4
:102980009523F82E002329F0112319F081E00E94ED
:1029900099170E942919882339F0812F6E2D4D2D0A
:1029A000202F0E94B81D16C0FF20A1F0002329F09F
:1029B000812F0E94521A882369F4812F602F0E9470
:1029C0006525E091AB02F091AC020190F081E02D21
:1029D000602F09951F910F91FF90EF90DF90089560
:1029E000EF92FF920F931F93F82E142FE22E64178D
:1029F000C9F00E94F316612F0E94ED178F2D612FF1
:102A00000E9447238F2D0E946323882359F01123AE
:102A100019F08F2D61E002C08F2D60E04E2D202F28
:102A20000E94B3141F910F91FF90EF9008952F9281
:102A30003F924F925F926F927F928F929F92AF924E
:102A4000BF92CF92DF92EF92FF920F931F93DF938B
:102A5000CF9300D00F92CDB7DEB70E943409882300
:102A600009F4CEC00E944309882E0E94CE083C0182
:102A70000E94D1088983492E0E94EB25882329F0E2
:102A80008091AA02882309F05AC08091A902881572
:102A900009F455C0EE24FF2491E0292E312C3FC0CB
:102AA0005A808091A902652D4B2D0E944918082F4C
:102AB000882D6A814B2D0E944918A82E0817F1F025
:102AC000802F0E94BE188823C9F4EA81FB81E60D9D
:102AD000F71D1081F6018081892139F0802F61E096
:102AE00040E02B2D0A810E94F014192139F08A2D23
:102AF00060E041E02B2D052D0E94F0148A819B811E
:102B000001969B838A830894C11CD11C419741F68E
:102B10000894E11CF11C98E0E916F10481F0BE2C48
:102B2000C1010E2C02C0880F991F0A94E2F7982E5B
:102B30002981342DC9016C011B821A82B1CF809288
:102B4000A9020E94CB088093AA020E94CE08182FE7
:102B5000092F0E94D1086C01212F302FC9017C015F
:102B6000BB2481E0682E712CF6018081882321F43A
:102B7000F70180818823A9F144245524942CC301B2
:102B8000042C02C0880F991F0A94E2F7F601108105
:102B90001823F70100810823882D6B2D442D0E94F6
:102BA0004918A82E0E940F23882349F0101791F08E
:102BB0000023B9F08B2D642D0E94122312C060E017
:102BC000111161E040E0011141E08A2D292D0B2D0A
:102BD0000E94F0140894411C511CF8E04F16510457
:102BE00069F6B3940894C11CD11C0894E11CF11C33
:102BF00081E1B81609F0B8CF0E9403090E94D408F9
:102C00000F900F900F90CF91DF911F910F91FF9038
:102C1000EF90DF90CF90BF90AF909F908F907F907C
:102C20006F905F904F903F902F9008950F931F9358
:102C30000E949522882349F10E940322882329F5C6
:102C40000E94D822092F813051F4E091AB02F0911B
:102C5000AC020190F081E02D892F61E015C0892F31
:102C60008756883040F40E94DE17182F802F0E946C
:102C7000CD18182351F4E091AB02F091AC02019011
:102C8000F081E02D802F60E009950E9417151F91BB
:102C90000F910895982F8091AF0280FF0FC0993651
:102CA00011F49AE60BC09A3611F499E607C09D36E6
:102CB00011F49EE603C09E3609F49DE6892F08951F
:102CC0001F9381E00E94D417882309F067C00E94F7
:102CD000DE17182F80E00E94D417982F112311F4CB
:102CE0001092AE02992311F41092AD028091AE02BF
:102CF0001817E1F08091AD028917C1F01C3031F056
:102D0000103C21F0183411F0143851F4983241F489
:102D10001092B4021092B30282E08093B00202C01B
:102D20001092B0021093AE029093AD024091B002A7
:102D30004423B1F18091B3029091B4020196909333
:102D4000B4028093B3022091B1023091B2022817ED
:102D5000390734F54230E1F482E390E00E94150730
:102D60008091AF0280FF04C08E7F8093AF0210C0BD
:102D700081608093AF0284EF91E02CE231E0F901B1
:102D80003197F1F70197D9F784E690E00E94150793
:102D900088E090E06091AF020E94032E1092B00292
:102DA0001F91089588E090E00E94FB2D8093AF0270
:102DB0008F3F11F41092AF0288E893E10E94EF294F
:102DC0009093B2028093B1020895E82F865D883116
:102DD00040F4F0E0EA5AFE4FE4918E2F0E9446182C
:102DE000E82F8E2F0895982F8091B502882321F027
:102DF000892F0E94E516982F892F0895282F865D28
:102E00008831A8F4822F90E0865D9040FC01E45A5E
:102E1000FD4FE491EE2321F0822F0E94E51606C0BB
:102E20008C5B9D4FFC0184910E944618282F822FB5
:102E300008951F93982F865D662381F18831A8F449
:102E40008091B6028F5F8093B6028091B70288238B
:102E500009F58091B8028823E9F49093B90281E0E2
:102E60008093B7021092B50262C08091B9028823A4
:102E700039F081E08093B5028091B8028F5F55C030
:102E80008091B702882309F052C08091B8028F5F09
:102E90008093B80281E08093B50249C0883108F080
:102EA0003FC08091B602882319F081508093B6020A
:102EB0001091B902112369F18091B502882349F577
:102EC000812F865D883148F4E12FF0E0E259FE4F12
:102ED000E4918E2F0E944618182F812F0E94BC214A
:102EE000812F0E94BC211092B9021092BB02109255
:102EF000BA020E944719882361F0812F60E040E008
:102F000021E00E94B81D812F60E040E020E00E9497
:102F1000B81D8091B602882351F41092B70207C001
:102F20008091B802882319F081508093B8021F91D4
:102F300008951F93182F9091B9029923E9F0809179
:102F4000B5028823C9F0892F0E94E516612F0E94DF
:102F50009B140E944719882349F08091B9020E946E
:102F6000E51660E040E021E00E94B81D1092B90231
:102F70001092BB021092BA021F9108958091B9027B
:102F8000882389F08091BA029091BB0201969093B8
:102F9000BB028093BA02855F914028F081E0809364
:102FA000B5020E9499170895863010F080E00895C8
:102FB000E82FF0E0E454FD4F808108958091C20233
:102FC00008951092C3021092C20286E0ECEBF2E088
:102FD000DF011D928A95E9F708950F931F93082F3B
:102FE0008756662301F1883038F41091C202802F91
:102FF0000E94CD18182B20C08091C302863080F526
:103000000D3B70F58CEB92E0602F0E9464218F5F86
:103010009F4F31F58091C302E82FF0E0E454FD4F5B
:1030200000838F5F1BC0883050F41091C202802F44
:103030000E94CD18809518231093C20211C08CEB0A
:1030400092E0602F0E946421BC0197FD09C08CEBC7
:1030500092E00E947E218091C30281508093C3023E
:103060001F910F91089598E8899FF0011124E05075
:10307000FB4970E083E0660F771F8A95E1F7E60F62
:10308000F71FE40FF11DE4918E2F08950E944A1658
:103090000895EF92FF920F931F93082FF62EE42EC0
:1030A0000E9429198823B9F10E944719882309F43D
:1030B0004BC0033010F010E011C081E1089FC00147
:1030C00011248F0D911D53E0880F991F5A95E1F738
:1030D0008E0D911D0D960E94FB2D182F812F815072
:1030E0008E3F90F0E8E80E9FF0011124E050FB497C
:1030F0008F2D90E043E0880F991F4A95E1F7E80F84
:10310000F91FEE0DF11D1491812F0E9439198823AA
:1031100069F110E02BC0033010F010E011C081E124
:10312000089FC00111248F0D911D33E0880F991F56
:103130003A95E1F78E0D911D0D960E94FB2D182FEB
:10314000812F81508E3F90F0E8E80E9FF00111240E
:10315000E050FB498F2D90E023E0880F991F2A95BE
:10316000E1F7E80FF91FEE0DF11D1491812F0E9478
:103170004A161F910F91FF90EF900895982FE4E762
:10318000F2E08491981711F481E00895319682E07D
:10319000E837F807B1F780E00895E82FF0E0EF5E38
:1031A000FD4FE4918E2F08958091C402089580917F
:1031B000C402882329F481E08093C4020E94CB05D5
:1031C00008958091C4028823C9F48091C50290912A
:1031D000C60201969093C6028093C502805395471C
:1031E00068F01092C6021092C5028091C7028F5FEC
:1031F0008093C7028A3011F40E94D71808958091F5
:10320000C402882321F01092C4020E9498061092F2
:10321000C6021092C5021092C70208952091EB02D7
:10322000E22FF0E0EE0FFF1FED51FD4F9183808301
:103230002F5F2093EB0208958093D602089580912A
:10324000D202817008958091D20283608093D2026D
:1032500008958091D202827008958091D4020895D9
:1032600081E08093D40208951092D2021092D70286
:10327000089590E08D5B883108F491E0892F0895DE
:1032800090E0895C8C3008F491E0892F089590E0FB
:103290008091D6028B3009F491E0892F08958091B6
:1032A000CE02089580E3E3E3F5E0DF01982F1D925D
:1032B0009A95E9F710926305E3E9F4E0DF011D92C6
:1032C0008A95E9F71092CD02089588E20E94BC2108
:1032D00088E20E94BC2108951F93182F0E94521962
:1032E000109392048BE08093D6028091D202836087
:1032F0008093D20281E08093CE0284EF91E00E941D
:10330000150788EE93E02CE231E0F9013197F1F7EF
:103310000197D9F784EF91E00E9415071F91089556
:103320008091D20281608093D20282E390E00E9479
:10333000150784EF91E02CE231E0F9013197F1F7C4
:103340000197D9F782E390E00E94150784EF91E09E
:103350002CE231E0F9013197F1F70197D9F784E6D2
:1033600090E00E94150708951F93CF93DF938091FB
:1033700092048C30C8F4C0E0D0E010E38091920455
:10338000819FC00111248B559E4FFE01ED5CFA4FC9
:103390008C0F9D1F60810E94032E2196C033D105A2
:1033A00069F78FEF80939204DF91CF911F91089579
:1033B0000E94B4198FEF809392041092D60210925B
:1033C000CE021092D2021092D70288EE93E00E94B1
:1033D000150708950F931F93CF93DF93982F8C3089
:1033E000C0F480E3989FC0011124EC01CB55DE4F5F
:1033F0008C010B521E4FCE010E94FB2D982F815045
:103400008E3F18F4892F0E94BC212196C017D10746
:1034100091F7DF91CF911F910F910895CF92DF9295
:10342000EF92FF920F931F93CF93DF939091DD0262
:1034300088E8989F700111248DE090E0E80EF91E55
:10344000CC24DD2417C0CE018E0D9F1D0E94FB2DC4
:10345000F80181938F012196C830D105A1F7089416
:10346000C11CD11C88E090E0E80EF91E91E1C9165C
:10347000D10459F0860143E0000F111F4A95E1F78E
:1034800005551B4FC0E0D0E0DECF1092DC02109259
:10349000DB02DF91CF911F910F91FF90EF90DF90B2
:1034A000CF9008950F931F93182F8091D20280FD23
:1034B00030C0012F0D5B083160F50E9495228823F2
:1034C000F9F4193C90F0195C80E3189FC0011124B5
:1034D0008B559E4F0E94FB2D81508E3FE0F40E9441
:1034E000A622812F0E94EA1916C0802F0E94031481
:1034F000882389F00E94A622802F0E9473140BC09B
:103500000E94FD21882329F00E94D3220E940022DC
:1035100002C080E001C081E01F910F9108950F93D8
:103520001F93FC0180810E9412228C01882319F0D4
:1035300088E60E94BC21812F0E94BC21812F0E941D
:10354000BC21002319F088E60E94BC211F910F9135
:103550000895CF92DF92EF92FF920F931F93DF9324
:10356000CF930F92CDB7DEB78C01009711F52FC026
:1035700000D000D000D0EDB7FEB73196ADB7BEB7E2
:103580001296FC92EE921197D382C282992787FD00
:103590009095958384830E94792D8DB79EB706966A
:1035A0000FB6F8949EBF0FBE8DBFC7010E948F1A41
:1035B00008C07E010894E11CF11C5FE6C52E50E0B6
:1035C000D52EF8010F5F1F4F8491882389F60F9045
:1035D000CF91DF911F910F91FF90EF90DF90CF90EF
:1035E00008950E94A91A0E946519089583E896E03B
:1035F0000E94F11A81E08093CC028CE08093D70284
:103600001092D602089585E695E00E94F11A23EB08
:1036100034E080E090E00BC01192E217F307E1F78D
:1036200001969F01285F3F4F8131910549F0FC01D0
:1036300063E0EE0FFF1F6A95E1F7E555FB4FECCF16
:1036400081E090E09093DC028093DB02089580910A
:10365000DB029091DC02892B29F41092D2021092A5
:10366000D702089586EB95E00E94F11A81E08093DD
:10367000CC028BE08093D7028091D6028093D8024F
:103680001092D602089580EC95E00E94F11A0895F8
:10369000AF92BF92CF92DF92FF920F931F93DF936F
:1036A000CF930F92CDB7DEB78C01FF246E01089443
:1036B000C11CD11C7FE6A72E70E0B72E25C000D01C
:1036C00000D000D0EDB7FEB73196ADB7BEB71296B9
:1036D000DC92CE921197B382A282800F911FDC01FF
:1036E0008C91992787FD9095958384830E94792DED
:1036F0008DB79EB706960FB6F8949EBF0FBE8DBFCE
:10370000C6010E948F1AF3948F2D90E0F80101906A
:103710000020E9F73197E01BF10B8E179F0778F235
:103720000F90CF91DF911F910F91FF90DF90CF907D
:10373000BF90AF9008950F931F938B010E94481B79
:10374000C8010E94A91A1F910F9108950F931F930A
:1037500084EE93E00E94A91A08EC13E0C8010E94CD
:10376000A91A809192048F5F0E948722B8010E945B
:103770009B1B83E896E00E94F11A81E08093CC02C3
:103780008DE08093D7021092D6021F910F91089579
:103790000F931F930E94651984EE93E00E94F11A23
:1037A0008CEF93E00E94F11A81E194E00E94A91A43
:1037B0000E94651983E00E9487220AEC13E0B80199
:1037C0000E949B1B8AED93E00E94F11A86E00E9402
:1037D0008722B8010E949B1B8FED93E00E94F11A93
:1037E0008FE194E00E94F11A87E08093D6021F9146
:1037F0000F9108951F930E94651983EB93E00E9437
:10380000F11A81E00E9487226AEC73E00E949B1B00
:1038100084EE93E00E94F11A82E00E9487226AEC13
:1038200073E00E949B1B8BE294E00E94F11A10E06F
:103830001AC08091ED028F5F810F0E9487226AEC8F
:1038400073E00E949B1BE12FF0E0EE0FFF1FED5194
:10385000FD4F0190F081E02D0190F081E02D099560
:103860000E9465191F5F8091EB02181710F381E029
:103870008093CC028EE08093D7021092D6021F91E3
:10388000089583E0EFEDF2E0DF011D928A95E9F7FC
:103890001092E2021092DD021092D5020E94FA1BF1
:1038A000089581E08093CC028091D602893090F413
:1038B000873008F03FC0833089F1843030F48130A4
:1038C000E1F0823009F05DC026C0853069F18630B4
:1038D00070F527C08D30B1F18E3030F4893079F138
:1038E0008B3009F04EC031C08E3609F448C088379D
:1038F00089F1843609F045C037C08BEA94E00E9414
:10390000A91A8091DD028F5F0E9487220E94481BC6
:103910000E94651936C08DED94E019C08CEF94E0DB
:103920000BC089E295E026C081E495E023C01092A7
:10393000CC0227C086EC95E00E94A91A22C082ED35
:1039400095E0FACF8BE096E0F7CF8FE296E00E9409
:10395000F11A17C08AEE93E00E94F11A1092D60273
:1039600081E00E942F230DC01092D2021092D70244
:103970008FEB93E00E94F11A1092D60202C00E94CF
:10398000FA1B8091D602882349F088EE93E02CE25E
:1039900031E0F9013197F1F70197D9F70895809156
:1039A000CE02882319F00E94D81908950E94B419F4
:1039B00087E08093D6020E9465190E94511C0895E9
:1039C0001F93CF93DF93C0E0D0E010E38091920487
:1039D000819FC00111248B559E4F8C0F9D1F60E06D
:1039E0000E94032E2196C033D10581F787E0809392
:1039F000D6020E94511CDF91CF911F910895CF9361
:103A0000DF93C5EAD1E0CE0160E00E94032E21964B
:103A100083E0C53ED807B9F787E08093D6020E94BD
:103A2000511CDF91CF910895BF92CF92DF92EF9218
:103A3000FF920F931F93CF93DF93EE24FF24CC24A8
:103A4000DD2418E8B12E1EC08091DD028B9DC001DF
:103A500011240D968C0D9D1D8C0F9D1FF8016191F9
:103A60008F010E94032E2196C830D10569F7089472
:103A7000E11CF11C88E090E0C80ED91E91E1E91626
:103A8000F10459F08701B3E0000F111FBA95E1F777
:103A900005551B4FC0E0D0E0D7CF1092DC0210924A
:103AA000DB028091D802843039F48093D6021092E0
:103AB000D2021092D70211C0813079F40E946519A8
:103AC00087E995E00E94F11A87E08093D602809101
:103AD000DE028093DD020E940E1A0E94511CDF91CB
:103AE000CF911F910F91FF90EF90DF90CF90BF90FB
:103AF00008950E94651982E694E00E94F11A82E717
:103B000094E00E94F11A86E00E9487226AEC73E03A
:103B10000E949B1B8FED93E00E94F11A88E894E0CD
:103B20000E94F11A87E08093D6020E94511C0895EA
:103B30000F931F9387E00E9487220AEC13E0B801DD
:103B40000E949B1B8AED93E00E94F11A89E00E947B
:103B50008722B8010E949B1B8AEE93E00E94F11A13
:103B600088E08093D6020E94511C1F910F91089506
:103B7000EF92FF920F931F93CF93DF93982FF62E20
:103B8000E42E122F8091CC02882309F0AFC2892F36
:103B90000E94F316082F8091D6028B3009F096C24E
:103BA0000D3B08F0A3C28091CB02882371F01092E4
:103BB000CA021092CB02802F0E94BC21E0916305C3
:103BC000F0E0EE5CFA4F108230C0112371F080916A
:103BD000CD02883108F08AC28F5F8093CD0283E9DD
:103BE00094E0602F0E94B0210FC083E994E0602F21
:103BF0000E946421BC018FEF6F3F780709F476C201
:103C000083E994E00E947E2180916305E82FF0E033
:103C1000ED5CFA4F00838F5F80936305802F0E94D5
:103C2000BC2180916305803318F00E94CF1C5EC2D6
:103C3000112351F0093241F481E08093CA021092BD
:103C4000C9021092C80252C21092CA021092CB024C
:103C50004DC2CA30D10508F049C2E091E202F0E05D
:103C6000E152FD4FC0838C2F0E9487220E94481B87
:103C70000E9465199091DF028091D602883009F088
:103C80004EC0913029F49093D5020E94C81BC6C142
:103C90009230D9F49093D5020E940E1A0E946519B1
:103CA0008BE294E00E94F11A86E394E00E94F11AFC
:103CB00085E494E00E94A91A81E08093CC028AE016
:103CC0008093D7021092D602A9C1973009F45FC041
:103CD000993029F489E08093D50288E73EC0E92F26
:103CE000F0E031978091ED02E81BF1098091EB0241
:103CF00090E0E817F9070CF091C183E68093D502B4
:103D0000E093EC02F0E0EE0FFF1FED51FD4F01904C
:103D1000F081E02D0280F381E02D09952AC08730E3
:103D200009F07CC1963019F48EE68093D60280911A
:103D3000D502823001F5913011F0923019F4909350
:103D4000D6026CC1933031F484E08093D6020E9495
:103D5000271B64C1943041F485E08093D602109211
:103D6000D2021092D7025AC1993009F057C10E946D
:103D7000031B87E051C18130A9F4913011F489E02F
:103D80004BC1923011F48DE047C1933011F484E6B9
:103D900043C1993009F042C18CE08093D6020E9461
:103DA000F61A3CC1833609F039C1E091EC02F0E02B
:103DB000EE0FFF1FED51FD4F0190F081E02D0480CB
:103DC000F581E02D892F602F4F2D2E2D00E00995D4
:103DD00025C1923099F0CA30D10508F087C1809191
:103DE000E202E82FF0E0E152FD4FC0838F5F809345
:103DF000E2028C2F0E9487220E94481B2A9728F0FB
:103E00008091D602823009F071C18091D602833050
:103E100009F407C1843038F4813009F475C0823068
:103E200009F051C1A0C0893021F08D3009F04BC19B
:103E30002DC08091E2028230F9F49091DF028AE095
:103E4000989F900111248091E002280F311DC90133
:103E500001970C9750F4822F8150809392048BE04D
:103E60008093D6020E94521918C1232B09F00FC16A
:103E700087E08093D60211C188EE93E02CE231E016
:103E8000F9013197F1F70197D9F730C18091E2023A
:103E9000823081F59091DF028AE0989F9001112491
:103EA0008091E002280F311DC90101970C9760F441
:103EB000822F81508093920487E08093D6020E94E3
:103EC00065190E94A61B0EC0232B31F487E0809356
:103ED000D6020E94651906C00E94651986E696E022
:103EE0000E94F11A83E0EFEDF2E0DF011D928A9566
:103EF000E9F794C088EE93E02CE231E0F9013197C4
:103F0000F1F70197D9F7F2C09091DF028091DD02BD
:103F1000833030F5092F0150801711F1033000F57F
:103F20008091DB029091DC02181619065CF40E9465
:103F3000651984E895E00E94F11A0E94271B0093FE
:103F4000DE026CC00E94651987E995E00E94F11AB3
:103F500087E08093D6020093DD020E940E1A5EC0B5
:103F60000E94651906CFF092D902E092DA028AEA3D
:103F700095E00E94A91A8091D9028F5F0E94872242
:103F80000E94481B82E790E00E94481B8091DA0261
:103F90008F5F0E9487220E94481B85E790E00E9465
:103FA000481B8091DD028F5F0E9487220E94481B80
:103FB0008EE790E00E94481B8091DD026091DA025A
:103FC0004091D9020E9433180E9487220E94481B08
:103FD00088E890E00E94481B8091D902E091DA02C3
:103FE000F0E093E0EE0FFF1F9A95E1F7E80FF11D67
:103FF000E555FB4F808190E08F3F910511F480E003
:1040000090E00E9487220E94481B82E990E00E9473
:10401000481B0E94651983E08093D6021092E20249
:1040200052C08091E202833009F043C09091DF02D8
:1040300084E6989FA00111248091E0022AE0829FEB
:10404000C0011124480F591F8091E102480F511DF2
:104050004F3F5105E4F48091D902E091DA02F0E09B
:1040600003E0EE0FFF1F0A95E1F7E80FF11DE5559C
:10407000FB4F408387E08093D6028091DB029091D2
:10408000DC0201969093DC028093DB0206C00E9462
:10409000651986E696E00E94A91A83E0EFEDF2E04A
:1040A000DF011D928A95E9F71092E2020E946519DC
:1040B0000AC088EE93E02CE231E0F9013197F1F784
:1040C0000197D9F713C00E94511C10C0112371F43D
:1040D00084E990E0602F0E946421EC019091D60267
:1040E000892F8750823008F074CEB3CDDF91CF9105
:1040F0001F910F91FF90EF9008950E94DE17982F67
:104100008091D20280FD18C08091D3029817A1F04F
:10411000973261F48091CF02882341F41092D1024A
:104120001092D00281E08093CF0204C01092D2029C
:104130001092CF029093D3028091D20280FF0FC0E1
:1041400081FD0DC00E94C808882349F08091D202E9
:1041500083608093D2020E94431B0E94411C809185
:10416000D2028823C9F48091CF028130A9F48091D2
:10417000D0029091D10201969093D1028093D00207
:1041800020919F003091A000281739072CF40E943D
:10419000901982E08093CF028091D20281FF44C0C7
:1041A0008091CC02882339F10E949522882319F549
:1041B0000E94FF298823F9F48091D7028E3019F4E8
:1041C0000E94981D16C08B3019F40E94141D11C056
:1041D0008A3019F40E94791D0CC08D3019F40E94A8
:1041E000E01C07C08C3019F40E94FF1C02C0109222
:1041F000CC021092D7028091CA028823A9F0809144
:10420000C8029091C90201969093C9028093C80296
:10421000895E93404CF081E08093CB0289E26FEF9E
:104220004FEF20E00E94B81D08950E940F238823BD
:1042300019F01092D40208958091D402813021F4B3
:104240000E9490191092D402089584EC99E00E9483
:10425000EF299093A00080939F0082E08093ED026D
:104260001092EB02089528EB3BE003C0F90131976F
:10427000F1F70197D9F708951F93162F0E94FB2D90
:1042800090E002C0959587951A95E2F78095817028
:104290001F9108950F931F93162F042F0E94FB2D3B
:1042A00021E030E002C0220F331F1A95E2F7622F9F
:1042B00060956823002309F4622B87E090E00E9458
:1042C000032E1F910F910895CF93DF93EC01DC0132
:1042D0000D900020E9F71197A81BB90B70E0AD0114
:1042E0000E94042D009719F4EFEFFFEF03C0FC01CB
:1042F000EC1BFD0BCF01DF91CF9108959B01FC01D9
:1043000001900020E9F73197E81BF90B6F5F7F4FB1
:10431000680F791FE21BF30B820F931FAF010E94FE
:104320001A2D0895FF920F931F93F42E9B01DC0129
:104330000D900020E9F78C01060F171FA81BB90B81
:10434000A61BB70B2F5F3F4F820F931FB801AD0124
:104350000E941A2DF801F0821F910F91FF9008958D
:10436000462FDC010D900020E9F71197A81BB90B2F
:10437000BD010E9492210895282F809123039091DE
:10438000240301966CE271E00E945E2CFC01909384
:1043900024038093230380912103909122038E179D
:1043A0009F0759F4009719F48BE291E001C001973F
:1043B00090932403809323030895EA5DFC4F2083A8
:1043C000089520912103309122038091230390913D
:1043D00024032817390711F480E00895C9010196D4
:1043E0006CE271E00E945E2CFC01909322038093AA
:1043F0002103EA5DFC4F8081089580912503089593
:1044000010922503089540E020912103309122036A
:1044100080912303909124032817390709F441E080
:10442000842F0895982F81568A3118F4292F2D55FD
:1044300010C0892F81548A3120F4292F2D5332E066
:1044400009C0892F8153893010F020E002C0292F44
:10445000235130E0892F992787FD9095A92FB92FF7
:10446000FC01B097EF35F10508F048C0E65DFF4F5D
:10447000EE0FFF1F0590F491E02D09942EE141C04D
:104480002FE13FC020E23DC021E23BC022E239C023
:1044900023E237C024E235C025E233C026E231C032
:1044A00027E22FC02CE22EC02DE22CC02DE229C025
:1044B0002EE228C02EE225C02FE224C02FE221C028
:1044C00020E320C020E31DC021E31CC021E319C06C
:1044D00023E318C023E315C024E314C024E311C070
:1044E00025E310C025E30DC026E30CC026E309C078
:1044F00027E308C027E305C028E304C0222311F402
:1045000028E332E0832F922F089527E2FBCF0F9309
:104510001F930EEE12E090E0B8014AE050E00E94D6
:104520002C2DC8011F910F910895209121033091E6
:10453000220380912303909124032817390719F04F
:1045400081E090E008950E941014089520912103C5
:104550003091220380912303909124032817390777
:1045600039F480E3E1EFF2E0DF011D928A95E9F78B
:1045700008951092240310922303109222031092A4
:1045800021038CE291E0E6E2F3E0DF019C011D9261
:1045900021503040E1F780E3E1EFF2E0DF011D92CE
:1045A0008A95E9F708950E94B9220E94131408958C
:1045B0000F931F93CF93DF930E94E121082F182FB1
:1045C0001D5B1C3058F40E94D322812F0E9473146B
:1045D00081E08093250382E000E01BC0C1EFD2E0C0
:1045E000882331F480E3FE0111928A95E9F70AC02D
:1045F000CE01602F0E946421BC0197FD05C0CE0151
:104600000E947E2182E005C0CE01602F0E94B02171
:1046100081E0902FDF91CF911F910F9108958091AC
:10462000520408950F931F93082F162F81EA90E0EC
:104630000E94481B812F0E9487220E94481B83EA08
:1046400090E00E94481B802F0E9487220E94481BF6
:1046500085EA90E00E94481B1F910F910895809376
:1046600052040E944E0608950E947D200E9460160A
:104670000E9461140E9451240E94BE170E9471077B
:10468000089580915404089580915A0408956623F2
:10469000C9F0843F51F480915804823011F483E0D2
:1046A00001C081E0809358040895833F59F48091BC
:1046B0005904823021F483E080935904089581E005
:1046C000809359040895982F80915804823059F0AE
:1046D00080915904823029F49A3629F080E09E3680
:1046E00019F081E0089580E00895FC018081813017
:1046F000A1F482E0808382E390E00E94150784EFBA
:1047000091E02CE231E0F9013197F1F70197D9F707
:1047100084E690E00E9415070895833029F4108202
:1047200084E690E00E94150708950F931F93182FB9
:10473000022F0E94DD05812F0E94BE18882309F0F8
:10474000ACC0812F602F0E941917812F0E94FE1686
:10475000182F0E94BE18882309F09FC0002309F477
:104760008FC01C3F59F0173F49F0809153048823B4
:1047700009F44DC01A3209F04AC014C080915404A3
:10478000882331F41C3F41F083E0809354040CC033
:104790001C3F21F4823031F082E0F7CF173F11F453
:1047A000833091F71092540480915A048823C1F405
:1047B00080915404882319F484E690E00FC084E6C5
:1047C00090E00E94150780E293E02CE231E0F901CD
:1047D0003197F1F70197D9F786E490E00E94150729
:1047E00080915A04813039F460E080915404811141
:1047F00061E081E009C0823009F04FC060E0809143
:104800005404811161E084E00E94200546C080913B
:104810005504882361F0812F0E944019882339F0C4
:10482000195C1093AD0081E08093560436C01932B4
:1048300021F481E08093530431C0153F71F48091DD
:10484000570491E0892780935704882319F40E9424
:1048500093051FC00E94D4051CC0123F59F40E944A
:104860004F19882319F00E94D81917C081E080934E
:10487000550413C0812F609153040E9434060EC06A
:104880001C3F59F0193219F41092530402C0123F20
:1048900011F081E003C01092550480E01F910F9148
:1048A00008950E94C508882341F088E594E00E949D
:1048B000752389E594E00E9475230E94C808882327
:1048C00079F080915604882359F010925604809113
:1048D000AD008F3F29F00E946C198FEF8093AD00DF
:1048E00008958CE896E00E94A91A88EC93E00E9453
:1048F000A91A8AEC93E00E94A91A88EC93E00E941E
:10490000A91A80915A04813019F486E996E007C00B
:10491000823019F489E996E002C08FEC93E00E949E
:10492000A91A08951F93182F1150133050F587E0DE
:104930000E941C1910935A04113041F487E090E052
:104940000E94FB2D682F6B7E606110C0123041F415
:1049500087E090E00E94FB2D682F6B7E646006C0AC
:1049600087E090E00E94FB2D682F646187E090E073
:104970000E94032E0E944E060E9471240E94651917
:104980000DC0843031F484E60E941C190E94341951
:1049900005C0863019F48EE60E941C191F910895F7
:1049A0000E94712408950F931F930E9471240E9406
:1049B000651981E00E9487220E94481B0AEC13E0DF
:1049C000C8010E94A91A8FEC93E00E94A91A0E94C4
:1049D000651982E00E9487220E94481BC8010E943C
:1049E000A91A86E996E00E94A91A0E94651983E037
:1049F0000E9487220E94481BC8010E94A91A89E9C7
:104A000096E00E94A91A0E94651984E00E948722FC
:104A10000E94481BC8010E94A91A8AED93E00E94D7
:104A2000A91A0E94651986E00E9487220E94481BED
:104A3000C8010E94A91A8FED93E00E94A91A0E9452
:104A400065191F910F91089587E090E00E94FB2D5A
:104A5000482F8695869590E09C012170307080FDEE
:104A600007C0842F82958F7080FF0DC081E008C041
:104A7000222349F0842F82958F7080FD04C082E04C
:104A800080935A0402C010925A0487EA90E00E9470
:104A90000E19089580915C04089540915C0481E0B2
:104AA000482740935C0487E090E063E00E944A213D
:104AB000089587E090E063E00E943C2180935C04CD
:104AC0008EEA90E00E940E1908951F93182F8932E4
:104AD000B9F480915C04882399F0662351F00E9418
:104AE000DE17823011F0803259F481E080935B044C
:104AF00006C080915B04882319F010925B0415E3D3
:104B0000812F1F9108958CE996E00E94A91A88ECE4
:104B100093E00E94A91A8AEC93E00E94A91A88ECFB
:104B200093E00E94A91A80915C04882319F08CEC10
:104B300093E002C08FEC93E00E94A91A089581309F
:104B400051F487E00E941C190E944D250E94832584
:104B50000E9465190895833031F484E60E941C197F
:104B60000E9434190895863019F48EE60E941C19AB
:104B700008950E94832508950F931F930E94832513
:104B80000E94651981E00E9487220E94481B0AEC5E
:104B900013E0C8010E94A91A83ED93E00E94F11A64
:104BA00083E00E9487220E94481BC8010E94A91A24
:104BB0008AED93E00E94F11A86E00E9487220E940B
:104BC000481BC8010E94A91A8FED93E00E94F11AB8
:104BD0001F910F91089580915D04089540915D04A7
:104BE00081E0482740935D0487E090E060E00E9408
:104BF0004A21089587E090E060E00E943C21809384
:104C00005D0484EB90E00E940E19089585EA96E019
:104C10000E94A91A88EC93E00E94A91A8AEC93E0FA
:104C20000E94A91A88EC93E00E94A91A80915D0461
:104C3000882319F08CEC93E002C08FEC93E00E9483
:104C4000A91A0895813051F487E00E941C190E942E
:104C5000EE250E9406260E9465190895833031F4DE
:104C600084E60E941C190E9434190895863019F4B4
:104C70008EE60E941C1908950E94062608950F933F
:104C80001F930E9406260E94651981E00E948722D8
:104C90000E94481B0AEC13E0C8010E94A91A83ED88
:104CA00093E00E94F11A83E00E9487220E94481B31
:104CB000C8010E94A91A8AED93E00E94F11A86E0C9
:104CC0000E9487220E94481BC8010E94A91A8FEDEA
:104CD00093E00E94F11A1F910F91089581E0809353
:104CE0007404089581E080936104109262048093BB
:104CF0005E04089580915F04811181E008950F930F
:104D00001F93162F0E94F316082F81508C3B08F03A
:104D100057C080578A3108F453C081E080935F0404
:104D2000802F8756112359F1883038F41091600490
:104D3000802F0E94CD18182B2BC0EBE6F4E00190D9
:104D40000020E9F73197EB56F440E63008F038C020
:104D5000802F8D58823128F4E02FF0E0E953FD4F89
:104D600004918BE694E0602F0E9464218F5F9F4F37
:104D700039F58BE694E0602F0E94B02121C0883085
:104D800050F410916004802F0E94CD188095182354
:104D90001093600415C0802F8D58823128F4E02FC5
:104DA000F0E0E953FD4F04918BE694E0602F0E9400
:104DB0006421BC0197FD04C08BE694E00E947E2133
:104DC0001F910F9108950F931F93182F082F0157CC
:104DD0006623E9F061E00E947F260A3160F521E058
:104DE00020936304E12FF0E0EE0FFF1FE25CFD4F24
:104DF0008591949190936504809364040330D8F472
:104E000020936604909368048093670414C060E064
:104E10000E947F260A3178F481E080936304109227
:104E2000650410926404033030F480936604109299
:104E300068041092670481E01F910F9108952F92EA
:104E40003F924F925F926F927F928F929F92AF921A
:104E5000BF92CF92DF92EF92FF920F931F93DF9357
:104E6000CF9300D00F92CDB7DEB782B3837F82BBE2
:104E700081B3837F81BB0E948D288B9A20E048EB11
:104E80005BE0CA010197F1F72150D9F78B988AEBC3
:104E900090E00E9496148CEB90E00E94FA2986E044
:104EA000EBE6F4E0DF011D928A95E9F710926004C9
:104EB00010926504109264047894DD24EE24FF249B
:104EC00059EC252E312C2E010894411C511C47E72A
:104ED000842E44E0942E38E0C32E2BE6A22E24E04C
:104EE000B22E92E0692E712C680C791C8091C00062
:104EF000813061F580917404882341F580917204BA
:104F000090917304019690937304809372040197B7
:104F1000895B9B40DCF01092C0008BB78F778BBF12
:104F20000F900F900F90CF91DF911F910F91FF90F5
:104F3000EF90DF90CF90BF90AF909F908F907F9039
:104F40006F905F904F903F902F90089580917E05D5
:104F5000882351F010927E0510925E040E94FF1883
:104F6000DD24EE24FF2424C080915E04882339F0E0
:104F7000E1E0E0937E050E94FF18DD2419C0DD20EA
:104F8000B9F487010F5F1F4FF1E1EF16F7E2FF065B
:104F900074F00E94DE17882351F40E94D4178823EE
:104FA00031F40E94D7187801DD24D39401C0780130
:104FB0000E949E2880916F0584FF59C080916304F0
:104FC000882331F480916604882311F40E94161618
:104FD0000E94342380915F04882321F1809174041E
:104FE000882309F483CFD401EC2D1D92EA95E9F7CB
:104FF000809160048093770410927804F501019009
:105000000020E9F73197EB56F440C301B501AF0139
:105010000E94112D87E794E068E00E94E429109235
:105020005F0425C0809161048130A1F4F2E0F09327
:105030006104D401EC2D1D92EA95E9F787E794E02D
:1050400068E00E94E4290E94BA0980910201882345
:1050500071F00BC080916204823049F4F3E0F09368
:10506000620480910201882311F40E94152180912D
:105070009B0584FF24C080916304882371F0809194
:1050800064049091650421E029839B838A83C20193
:1050900063E00E94DF2910926304809166048823F4
:1050A00071F08091670490916804A2E0A9839B83CA
:1050B0008A83C20163E00E94DF2910926604809116
:1050C0006104823009F012CF8091690490916A04E2
:1050D0009C012F5F3F4F30936A0420936904883C02
:1050E000910519F40E940D2B01CF293C31050CF4D8
:1050F000FDCE30926A0420926904B3E0B09361045B
:10510000F5CE0E9443050E944E06809162048823DA
:1051100019F482E080936204089585B7886085BFA2
:105120008BB780688BBF8BE48093700580939C0560
:105130008AE580936F0580939B0508951F93CF9315
:10514000DF9360918105635067FDBDC080917D054F
:10515000CCE0D0E0C81BD109CB57DA4F80917C0559
:105160008D3209F09DC0683009F0ABC083EC8093AC
:1051700064058AE58093BE00109271048881807670
:1051800029F0CE010E941A0A282F77C09A81109226
:105190006D058981882321F410926E0522E066C096
:1051A000853019F49093820560C0863009F047C0BD
:1051B0008B81813059F489B78B7F89BF8DED96E063
:1051C0009093800580937F0522E135C0823019F1EC
:1051D0008330F9F48A81882341F48DEA96E0909334
:1051E000800580937F0524E026C0813041F481EB67
:1051F00096E09093800580937F052CE11CC082305F
:10520000C9F48DEC96E09093800580937F0520E1B2
:1052100012C0813229F4CE010E94D209282F0BC07E
:10522000823241F4CE010E94D209282F89B78460CE
:1052300089BF01C020E080E4809371041EC08830E3
:1052400021F421E084E895E013C0893019F49093AB
:1052500084050BC08A3011F421E008C08B3029F49A
:105260008BE48093700580939C0520E08DE695E0AB
:105270009093800580937F0509C02F3F39F4888182
:1052800087FD2E8180E88093710406C08F8188237A
:1052900019F48E81821708F0822F8093BF0011C00D
:1052A0008091710487FF0DC0CE010E940C0A8F3FD0
:1052B00021F48EE18093BE0004C0882311F0109287
:1052C000BF00109281058091BE0084FF46C080918E
:1052D000BF008F3F09F441C0182F893008F018E053
:1052E000811B8093BF008091640598E88927809393
:1052F0006405112321F120917F0530918005809173
:10530000710486FF0AC0912FF901A5E6B5E08491EA
:105310008D9331969150D9F708C0912FD901E5E6C8
:10532000F5E08D9181939150E1F7C90101961150FB
:10533000810F911D1F5F9093800580937F0585E607
:1053400095E0612F0E94B703612F6C5F6C3019F0FC
:105350008FEF8093BF006093BE0094E180B38C70A8
:1053600031F49150D9F71092820510927B05DF91AC
:10537000CF911F9108951F93CF93DF93DC01162FD8
:10538000EA01888184FF05C0898198E8892789839B
:1053900002C08AE58883AE014E5F5F4F212FFA017C
:1053A0008D91819321501216DCF3CA01612F0E9466
:1053B000B7031C5F1883DF91CF911F9108954BE9CC
:1053C00055E00E94BB2908954FE655E00E94BB2995
:1053D00008958D98959A08958D9A959808959C01B1
:1053E0008091C000882311F0833011F43595279502
:1053F000C901089590937604809375040895E0910F
:105400007504F09176040190F081E02D09950895DE
:105410001F93182F0E94C909112399F010E0812FC2
:105420000E9429111F5F1730D1F789B78E7F89BF7E
:1054300089B78B7F89BF89B78F7B89BF8D98959AF4
:1054400002C08D9A95981F9108959F92AF92BF9236
:10545000CF92DF92EF92FF920F931F93CF93DF9340
:105460000E94C9090E94BA0984E18A95F1F710E007
:105470000E940D09882319F41F5F1431C9F70E9497
:10548000CE087C0100E0DD2431E0A32EB12C2AE01F
:10549000922E95E0C92EF7018081882309F43FC040
:1054A000C0E0D0E095010C2E02C0220F331F0A94F9
:1054B000E2F7F7018081822371F180E06D2D4C2F9E
:1054C0000E943318182F8C2F6D2D0E94720A88238A
:1054D00011F41B3221F481E00E942F231CC01031F3
:1054E00019F40E94301917C0183111F4016013C06B
:1054F000133111F402600FC01E3121F481E080935A
:10550000090109C01F3119F4C092090104C0103209
:1055100011F4909209012196C830D10519F6D3945F
:105520000894E11CF11CF1E1DF1609F0B4CF0E94F0
:1055300003090E94D408002319F00F5F0093C000F4
:105540006091C000643021F48CE090E06FEF04C003
:10555000643028F48CE090E00E94032E06C08CE0BA
:1055600090E00E94FB2D8093C0008A98929A20912F
:10557000C0002430D0F090E080E0829907C092FD16
:1055800009C08F5F863060F021E00AC0829B09C0AD
:1055900092FD02C080E004C08F5F863008F020E0FA
:1055A00090B3223050F72093C0000E94D2160E9480
:1055B00025210E94FA250E9424250E9459250E9437
:1055C000E1178091C0008150823070F4F8940E94FD
:1055D000490510927304109272041092740481E0D1
:1055E0000E94082A0E941F278091C000882311F082
:1055F000833039F7F8940E94490510927304109291
:1056000072041092740482E390E00E94150780E017
:105610000E94082A0E947F0DD4CF0E943A050E9462
:1056200004070E948B140895ABE0B0E0EAE1FBE2CE
:105630000C94B22C5C014B017A01FC01178216829A
:10564000838181FD08C06FEF7FEF08C142E050E029
:10565000E40EF51E04C03E010894611C711CF501A6
:10566000D380F401D3FC8591D3FE81914F0188232F
:1056700009F4F1C0853259F4D3FC6591D3FE6191F0
:105680004F01653219F0062F10E01BC085E290E053
:105690002BC0002309F4DFC086EF96E0602F70E096
:1056A0000E94F92C892B39F4033211F4106103C0E4
:1056B0000C3661F41068F401D3FC0591D3FE01911E
:1056C0004F0117FFE6CF002309F4C5C08FEE96E027
:1056D000602F70E00E94F92C892B51F044E050E0DB
:1056E000E40EF51E8FE390E0B5010E944D2DB7CF7B
:1056F000033629F0033779F00335F1F40BC0870145
:105700000E5F1F4FF70180819181B5010E944D2DE1
:105710007801A5CF1160F701C080D18004C090E06E
:10572000B5010E944D2DF60110FD859110FF81916C
:105730006F018823A1F78ACF043611F0093639F5B5
:1057400017FF08C0F701208131814281538184E035
:1057500090E00AC0F701808191819C01442737FDC8
:105760004095542F82E090E0E80EF91E1F7E57FF0F
:1057700008C050954095309521953F4F4F4F5F4F52
:105780001064CA01B901A3012AE030E034C0003737
:10579000A9F0013730F40835B1F00F3609F05BC0DD
:1057A00006C0053739F0083709F055C008C028E0B1
:1057B00030E00CC01F7E2AE030E008C010611462A7
:1057C00020E130E003C0146020E132E017FF08C0A0
:1057D000F701608171818281938144E050E008C0CB
:1057E000F70180819181BC0180E090E042E050E0CF
:1057F000E40EF51EA3010E949D2DD82ED618012F70
:1058000010E006FF05C08DE290E0B5010E944D2D2D
:1058100004FF15C0FE01ED0DF11D8081803379F08C
:1058200080E390E0B5010E944D2D02FF08C0007298
:105830001070C801885A9F4FB5010E944D2DDA940F
:10584000F301ED0DF11D808190E0B5010E944D2D19
:10585000DD20A9F704CFF50166817781CB012B9676
:10586000EEE00C94CE2C629FD001739FF001829FDA
:10587000E00DF11D649FE00DF11D929FF00D839FDF
:10588000F00D749FF00D659FF00D9927729FB00D7C
:10589000E11DF91F639FB00DE11DF91FBD01CF018F
:1058A00011240895991B79E004C0991F961708F0F8
:1058B000961B881F7A95C9F78095089597FB092E46
:1058C00007260AD077FD04D080D006D000201AF435
:1058D000709561957F4F0895F6F7909581959F4F4C
:1058E0000895A1E21A2EAA1BBB1BFD010DC0AA1F21
:1058F000BB1FEE1FFF1FA217B307E407F50720F039
:10590000A21BB30BE40BF50B661F771F881F991FB3
:105910001A9469F760957095809590959B01AC01FC
:10592000BD01CF01089597FB092E05260ED057FD26
:1059300004D0D7DF0AD0001C38F45095409530953C
:1059400021953F4F4F4F5F4F0895F6F79095809503
:10595000709561957F4F8F4F9F4F08952F923F9283
:105960004F925F926F927F928F929F92AF92BF926F
:10597000CF92DF92EF92FF920F931F93CF93DF931B
:10598000CDB7DEB7CA1BDB0B0FB6F894DEBF0FBE78
:10599000CDBF09942A88398848885F846E847D84C5
:1059A0008C849B84AA84B984C884DF80EE80FD80C7
:1059B0000C811B81AA81B981CE0FD11D0FB6F8943D
:1059C000DEBF0FBECDBFED010895AA1BBB1B51E189
:1059D00007C0AA1FBB1FA617B70710F0A61BB70B5F
:1059E000881F991F5A95A9F780959095BC01CD0104
:1059F0000895FC010590061621F00020D9F7C0019A
:105A000008953197CF010895FC014150504030F086
:105A100001900616D1F73197CF010895882799276D
:105A20000895FB01DC0102C001900D9241505040ED
:105A3000D8F708956817790768F4FB01DC01E40FD3
:105A4000F51FA40FB51F02C002900E9241505040A6
:105A5000D8F708950C94112DFB019F01E894423072
:105A6000C4F04532B4F44A3029F497FB1EF4909503
:105A700081959F4F642F77270E94E52C805D8A33A4
:105A80000CF0895D8193CB010097A1F716F45DE2DC
:105A900051931082C9010C94102E0F931F93CF9332
:105AA000DF938C01EB018B8181FF1BC082FF0DC056
:105AB0002E813F818C819D812817390764F4E8810C
:105AC000F9810193F983E88306C0E885F985802F81
:105AD0000995892B31F48E819F8101969F838E8356
