:100249003F065B4F666D7D077F6F777C395E7971FD
:10021800E4FEC286EF30E004D2878002C287EFC3D3
:0802280013FFD2860EBE08EAA6
:0102300022AB
:10023100E4FFD287FEEFC313FFC286308703430773
:0702410080D2860EBE08EE1C
:010248002293
:1001DC007420A805088002C313D8FCF452801202C4
:1001EC0018AF057420A807088002C313D8FC4280FE
:0101FC0022E0
:02009000AD07BA
:10009200E4FC7420A805088002C313D8FCF4528043
:1000A2007F42120218E4FB120231743A2BF8A607BF
:1000B2000BBB04F3AF057420A807088002C313D852
:1000C200FC4280E4FB743A2BF8E6FFA803088002A6
:1000D200C333D8FC42040BBB04EBE4FB74017E0087
:1000E200A803088005C333CE33CED8F9FFEC6F7076
:0A00F20001EE60040BBB08E4AF034D
:0100FC0022E1
:0700FD0090024993FDAB38AE
:10010400AC07AA05AD037F441201DC7420A80308E0
:100114008002C313D8FCF45280EC44C0FF120218CE
:10012400AF02120218AF037420A807088002C31399
:05013400D8FC4280220E
:1001FD008F3EED600AE53E25E004FF7D018008E5B8
:0B020D003E25E004FFE4FD1201042286
:040175008F3A8D3BF5
:10017900E4F974017E00A801088005C333CE33CEAB
:10018900D8F9FFEF553A600BE925E004FFAB3B7D59
:10019900038009E925E004FFAB3BE4FD12010409F2
:0301A900B908CFC3
:0101AC002230
:02013900AC0711
:10013B00AD047F8B1201DC7F401201DC7420A8041C
:10014B00088002C313D8FCF452807FC0120218E45B
:10015B00FDE4FF1202180DBD10F7AF047420A807C1
:09016B00088002C313D8FC428095
:010174002268
:1001AD007D067420A805088002C313D8FCF4528084
:1001BD007F421202181202317420A805088002C372
:0E01CD0013D8FC4280EF30E202DDD7ED04FFD4
:0101DB002201
:100003001201AD8F39E4F538E538C395395018AF8F
:1000130038120139E4F9E925E0FFE5391200FD0959
:10002300B908F3053880E1E4F538E538C39539506C
:10003300F6AF38120090A907E9C39408504BE5388E
:1000430075F008A4292408F806AF38120090EF6968
:1000530060F7E53875F008A4292408F8E6D3940F6F
:100063004002E4F6E925E0FFE53875F008A4292409
:1000730008F8E61200FDAF017401A807088002C367
:0D00830033D8FCFFAD381201750538809DA3
:03000000020259A0
:0C025900787FE4F6D8FD75813E020003BA
:00000001FF
