:100000000C9432000C944D000C944D000C944D0057
:100010000C944D000C944D000C944D000C944D002C
:100020000C944D000C944D000C944D000C944D001C
:100030000C944D000C944D000C944D000C944D000C
:100040000C944D000C944D000C944D000C944D00FC
:100050000C944D003F065B4F666D7D077F6F777C8C
:10006000395E797111241FBECFE5D4E0DEBFCDBF6C
:1000700010E0A0E6B0E0ECEBF3E002C005900D92DA
:10008000A036B107D9F710E0A0E6B0E001C01D929C
:10009000A836B107E1F70C949C010C940000982F4E
:1000A0008F9A31E027E0969890FF02C0979A01C09E
:1000B00097989695969A832F8A95F1F7215027FF66
:1000C000F2CF089520E08F9881E0982F9A95F1F76C
:1000D000382F97E026959698832F8A95F1F7879980
:1000E0002068969A915097FFF5CF822F992708950F
:1000F00094980E944F00949A81E08A95F1F70895B0
:10010000AF92BF92CF92DF92EF92FF920F931F9325
:10011000CF93DF93CDB7DEB724970FB6F894DEBF49
:100120000FBECDBFCC24949882E40E944F0081E0A2
:100130008A95F1F7EE24FF2493E0D92E5E0108940E
:10014000A11CB11C87010A0D1B1D0E946200F80151
:100150008083DA940894E11CF11CD7FEEFCF949AC7
:10016000F50120E030E083E0D82E81919927022E1E
:1001700002C0880F991F0A94E2F7C82ADA942F5F09
:100180003F4FD7FEF2CFDD2461E070E04C2D5527C4
:1001900020E030E0CB01022E02C0880F991F0A94A4
:1001A000E2F78417950731F0D3942F5F3F4FF7E0C4
:1001B000FD1580F78D2D992724960FB6F894DEBF94
:1001C0000FBECDBFDF91CF911F910F91FF90EF90A8
:1001D000DF90CF90BF90AF9008950F931F93182F8B
:1001E000062F84E40E9478009498812F806C0E94EE
:1001F0004F00802F0E944F00949A1F910F910895F5
:10020000CF92DF92FF920F931F93CF93DF93CDB7DF
:10021000DEB721970FB6F894DEBF0FBECDBF8B01BE
:10022000F42E84E40E94780090E09F1588F4CC249A
:10023000DD24F80161918F018C2D99830E94ED00DE
:1002400099819F5F22E030E0C20ED31E9F1588F394
:1002500021960FB6F894DEBF0FBECDBFDF91CF91D0
:100260001F910F91FF90DF90CF90089599276623FB
:1002700029F0880F991F61E0860F03C0880F991F2E
:100280008F5F0E94ED000895EF92FF920F931F93EE
:10029000CF93DF93E82E00E010E027E0F22EE80194
:1002A0008E2D9927002E02C0959587950A94E2F726
:1002B00080FF02C063E001C060E08C2F8F5F0E946E
:1002C000ED00FA940F5F1F4F2296F7FEE9CFDF9102
:1002D000CF911F910F91FF90EF900895CF938BE8EE
:1002E0000E94780080E40E947800949880EC0E943C
:1002F0004F00CFE080E00E944F00C150C7FFFACF0F
:10030000949ACF91089581B3886D81BB82B3886D33
:1003100082BB0895949882E40E944F0081E08A9500
:10032000F1F70E946200949A82FF03C080E090E09F
:10033000089581E090E00895CFE5D4E0DEBFCDBF21
:100340000E9483010E946E01C0E017E0E4E5F0E046
:100350008491682F8C2F0E94ED001150CE5F17FF03
:10036000F5CF0E948000182F8830D8F7C82FDD27DE
:10037000FE01E05AFF4F80818F5F80830E948000E2
:100380008117E1F3FE01E05AFF4F8081803108F0D0
:1003900010828081E82FFF27EC5AFF4F8491682F4D
:1003A0008C2F880F0E94ED0081E090E002C0880F42
:0C03B000991FCA95E2F70E944401D3CFC8
:00000001FF
